{
  "contractName": "DesignatedVotingFactory",
  "abi": [
    {
      "inputs": [
        {
          "internalType": "address",
          "name": "finderAddress",
          "type": "address"
        }
      ],
      "payable": false,
      "stateMutability": "nonpayable",
      "type": "constructor"
    },
    {
      "constant": false,
      "inputs": [
        {
          "internalType": "uint256",
          "name": "roleId",
          "type": "uint256"
        },
        {
          "internalType": "address",
          "name": "newMember",
          "type": "address"
        }
      ],
      "name": "addMember",
      "outputs": [],
      "payable": false,
      "stateMutability": "nonpayable",
      "type": "function"
    },
    {
      "constant": true,
      "inputs": [
        {
          "internalType": "address",
          "name": "",
          "type": "address"
        }
      ],
      "name": "designatedVotingContracts",
      "outputs": [
        {
          "internalType": "contract DesignatedVoting",
          "name": "",
          "type": "address"
        }
      ],
      "payable": false,
      "stateMutability": "view",
      "type": "function"
    },
    {
      "constant": true,
      "inputs": [
        {
          "internalType": "uint256",
          "name": "roleId",
          "type": "uint256"
        }
      ],
      "name": "getMember",
      "outputs": [
        {
          "internalType": "address",
          "name": "",
          "type": "address"
        }
      ],
      "payable": false,
      "stateMutability": "view",
      "type": "function"
    },
    {
      "constant": true,
      "inputs": [
        {
          "internalType": "uint256",
          "name": "roleId",
          "type": "uint256"
        },
        {
          "internalType": "address",
          "name": "memberToCheck",
          "type": "address"
        }
      ],
      "name": "holdsRole",
      "outputs": [
        {
          "internalType": "bool",
          "name": "",
          "type": "bool"
        }
      ],
      "payable": false,
      "stateMutability": "view",
      "type": "function"
    },
    {
      "constant": false,
      "inputs": [
        {
          "internalType": "uint256",
          "name": "roleId",
          "type": "uint256"
        },
        {
          "internalType": "address",
          "name": "memberToRemove",
          "type": "address"
        }
      ],
      "name": "removeMember",
      "outputs": [],
      "payable": false,
      "stateMutability": "nonpayable",
      "type": "function"
    },
    {
      "constant": false,
      "inputs": [
        {
          "internalType": "uint256",
          "name": "roleId",
          "type": "uint256"
        },
        {
          "internalType": "address",
          "name": "newMember",
          "type": "address"
        }
      ],
      "name": "resetMember",
      "outputs": [],
      "payable": false,
      "stateMutability": "nonpayable",
      "type": "function"
    },
    {
      "constant": false,
      "inputs": [
        {
          "internalType": "uint256",
          "name": "amount",
          "type": "uint256"
        }
      ],
      "name": "withdraw",
      "outputs": [],
      "payable": false,
      "stateMutability": "nonpayable",
      "type": "function"
    },
    {
      "constant": false,
      "inputs": [
        {
          "internalType": "address",
          "name": "erc20Address",
          "type": "address"
        },
        {
          "internalType": "uint256",
          "name": "amount",
          "type": "uint256"
        }
      ],
      "name": "withdrawErc20",
      "outputs": [],
      "payable": false,
      "stateMutability": "nonpayable",
      "type": "function"
    },
    {
      "constant": false,
      "inputs": [
        {
          "internalType": "address",
          "name": "ownerAddress",
          "type": "address"
        }
      ],
      "name": "newDesignatedVoting",
      "outputs": [
        {
          "internalType": "contract DesignatedVoting",
          "name": "designatedVoting",
          "type": "address"
        }
      ],
      "payable": false,
      "stateMutability": "nonpayable",
      "type": "function"
    },
    {
      "constant": false,
      "inputs": [
        {
          "internalType": "address",
          "name": "designatedVotingAddress",
          "type": "address"
        }
      ],
      "name": "setDesignatedVoting",
      "outputs": [],
      "payable": false,
      "stateMutability": "nonpayable",
      "type": "function"
    }
  ],
  "bytecode": "0x60806040523480156200001157600080fd5b50604051620040803803806200408083398181016040526200003791908101906200031c565b80600260006101000a81548173ffffffffffffffffffffffffffffffffffffffff021916908373ffffffffffffffffffffffffffffffffffffffff160217905550620000a36000808111156200008957fe5b6000808111156200009657fe5b33620000aa60201b60201c565b506200051f565b82600181905550620000c4838383620000c960201b60201c565b505050565b8260006002811115620000d857fe5b60008083815260200190815260200160002060010160009054906101000a900460ff1660028111156200010757fe5b146200014a576040517f08c379a000000000000000000000000000000000000000000000000000000000815260040162000141906200047c565b60405180910390fd5b6000806000868152602001908152602001600020905060018160010160006101000a81548160ff021916908360028111156200018257fe5b0217905550838160000181905550620001ad83826002016200023560201b620015581790919060201c565b60006002811115620001bb57fe5b60008086815260200190815260200160002060010160009054906101000a900460ff166002811115620001ea57fe5b14156200022e576040517f08c379a000000000000000000000000000000000000000000000000000000000815260040162000225906200045a565b60405180910390fd5b5050505050565b6200024782826200024b60201b60201c565b5050565b600073ffffffffffffffffffffffffffffffffffffffff168173ffffffffffffffffffffffffffffffffffffffff161415620002be576040517f08c379a0000000000000000000000000000000000000000000000000000000008152600401620002b5906200049e565b60405180910390fd5b808260000160006101000a81548173ffffffffffffffffffffffffffffffffffffffff021916908373ffffffffffffffffffffffffffffffffffffffff1602179055505050565b600081519050620003168162000505565b92915050565b6000602082840312156200032f57600080fd5b60006200033f8482850162000305565b91505092915050565b600062000357603c83620004c0565b91507f417474656d7074656420746f2075736520616e20696e76616c696420726f6c6560008301527f20746f206d616e61676520616e206578636c757369766520726f6c65000000006020830152604082019050919050565b6000620003bf601e83620004c0565b91507f43616e6e6f74207573652061207072652d6578697374696e6720726f6c6500006000830152602082019050919050565b600062000401602383620004c0565b91507f43616e6e6f742073657420616e206578636c757369766520726f6c6520746f2060008301527f30783000000000000000000000000000000000000000000000000000000000006020830152604082019050919050565b60006020820190508181036000830152620004758162000348565b9050919050565b600060208201905081810360008301526200049781620003b0565b9050919050565b60006020820190508181036000830152620004b981620003f2565b9050919050565b600082825260208201905092915050565b6000620004de82620004e5565b9050919050565b600073ffffffffffffffffffffffffffffffffffffffff82169050919050565b6200051081620004d1565b81146200051c57600080fd5b50565b613b51806200052f6000396000f3fe60806040523480156200001157600080fd5b5060043610620000ac5760003560e01c80637cbf876b116200006f5780637cbf876b146200017d5780637cdc1cb9146200019d578063ab3545e514620001d3578063bd1f4b521462000209578063d97c05be146200022957620000ac565b80632e1a7d4d14620000b157806349ed510f14620000d15780635e07dd5b14620001075780636be7658b146200013d57806374d0a676146200015d575b600080fd5b620000cf6004803603620000c9919081019062000f4e565b62000249565b005b620000ef6004803603620000e9919081019062000eb5565b620002e6565b604051620000fe919062001340565b60405180910390f35b6200012560048036036200011f919081019062000eb5565b62000319565b60405162000134919062001340565b60405180910390f35b6200015b600480360362000155919081019062000f7a565b620004cf565b005b6200017b600480360362000175919081019062000f7a565b620005e2565b005b6200019b600480360362000195919081019062000eb5565b620006f5565b005b620001bb6004803603620001b5919081019062000f7a565b62000847565b604051620001ca919062001323565b60405180910390f35b620001f16004803603620001eb919081019062000f4e565b62000951565b6040516200020091906200129c565b60405180910390f35b62000227600480360362000221919081019062000ee1565b620009fb565b005b62000247600480360362000241919081019062000f7a565b62000af4565b005b60015462000258813362000847565b6200029a576040517f08c379a00000000000000000000000000000000000000000000000000000000081526004016200029190620013a1565b60405180910390fd5b3373ffffffffffffffffffffffffffffffffffffffff166108fc839081150290604051600060405180830381858888f19350505050158015620002e1573d6000803e3d6000fd5b505050565b60036020528060005260406000206000915054906101000a900473ffffffffffffffffffffffffffffffffffffffff1681565b60008073ffffffffffffffffffffffffffffffffffffffff16600360003373ffffffffffffffffffffffffffffffffffffffff1673ffffffffffffffffffffffffffffffffffffffff16815260200190815260200160002060009054906101000a900473ffffffffffffffffffffffffffffffffffffffff1673ffffffffffffffffffffffffffffffffffffffff1614620003eb576040517f08c379a0000000000000000000000000000000000000000000000000000000008152600401620003e29062001429565b60405180910390fd5b600260009054906101000a900473ffffffffffffffffffffffffffffffffffffffff1682336040516200041e9062000e62565b6200042c93929190620012e6565b604051809103906000f08015801562000449573d6000803e3d6000fd5b50905080600360003373ffffffffffffffffffffffffffffffffffffffff1673ffffffffffffffffffffffffffffffffffffffff16815260200190815260200160002060006101000a81548173ffffffffffffffffffffffffffffffffffffffff021916908373ffffffffffffffffffffffffffffffffffffffff160217905550919050565b81600280811115620004dd57fe5b60008083815260200190815260200160002060010160009054906101000a900460ff1660028111156200050c57fe5b146200054f576040517f08c379a000000000000000000000000000000000000000000000000000000000815260040162000546906200137f565b60405180910390fd5b8262000571600080838152602001908152602001600020600001543362000847565b620005b3576040517f08c379a0000000000000000000000000000000000000000000000000000000008152600401620005aa90620013e5565b60405180910390fd5b620005dc8360008087815260200190815260200160002060030162000c0890919063ffffffff16565b50505050565b81600280811115620005f057fe5b60008083815260200190815260200160002060010160009054906101000a900460ff1660028111156200061f57fe5b1462000662576040517f08c379a000000000000000000000000000000000000000000000000000000000815260040162000659906200137f565b60405180910390fd5b8262000684600080838152602001908152602001600020600001543362000847565b620006c6576040517f08c379a0000000000000000000000000000000000000000000000000000000008152600401620006bd90620013e5565b60405180910390fd5b620006ef8360008087815260200190815260200160002060030162000c6690919063ffffffff16565b50505050565b600073ffffffffffffffffffffffffffffffffffffffff16600360003373ffffffffffffffffffffffffffffffffffffffff1673ffffffffffffffffffffffffffffffffffffffff16815260200190815260200160002060009054906101000a900473ffffffffffffffffffffffffffffffffffffffff1673ffffffffffffffffffffffffffffffffffffffff1614620007c6576040517f08c379a0000000000000000000000000000000000000000000000000000000008152600401620007bd9062001429565b60405180910390fd5b80600360003373ffffffffffffffffffffffffffffffffffffffff1673ffffffffffffffffffffffffffffffffffffffff16815260200190815260200160002060006101000a81548173ffffffffffffffffffffffffffffffffffffffff021916908373ffffffffffffffffffffffffffffffffffffffff16021790555050565b6000806000808581526020019081526020016000209050600160028111156200086c57fe5b8160010160009054906101000a900460ff1660028111156200088a57fe5b1415620008b257620008a9838260020162000cc490919063ffffffff16565b9150506200094b565b600280811115620008bf57fe5b8160010160009054906101000a900460ff166002811115620008dd57fe5b14156200090557620008fc838260030162000d2190919063ffffffff16565b9150506200094b565b600062000949576040517f08c379a0000000000000000000000000000000000000000000000000000000008152600401620009409062001407565b60405180910390fd5b505b92915050565b600081600160028111156200096257fe5b60008083815260200190815260200160002060010160009054906101000a900460ff1660028111156200099157fe5b14620009d4576040517f08c379a0000000000000000000000000000000000000000000000000000000008152600401620009cb906200135d565b60405180910390fd5b620009f360008085815260200190815260200160002060020162000d7a565b915050919050565b60015462000a0a813362000847565b62000a4c576040517f08c379a000000000000000000000000000000000000000000000000000000000815260040162000a4390620013a1565b60405180910390fd5b60008390508073ffffffffffffffffffffffffffffffffffffffff1663a9059cbb33856040518363ffffffff1660e01b815260040162000a8e929190620012b9565b602060405180830381600087803b15801562000aa957600080fd5b505af115801562000abe573d6000803e3d6000fd5b505050506040513d601f19601f8201168201806040525062000ae4919081019062000f22565b62000aee57600080fd5b50505050565b816001600281111562000b0357fe5b60008083815260200190815260200160002060010160009054906101000a900460ff16600281111562000b3257fe5b1462000b75576040517f08c379a000000000000000000000000000000000000000000000000000000000815260040162000b6c906200135d565b60405180910390fd5b8262000b97600080838152602001908152602001600020600001543362000847565b62000bd9576040517f08c379a000000000000000000000000000000000000000000000000000000000815260040162000bd090620013e5565b60405180910390fd5b62000c028360008087815260200190815260200160002060020162000da890919063ffffffff16565b50505050565b60008260000160008373ffffffffffffffffffffffffffffffffffffffff1673ffffffffffffffffffffffffffffffffffffffff16815260200190815260200160002060006101000a81548160ff0219169083151502179055505050565b60018260000160008373ffffffffffffffffffffffffffffffffffffffff1673ffffffffffffffffffffffffffffffffffffffff16815260200190815260200160002060006101000a81548160ff0219169083151502179055505050565b60008173ffffffffffffffffffffffffffffffffffffffff168360000160009054906101000a900473ffffffffffffffffffffffffffffffffffffffff1673ffffffffffffffffffffffffffffffffffffffff1614905092915050565b60008260000160008373ffffffffffffffffffffffffffffffffffffffff1673ffffffffffffffffffffffffffffffffffffffff16815260200190815260200160002060009054906101000a900460ff16905092915050565b60008160000160009054906101000a900473ffffffffffffffffffffffffffffffffffffffff169050919050565b600073ffffffffffffffffffffffffffffffffffffffff168173ffffffffffffffffffffffffffffffffffffffff16141562000e1b576040517f08c379a000000000000000000000000000000000000000000000000000000000815260040162000e1290620013c3565b60405180910390fd5b808260000160006101000a81548173ffffffffffffffffffffffffffffffffffffffff021916908373ffffffffffffffffffffffffffffffffffffffff1602179055505050565b6125a6806200156983390190565b60008135905062000e81816200150a565b92915050565b60008151905062000e988162001524565b92915050565b60008135905062000eaf816200153e565b92915050565b60006020828403121562000ec857600080fd5b600062000ed88482850162000e70565b91505092915050565b6000806040838503121562000ef557600080fd5b600062000f058582860162000e70565b925050602062000f188582860162000e9e565b9150509250929050565b60006020828403121562000f3557600080fd5b600062000f458482850162000e87565b91505092915050565b60006020828403121562000f6157600080fd5b600062000f718482850162000e9e565b91505092915050565b6000806040838503121562000f8e57600080fd5b600062000f9e8582860162000e9e565b925050602062000fb18582860162000e70565b9150509250929050565b62000fc681620014a6565b82525050565b62000fd7816200145c565b82525050565b62000fe88162001470565b82525050565b62000ff981620014ba565b82525050565b60006200100e602f836200144b565b91507f4d7573742062652063616c6c6564206f6e20616e20696e697469616c697a656460008301527f204578636c757369766520726f6c6500000000000000000000000000000000006020830152604082019050919050565b600062001076602c836200144b565b91507f4d7573742062652063616c6c6564206f6e20616e20696e697469616c697a656460008301527f2053686172656420726f6c6500000000000000000000000000000000000000006020830152604082019050919050565b6000620010de6022836200144b565b91507f53656e64657220646f6573206e6f7420686f6c6420726571756972656420726f60008301527f6c650000000000000000000000000000000000000000000000000000000000006020830152604082019050919050565b6000620011466023836200144b565b91507f43616e6e6f742073657420616e206578636c757369766520726f6c6520746f2060008301527f30783000000000000000000000000000000000000000000000000000000000006020830152604082019050919050565b6000620011ae6024836200144b565b91507f43616e206f6e6c792062652063616c6c6564206279206120726f6c65206d616e60008301527f61676572000000000000000000000000000000000000000000000000000000006020830152604082019050919050565b600062001216600e836200144b565b91507f496e76616c696420726f6c6549640000000000000000000000000000000000006000830152602082019050919050565b600062001258601f836200144b565b91507f4475706c696361746520686f74206b6579206e6f74207065726d6974746564006000830152602082019050919050565b62001296816200149c565b82525050565b6000602082019050620012b3600083018462000fcc565b92915050565b6000604082019050620012d0600083018562000fbb565b620012df60208301846200128b565b9392505050565b6000606082019050620012fd600083018662000fcc565b6200130c602083018562000fcc565b6200131b604083018462000fbb565b949350505050565b60006020820190506200133a600083018462000fdd565b92915050565b600060208201905062001357600083018462000fee565b92915050565b60006020820190508181036000830152620013788162000fff565b9050919050565b600060208201905081810360008301526200139a8162001067565b9050919050565b60006020820190508181036000830152620013bc81620010cf565b9050919050565b60006020820190508181036000830152620013de8162001137565b9050919050565b6000602082019050818103600083015262001400816200119f565b9050919050565b60006020820190508181036000830152620014228162001207565b9050919050565b60006020820190508181036000830152620014448162001249565b9050919050565b600082825260208201905092915050565b600062001469826200147c565b9050919050565b60008115159050919050565b600073ffffffffffffffffffffffffffffffffffffffff82169050919050565b6000819050919050565b6000620014b382620014e2565b9050919050565b6000620014c782620014ce565b9050919050565b6000620014db826200147c565b9050919050565b6000620014ef82620014f6565b9050919050565b600062001503826200147c565b9050919050565b62001515816200145c565b81146200152157600080fd5b50565b6200152f8162001470565b81146200153b57600080fd5b50565b62001549816200149c565b81146200155557600080fd5b50565b62001564828262000da8565b505056fe60806040523480156200001157600080fd5b50604051620025a6380380620025a6833981810160405262000037919081019062000355565b62000064600060018111156200004957fe5b600060018111156200005757fe5b84620000f860201b60201c565b620000906001808111156200007557fe5b600060018111156200008357fe5b83620000f860201b60201c565b620000ae60006001811115620000a257fe5b6200026460201b60201c565b82600260006101000a81548173ffffffffffffffffffffffffffffffffffffffff021916908373ffffffffffffffffffffffffffffffffffffffff16021790555050505062000582565b82600060028111156200010757fe5b60008083815260200190815260200160002060010160009054906101000a900460ff1660028111156200013657fe5b1462000179576040517f08c379a00000000000000000000000000000000000000000000000000000000081526004016200017090620004df565b60405180910390fd5b6000806000868152602001908152602001600020905060018160010160006101000a81548160ff02191690836002811115620001b157fe5b0217905550838160000181905550620001dc83826002016200026e60201b62001fc31790919060201c565b60006002811115620001ea57fe5b60008086815260200190815260200160002060010160009054906101000a900460ff1660028111156200021957fe5b14156200025d576040517f08c379a00000000000000000000000000000000000000000000000000000000081526004016200025490620004bd565b60405180910390fd5b5050505050565b8060018190555050565b6200028082826200028460201b60201c565b5050565b600073ffffffffffffffffffffffffffffffffffffffff168173ffffffffffffffffffffffffffffffffffffffff161415620002f7576040517f08c379a0000000000000000000000000000000000000000000000000000000008152600401620002ee9062000501565b60405180910390fd5b808260000160006101000a81548173ffffffffffffffffffffffffffffffffffffffff021916908373ffffffffffffffffffffffffffffffffffffffff1602179055505050565b6000815190506200034f8162000568565b92915050565b6000806000606084860312156200036b57600080fd5b60006200037b868287016200033e565b93505060206200038e868287016200033e565b9250506040620003a1868287016200033e565b9150509250925092565b6000620003ba603c8362000523565b91507f417474656d7074656420746f2075736520616e20696e76616c696420726f6c6560008301527f20746f206d616e61676520616e206578636c757369766520726f6c65000000006020830152604082019050919050565b600062000422601e8362000523565b91507f43616e6e6f74207573652061207072652d6578697374696e6720726f6c6500006000830152602082019050919050565b60006200046460238362000523565b91507f43616e6e6f742073657420616e206578636c757369766520726f6c6520746f2060008301527f30783000000000000000000000000000000000000000000000000000000000006020830152604082019050919050565b60006020820190508181036000830152620004d881620003ab565b9050919050565b60006020820190508181036000830152620004fa8162000413565b9050919050565b600060208201905081810360008301526200051c8162000455565b9050919050565b600082825260208201905092915050565b6000620005418262000548565b9050919050565b600073ffffffffffffffffffffffffffffffffffffffff82169050919050565b620005738162000534565b81146200057f57600080fd5b50565b61201480620005926000396000f3fe608060405234801561001057600080fd5b50600436106100b45760003560e01c806374d0a6761161007157806374d0a676146101755780637cdc1cb914610191578063ab3545e5146101c1578063bd1f4b52146101f1578063d8651ad01461020d578063d97c05be14610229576100b4565b80632e1a7d4d146100b95780633756a796146100d55780634c7a2603146101055780636852eea0146101215780636be7658b1461013d57806370a0cf2c14610159575b600080fd5b6100d360048036036100ce91908101906113f5565b610245565b005b6100ef60048036036100ea919081019061145a565b6102dc565b6040516100fc9190611cb8565b60405180910390f35b61011f600480360361011a9190810190611369565b6103d8565b005b61013b600480360361013691908101906112ac565b6104ac565b005b6101576004803603610152919081019061141e565b61057a565b005b610173600480360361016e9190810190611267565b610681565b005b61018f600480360361018a919081019061141e565b61074f565b005b6101ab60048036036101a6919081019061141e565b610856565b6040516101b89190611b48565b60405180910390f35b6101db60048036036101d691908101906113f5565b610951565b6040516101e89190611a7e565b60405180910390f35b61020b6004803603610206919081019061122b565b6109f4565b005b6102276004803603610222919081019061131a565b610ae1565b005b610243600480360361023e919081019061141e565b610bb2565b005b6001546102528133610856565b610291576040517f08c379a000000000000000000000000000000000000000000000000000000000815260040161028890611c38565b60405180910390fd5b3373ffffffffffffffffffffffffffffffffffffffff166108fc839081150290604051600060405180830381858888f193505050501580156102d7573d6000803e3d6000fd5b505050565b6102e4610fc1565b6001808111156102f057fe5b6102fa8133610856565b610339576040517f08c379a000000000000000000000000000000000000000000000000000000000815260040161033090611c38565b60405180910390fd5b610341610cba565b73ffffffffffffffffffffffffffffffffffffffff16630d434e7e3086866040518463ffffffff1660e01b815260040161037d93929190611ac2565b602060405180830381600087803b15801561039757600080fd5b505af11580156103ab573d6000803e3d6000fd5b505050506040513d601f19601f820116820180604052506103cf91908101906113cc565b91505092915050565b6001808111156103e457fe5b6103ee8133610856565b61042d576040517f08c379a000000000000000000000000000000000000000000000000000000000815260040161042490611c38565b60405180910390fd5b610435610cba565b73ffffffffffffffffffffffffffffffffffffffff16634c7a2603868686866040518563ffffffff1660e01b81526004016104739493929190611b9a565b600060405180830381600087803b15801561048d57600080fd5b505af11580156104a1573d6000803e3d6000fd5b505050505050505050565b6001808111156104b857fe5b6104c28133610856565b610501576040517f08c379a00000000000000000000000000000000000000000000000000000000081526004016104f890611c38565b60405180910390fd5b610509610cba565b73ffffffffffffffffffffffffffffffffffffffff16636852eea084846040518363ffffffff1660e01b8152600401610543929190611b24565b600060405180830381600087803b15801561055d57600080fd5b505af1158015610571573d6000803e3d6000fd5b50505050505050565b8160028081111561058757fe5b60008083815260200190815260200160002060010160009054906101000a900460ff1660028111156105b557fe5b146105f5576040517f08c379a00000000000000000000000000000000000000000000000000000000081526004016105ec90611c18565b60405180910390fd5b826106156000808381526020019081526020016000206000015433610856565b610654576040517f08c379a000000000000000000000000000000000000000000000000000000000815260040161064b90611c78565b60405180910390fd5b61067b83600080878152602001908152602001600020600301610d6a90919063ffffffff16565b50505050565b60018081111561068d57fe5b6106978133610856565b6106d6576040517f08c379a00000000000000000000000000000000000000000000000000000000081526004016106cd90611c38565b60405180910390fd5b6106de610cba565b73ffffffffffffffffffffffffffffffffffffffff166370a0cf2c84846040518363ffffffff1660e01b8152600401610718929190611b00565b600060405180830381600087803b15801561073257600080fd5b505af1158015610746573d6000803e3d6000fd5b50505050505050565b8160028081111561075c57fe5b60008083815260200190815260200160002060010160009054906101000a900460ff16600281111561078a57fe5b146107ca576040517f08c379a00000000000000000000000000000000000000000000000000000000081526004016107c190611c18565b60405180910390fd5b826107ea6000808381526020019081526020016000206000015433610856565b610829576040517f08c379a000000000000000000000000000000000000000000000000000000000815260040161082090611c78565b60405180910390fd5b61085083600080878152602001908152602001600020600301610dc890919063ffffffff16565b50505050565b60008060008085815260200190815260200160002090506001600281111561087a57fe5b8160010160009054906101000a900460ff16600281111561089757fe5b14156108bb576108b38382600201610e2690919063ffffffff16565b91505061094b565b6002808111156108c757fe5b8160010160009054906101000a900460ff1660028111156108e457fe5b1415610908576109008382600301610e8390919063ffffffff16565b91505061094b565b6000610949576040517f08c379a000000000000000000000000000000000000000000000000000000000815260040161094090611c98565b60405180910390fd5b505b92915050565b6000816001600281111561096157fe5b60008083815260200190815260200160002060010160009054906101000a900460ff16600281111561098f57fe5b146109cf576040517f08c379a00000000000000000000000000000000000000000000000000000000081526004016109c690611bf8565b60405180910390fd5b6109ec600080858152602001908152602001600020600201610edc565b915050919050565b600154610a018133610856565b610a40576040517f08c379a0000000000000000000000000000000000000000000000000000000008152600401610a3790611c38565b60405180910390fd5b60008390508073ffffffffffffffffffffffffffffffffffffffff1663a9059cbb33856040518363ffffffff1660e01b8152600401610a80929190611a99565b602060405180830381600087803b158015610a9a57600080fd5b505af1158015610aae573d6000803e3d6000fd5b505050506040513d601f19601f82011682018060405250610ad291908101906112f1565b610adb57600080fd5b50505050565b600180811115610aed57fe5b610af78133610856565b610b36576040517f08c379a0000000000000000000000000000000000000000000000000000000008152600401610b2d90611c38565b60405180910390fd5b610b3e610cba565b73ffffffffffffffffffffffffffffffffffffffff1663d8651ad08585856040518463ffffffff1660e01b8152600401610b7a93929190611b63565b600060405180830381600087803b158015610b9457600080fd5b505af1158015610ba8573d6000803e3d6000fd5b5050505050505050565b8160016002811115610bc057fe5b60008083815260200190815260200160002060010160009054906101000a900460ff166002811115610bee57fe5b14610c2e576040517f08c379a0000000000000000000000000000000000000000000000000000000008152600401610c2590611bf8565b60405180910390fd5b82610c4e6000808381526020019081526020016000206000015433610856565b610c8d576040517f08c379a0000000000000000000000000000000000000000000000000000000008152600401610c8490611c78565b60405180910390fd5b610cb483600080878152602001908152602001600020600201610f0a90919063ffffffff16565b50505050565b6000600260009054906101000a900473ffffffffffffffffffffffffffffffffffffffff1673ffffffffffffffffffffffffffffffffffffffff1663aafd5e406040518163ffffffff1660e01b8152600401610d1590611bdf565b60206040518083038186803b158015610d2d57600080fd5b505afa158015610d41573d6000803e3d6000fd5b505050506040513d601f19601f82011682018060405250610d659190810190611202565b905090565b60008260000160008373ffffffffffffffffffffffffffffffffffffffff1673ffffffffffffffffffffffffffffffffffffffff16815260200190815260200160002060006101000a81548160ff0219169083151502179055505050565b60018260000160008373ffffffffffffffffffffffffffffffffffffffff1673ffffffffffffffffffffffffffffffffffffffff16815260200190815260200160002060006101000a81548160ff0219169083151502179055505050565b60008173ffffffffffffffffffffffffffffffffffffffff168360000160009054906101000a900473ffffffffffffffffffffffffffffffffffffffff1673ffffffffffffffffffffffffffffffffffffffff1614905092915050565b60008260000160008373ffffffffffffffffffffffffffffffffffffffff1673ffffffffffffffffffffffffffffffffffffffff16815260200190815260200160002060009054906101000a900460ff16905092915050565b60008160000160009054906101000a900473ffffffffffffffffffffffffffffffffffffffff169050919050565b600073ffffffffffffffffffffffffffffffffffffffff168173ffffffffffffffffffffffffffffffffffffffff161415610f7a576040517f08c379a0000000000000000000000000000000000000000000000000000000008152600401610f7190611c58565b60405180910390fd5b808260000160006101000a81548173ffffffffffffffffffffffffffffffffffffffff021916908373ffffffffffffffffffffffffffffffffffffffff1602179055505050565b6040518060200160405280600081525090565b600081359050610fe381611f50565b92915050565b600081519050610ff881611f50565b92915050565b60008083601f84011261101057600080fd5b8235905067ffffffffffffffff81111561102957600080fd5b60208301915083602082028301111561104157600080fd5b9250929050565b600082601f83011261105957600080fd5b813561106c61106782611d00565b611cd3565b9150818183526020840193506020810190508385604084028201111561109157600080fd5b60005b838110156110c157816110a78882611154565b845260208401935060408301925050600181019050611094565b5050505092915050565b60008083601f8401126110dd57600080fd5b8235905067ffffffffffffffff8111156110f657600080fd5b60208301915083608082028301111561110e57600080fd5b9250929050565b60008151905061112481611f67565b92915050565b60008135905061113981611f7e565b92915050565b60008135905061114e81611f95565b92915050565b60006040828403121561116657600080fd5b6111706040611cd3565b905060006111808482850161112a565b6000830152506020611194848285016111d8565b60208301525092915050565b6000602082840312156111b257600080fd5b6111bc6020611cd3565b905060006111cc848285016111ed565b60008301525092915050565b6000813590506111e781611fac565b92915050565b6000815190506111fc81611fac565b92915050565b60006020828403121561121457600080fd5b600061122284828501610fe9565b91505092915050565b6000806040838503121561123e57600080fd5b600061124c85828601610fd4565b925050602061125d858286016111d8565b9150509250929050565b6000806020838503121561127a57600080fd5b600083013567ffffffffffffffff81111561129457600080fd5b6112a085828601610ffe565b92509250509250929050565b600080602083850312156112bf57600080fd5b600083013567ffffffffffffffff8111156112d957600080fd5b6112e5858286016110cb565b92509250509250929050565b60006020828403121561130357600080fd5b600061131184828501611115565b91505092915050565b60008060006060848603121561132f57600080fd5b600061133d8682870161112a565b935050602061134e868287016111d8565b925050604061135f8682870161112a565b9150509250925092565b6000806000806080858703121561137f57600080fd5b600061138d8782880161112a565b945050602061139e878288016111d8565b93505060406113af8782880161113f565b92505060606113c08782880161113f565b91505092959194509250565b6000602082840312156113de57600080fd5b60006113ec848285016111a0565b91505092915050565b60006020828403121561140757600080fd5b6000611415848285016111d8565b91505092915050565b6000806040838503121561143157600080fd5b600061143f858286016111d8565b925050602061145085828601610fd4565b9150509250929050565b6000806040838503121561146d57600080fd5b600061147b858286016111d8565b925050602083013567ffffffffffffffff81111561149857600080fd5b6114a485828601611048565b9150509250929050565b60006114ba838361191b565b905092915050565b60006114ce83836119a0565b60408301905092915050565b60006114e683836119cf565b60808301905092915050565b6114fb81611efa565b82525050565b61150a81611e9e565b82525050565b600061151c8385611d7e565b93508360208402850161152e84611d28565b8060005b878110156115725784840389526115498284611e58565b61155385826114ae565b945061155e83611d57565b925060208a01995050600181019050611532565b50829750879450505050509392505050565b600061158f82611d4c565b6115998185611d8f565b93506115a483611d32565b8060005b838110156115d55781516115bc88826114c2565b97506115c783611d64565b9250506001810190506115a8565b5085935050505092915050565b60006115ee8385611da0565b93506115f982611d42565b8060005b858110156116325761160f8284611e7c565b61161988826114da565b975061162483611d71565b9250506001810190506115fd565b5085925050509392505050565b61164881611eb0565b82525050565b61165781611ebc565b82525050565b61166681611ebc565b82525050565b60006116788385611db1565b9350611685838584611f30565b61168e83611f3f565b840190509392505050565b6116a281611ec6565b82525050565b6116b181611ec6565b82525050565b7f4f7261636c650000000000000000000000000000000000000000000000000000815250565b60006116ea602f83611dc2565b91507f4d7573742062652063616c6c6564206f6e20616e20696e697469616c697a656460008301527f204578636c757369766520726f6c6500000000000000000000000000000000006020830152604082019050919050565b6000611750602c83611dc2565b91507f4d7573742062652063616c6c6564206f6e20616e20696e697469616c697a656460008301527f2053686172656420726f6c6500000000000000000000000000000000000000006020830152604082019050919050565b60006117b6602283611dc2565b91507f53656e64657220646f6573206e6f7420686f6c6420726571756972656420726f60008301527f6c650000000000000000000000000000000000000000000000000000000000006020830152604082019050919050565b600061181c602383611dc2565b91507f43616e6e6f742073657420616e206578636c757369766520726f6c6520746f2060008301527f30783000000000000000000000000000000000000000000000000000000000006020830152604082019050919050565b6000611882602483611dc2565b91507f43616e206f6e6c792062652063616c6c6564206279206120726f6c65206d616e60008301527f61676572000000000000000000000000000000000000000000000000000000006020830152604082019050919050565b60006118e8600e83611dc2565b91507f496e76616c696420726f6c6549640000000000000000000000000000000000006000830152602082019050919050565b60006080830161192e6000840184611dd3565b61193b600086018261164e565b506119496020840184611e87565b6119566020860182611a60565b506119646040840184611dd3565b611971604086018261164e565b5061197f6060840184611dea565b858303606087015261199283828461166c565b925050508091505092915050565b6040820160008201516119b6600085018261164e565b5060208201516119c96020850182611a60565b50505050565b608082016119e06000830183611dd3565b6119ed600085018261164e565b506119fb6020830183611e87565b611a086020850182611a60565b50611a166040830183611e41565b611a236040850182611699565b50611a316060830183611e41565b611a3e6060850182611699565b50505050565b602082016000820151611a5a6000850182611a60565b50505050565b611a6981611ef0565b82525050565b611a7881611ef0565b82525050565b6000602082019050611a936000830184611501565b92915050565b6000604082019050611aae60008301856114f2565b611abb6020830184611a6f565b9392505050565b6000606082019050611ad76000830186611501565b611ae46020830185611a6f565b8181036040830152611af68184611584565b9050949350505050565b60006020820190508181036000830152611b1b818486611510565b90509392505050565b60006020820190508181036000830152611b3f8184866115e2565b90509392505050565b6000602082019050611b5d600083018461163f565b92915050565b6000606082019050611b78600083018661165d565b611b856020830185611a6f565b611b92604083018461165d565b949350505050565b6000608082019050611baf600083018761165d565b611bbc6020830186611a6f565b611bc960408301856116a8565b611bd660608301846116a8565b95945050505050565b6000602082019050611bf3600083016116b7565b919050565b60006020820190508181036000830152611c11816116dd565b9050919050565b60006020820190508181036000830152611c3181611743565b9050919050565b60006020820190508181036000830152611c51816117a9565b9050919050565b60006020820190508181036000830152611c718161180f565b9050919050565b60006020820190508181036000830152611c9181611875565b9050919050565b60006020820190508181036000830152611cb1816118db565b9050919050565b6000602082019050611ccd6000830184611a44565b92915050565b6000604051905081810181811067ffffffffffffffff82111715611cf657600080fd5b8060405250919050565b600067ffffffffffffffff821115611d1757600080fd5b602082029050602081019050919050565b6000819050919050565b6000819050602082019050919050565b6000819050919050565b600081519050919050565b6000602082019050919050565b6000602082019050919050565b6000608082019050919050565b600082825260208201905092915050565b600082825260208201905092915050565b600082825260208201905092915050565b600082825260208201905092915050565b600082825260208201905092915050565b6000611de2602084018461112a565b905092915050565b60008083356001602003843603038112611e0357600080fd5b83810192508235915060208301925067ffffffffffffffff821115611e2757600080fd5b600182023603841315611e3957600080fd5b509250929050565b6000611e50602084018461113f565b905092915050565b600082356001608003833603038112611e7057600080fd5b82810191505092915050565b600082905092915050565b6000611e9660208401846111d8565b905092915050565b6000611ea982611ed0565b9050919050565b60008115159050919050565b6000819050919050565b6000819050919050565b600073ffffffffffffffffffffffffffffffffffffffff82169050919050565b6000819050919050565b6000611f0582611f0c565b9050919050565b6000611f1782611f1e565b9050919050565b6000611f2982611ed0565b9050919050565b82818337600083830152505050565b6000601f19601f8301169050919050565b611f5981611e9e565b8114611f6457600080fd5b50565b611f7081611eb0565b8114611f7b57600080fd5b50565b611f8781611ebc565b8114611f9257600080fd5b50565b611f9e81611ec6565b8114611fa957600080fd5b50565b611fb581611ef0565b8114611fc057600080fd5b50565b611fcd8282610f0a565b505056fea365627a7a723158209b159d9fe836ebf3a34d90a70fb564090b06cbb1d1cf3198aa90a1772ea86afa6c6578706572696d656e74616cf564736f6c634300050d0040a365627a7a72315820f3cab48ac223739b3607c0be2c6f9360db326030821b998786ed06d3082933656c6578706572696d656e74616cf564736f6c634300050d0040",
  "source": "pragma solidity ^0.5.0;\n\npragma experimental ABIEncoderV2;\n\nimport \"./DesignatedVoting.sol\";\nimport \"./Finder.sol\";\nimport \"./Withdrawable.sol\";\n\n\n/**\n * @title Factory to allow looking up deployed DesignatedVoting instances\n * @dev Allows off-chain infrastructure, such as a dApp, to look up a hot wallet's deployed DesignatedVoting contract.\n */\ncontract DesignatedVotingFactory is Withdrawable {\n\n    enum Roles {\n        // Can withdraw any ETH or ERC20 sent accidentally to this contract.\n        Withdrawer\n    }\n\n    address private finder;\n    mapping(address => DesignatedVoting) public designatedVotingContracts;\n\n    constructor(address finderAddress) public {\n        finder = finderAddress;\n\n        createWithdrawRole(uint(Roles.Withdrawer), uint(Roles.Withdrawer), msg.sender);\n    }\n\n    /**\n     * @notice Deploys a new `DesignatedVoting` contract.\n     */\n    function newDesignatedVoting(address ownerAddress) external returns (DesignatedVoting designatedVoting) {\n        require(address(designatedVotingContracts[msg.sender]) == address(0), \"Duplicate hot key not permitted\");\n\n        designatedVoting = new DesignatedVoting(finder, ownerAddress, msg.sender);\n        designatedVotingContracts[msg.sender] = designatedVoting;\n    }\n\n    /**\n     * @notice Associates a `DesignatedVoting` instance with `msg.sender`.\n     */\n    function setDesignatedVoting(address designatedVotingAddress) external {\n        require(address(designatedVotingContracts[msg.sender]) == address(0), \"Duplicate hot key not permitted\");\n        designatedVotingContracts[msg.sender] = DesignatedVoting(designatedVotingAddress);\n    }\n}\n",
  "sourcePath": "/Users/ptare/protocol/core/contracts/DesignatedVotingFactory.sol",
  "compiler": {
    "name": "solc",
    "version": "0.5.13+commit.5b0b510c.Emscripten.clang"
  },
  "schemaVersion": "3.0.19",
  "updatedAt": "2019-12-20T16:30:04.020Z",
  "networkType": "ethereum",
  "devdoc": {
    "details": "Allows off-chain infrastructure, such as a dApp, to look up a hot wallet's deployed DesignatedVoting contract.",
    "methods": {
      "addMember(uint256,address)": {
        "details": "Reverts if `roleId` does not represent an initialized, shared role or if the caller is not a member of the managing role for `roleId`."
      },
      "getMember(uint256)": {
        "details": "Reverts if `roleId` does not represent an initialized, exclusive role."
      },
      "holdsRole(uint256,address)": {
        "details": "Reverts if roleId does not correspond to an initialized role."
      },
      "removeMember(uint256,address)": {
        "details": "Reverts if `roleId` does not represent an initialized, shared role or if the caller is not a member of the managing role for `roleId`."
      },
      "resetMember(uint256,address)": {
        "details": "Reverts if the caller is not a member of the managing role for `roleId` or if `roleId` is not an initialized, exclusive role."
      }
    },
    "title": "Factory to allow looking up deployed DesignatedVoting instances"
  },
  "userdoc": {
    "methods": {
      "addMember(uint256,address)": {
        "notice": "Adds `newMember` to the shared role, `roleId`."
      },
      "getMember(uint256)": {
        "notice": "Gets the current holder of the exclusive role, `roleId`."
      },
      "holdsRole(uint256,address)": {
        "notice": "Whether `memberToCheck` is a member of roleId."
      },
      "newDesignatedVoting(address)": {
        "notice": "Deploys a new `DesignatedVoting` contract."
      },
      "removeMember(uint256,address)": {
        "notice": "Removes `memberToRemove` from the shared role, `roleId`."
      },
      "resetMember(uint256,address)": {
        "notice": "Changes the exclusive role holder of `roleId` to `newMember`."
      },
      "setDesignatedVoting(address)": {
        "notice": "Associates a `DesignatedVoting` instance with `msg.sender`."
      },
      "withdraw(uint256)": {
        "notice": "Withdraws ETH from the contract."
      },
      "withdrawErc20(address,uint256)": {
        "notice": "Withdraws ERC20 tokens from the contract."
      }
    }
  }
}