{
  "contractName": "FinancialContractsAdmin",
  "abi": [
    {
      "anonymous": false,
      "inputs": [
        {
          "indexed": true,
          "internalType": "address",
          "name": "previousOwner",
          "type": "address"
        },
        {
          "indexed": true,
          "internalType": "address",
          "name": "newOwner",
          "type": "address"
        }
      ],
      "name": "OwnershipTransferred",
      "type": "event"
    },
    {
      "constant": true,
      "inputs": [],
      "name": "isOwner",
      "outputs": [
        {
          "internalType": "bool",
          "name": "",
          "type": "bool"
        }
      ],
      "payable": false,
      "stateMutability": "view",
      "type": "function"
    },
    {
      "constant": true,
      "inputs": [],
      "name": "owner",
      "outputs": [
        {
          "internalType": "address",
          "name": "",
          "type": "address"
        }
      ],
      "payable": false,
      "stateMutability": "view",
      "type": "function"
    },
    {
      "constant": false,
      "inputs": [],
      "name": "renounceOwnership",
      "outputs": [],
      "payable": false,
      "stateMutability": "nonpayable",
      "type": "function"
    },
    {
      "constant": false,
      "inputs": [
        {
          "internalType": "address",
          "name": "newOwner",
          "type": "address"
        }
      ],
      "name": "transferOwnership",
      "outputs": [],
      "payable": false,
      "stateMutability": "nonpayable",
      "type": "function"
    },
    {
      "constant": false,
      "inputs": [
        {
          "internalType": "address",
          "name": "financialContract",
          "type": "address"
        }
      ],
      "name": "callEmergencyShutdown",
      "outputs": [],
      "payable": false,
      "stateMutability": "nonpayable",
      "type": "function"
    },
    {
      "constant": false,
      "inputs": [
        {
          "internalType": "address",
          "name": "financialContract",
          "type": "address"
        }
      ],
      "name": "callRemargin",
      "outputs": [],
      "payable": false,
      "stateMutability": "nonpayable",
      "type": "function"
    }
  ],
  "bytecode": "0x60806040526100126100d260201b60201c565b6000806101000a81548173ffffffffffffffffffffffffffffffffffffffff021916908373ffffffffffffffffffffffffffffffffffffffff1602179055506000809054906101000a900473ffffffffffffffffffffffffffffffffffffffff1673ffffffffffffffffffffffffffffffffffffffff16600073ffffffffffffffffffffffffffffffffffffffff167f8be0079c531659141344cd1fd0a4f28419497f9722a3daafe3b4186f6b6457e060405160405180910390a36100da565b600033905090565b61075c806100e96000396000f3fe608060405234801561001057600080fd5b50600436106100625760003560e01c80630caf412114610067578063547e1c40146100ab578063715018a6146100ef5780638da5cb5b146100f95780638f32d59b14610143578063f2fde38b14610165575b600080fd5b6100a96004803603602081101561007d57600080fd5b81019080803573ffffffffffffffffffffffffffffffffffffffff1690602001909291905050506101a9565b005b6100ed600480360360208110156100c157600080fd5b81019080803573ffffffffffffffffffffffffffffffffffffffff16906020019092919050505061028c565b005b6100f761036f565b005b6101016104a8565b604051808273ffffffffffffffffffffffffffffffffffffffff1673ffffffffffffffffffffffffffffffffffffffff16815260200191505060405180910390f35b61014b6104d1565b604051808215151515815260200191505060405180910390f35b6101a76004803603602081101561017b57600080fd5b81019080803573ffffffffffffffffffffffffffffffffffffffff16906020019092919050505061052f565b005b6101b16104d1565b610223576040517f08c379a00000000000000000000000000000000000000000000000000000000081526004018080602001828103825260208152602001807f4f776e61626c653a2063616c6c6572206973206e6f7420746865206f776e657281525060200191505060405180910390fd5b60008190508073ffffffffffffffffffffffffffffffffffffffff16633403c2fc6040518163ffffffff1660e01b8152600401600060405180830381600087803b15801561027057600080fd5b505af1158015610284573d6000803e3d6000fd5b505050505050565b6102946104d1565b610306576040517f08c379a00000000000000000000000000000000000000000000000000000000081526004018080602001828103825260208152602001807f4f776e61626c653a2063616c6c6572206973206e6f7420746865206f776e657281525060200191505060405180910390fd5b60008190508073ffffffffffffffffffffffffffffffffffffffff1663bda02e776040518163ffffffff1660e01b8152600401600060405180830381600087803b15801561035357600080fd5b505af1158015610367573d6000803e3d6000fd5b505050505050565b6103776104d1565b6103e9576040517f08c379a00000000000000000000000000000000000000000000000000000000081526004018080602001828103825260208152602001807f4f776e61626c653a2063616c6c6572206973206e6f7420746865206f776e657281525060200191505060405180910390fd5b600073ffffffffffffffffffffffffffffffffffffffff166000809054906101000a900473ffffffffffffffffffffffffffffffffffffffff1673ffffffffffffffffffffffffffffffffffffffff167f8be0079c531659141344cd1fd0a4f28419497f9722a3daafe3b4186f6b6457e060405160405180910390a360008060006101000a81548173ffffffffffffffffffffffffffffffffffffffff021916908373ffffffffffffffffffffffffffffffffffffffff160217905550565b60008060009054906101000a900473ffffffffffffffffffffffffffffffffffffffff16905090565b60008060009054906101000a900473ffffffffffffffffffffffffffffffffffffffff1673ffffffffffffffffffffffffffffffffffffffff166105136105b5565b73ffffffffffffffffffffffffffffffffffffffff1614905090565b6105376104d1565b6105a9576040517f08c379a00000000000000000000000000000000000000000000000000000000081526004018080602001828103825260208152602001807f4f776e61626c653a2063616c6c6572206973206e6f7420746865206f776e657281525060200191505060405180910390fd5b6105b2816105bd565b50565b600033905090565b600073ffffffffffffffffffffffffffffffffffffffff168173ffffffffffffffffffffffffffffffffffffffff161415610643576040517f08c379a00000000000000000000000000000000000000000000000000000000081526004018080602001828103825260268152602001806107026026913960400191505060405180910390fd5b8073ffffffffffffffffffffffffffffffffffffffff166000809054906101000a900473ffffffffffffffffffffffffffffffffffffffff1673ffffffffffffffffffffffffffffffffffffffff167f8be0079c531659141344cd1fd0a4f28419497f9722a3daafe3b4186f6b6457e060405160405180910390a3806000806101000a81548173ffffffffffffffffffffffffffffffffffffffff021916908373ffffffffffffffffffffffffffffffffffffffff1602179055505056fe4f776e61626c653a206e6577206f776e657220697320746865207a65726f2061646472657373a265627a7a72315820ddf57b894cb3f39515fc73ba558b7a1b9b38bc1bcc3dcc8e91f69d854277557164736f6c634300050d0032",
  "source": "pragma solidity ^0.5.0;\n\nimport \"./AdministrateeInterface.sol\";\nimport \"@openzeppelin/contracts/ownership/Ownable.sol\";\n\n\n/**\n * @title Admin for financial contracts in the UMA system.\n * @dev Allows appropriately permissioned admin roles to interact with financial contracts.\n */\ncontract FinancialContractsAdmin is Ownable {\n\n    /**\n     * @dev Calls emergency shutdown on the provided financial contract.\n     */\n    function callEmergencyShutdown(address financialContract) external onlyOwner {\n        AdministrateeInterface administratee = AdministrateeInterface(financialContract);\n        administratee.emergencyShutdown();\n    }\n\n    /**\n     * @dev Calls remargin on the provided financial contract.\n     */\n    function callRemargin(address financialContract) external onlyOwner {\n        AdministrateeInterface administratee = AdministrateeInterface(financialContract);\n        administratee.remargin();\n    }\n}\n",
  "sourcePath": "/Users/ptare/protocol/core/contracts/FinancialContractsAdmin.sol",
  "compiler": {
    "name": "solc",
    "version": "0.5.13+commit.5b0b510c.Emscripten.clang"
  },
  "schemaVersion": "3.0.19",
  "updatedAt": "2019-12-20T16:30:00.762Z",
  "networkType": "ethereum",
  "devdoc": {
    "details": "Allows appropriately permissioned admin roles to interact with financial contracts.",
    "methods": {
      "callEmergencyShutdown(address)": {
        "details": "Calls emergency shutdown on the provided financial contract."
      },
      "callRemargin(address)": {
        "details": "Calls remargin on the provided financial contract."
      },
      "isOwner()": {
        "details": "Returns true if the caller is the current owner."
      },
      "owner()": {
        "details": "Returns the address of the current owner."
      },
      "renounceOwnership()": {
        "details": "Leaves the contract without owner. It will not be possible to call `onlyOwner` functions anymore. Can only be called by the current owner.     * NOTE: Renouncing ownership will leave the contract without an owner, thereby removing any functionality that is only available to the owner."
      },
      "transferOwnership(address)": {
        "details": "Transfers ownership of the contract to a new account (`newOwner`). Can only be called by the current owner."
      }
    },
    "title": "Admin for financial contracts in the UMA system."
  },
  "userdoc": {
    "methods": {}
  }
}