{
  "contractName": "Finder",
  "abi": [
    {
      "anonymous": false,
      "inputs": [
        {
          "indexed": true,
          "internalType": "bytes32",
          "name": "interfaceName",
          "type": "bytes32"
        },
        {
          "indexed": true,
          "internalType": "address",
          "name": "newImplementationAddress",
          "type": "address"
        }
      ],
      "name": "InterfaceImplementationChanged",
      "type": "event"
    },
    {
      "anonymous": false,
      "inputs": [
        {
          "indexed": true,
          "internalType": "address",
          "name": "previousOwner",
          "type": "address"
        },
        {
          "indexed": true,
          "internalType": "address",
          "name": "newOwner",
          "type": "address"
        }
      ],
      "name": "OwnershipTransferred",
      "type": "event"
    },
    {
      "constant": true,
      "inputs": [
        {
          "internalType": "bytes32",
          "name": "",
          "type": "bytes32"
        }
      ],
      "name": "interfacesImplemented",
      "outputs": [
        {
          "internalType": "address",
          "name": "",
          "type": "address"
        }
      ],
      "payable": false,
      "stateMutability": "view",
      "type": "function"
    },
    {
      "constant": true,
      "inputs": [],
      "name": "isOwner",
      "outputs": [
        {
          "internalType": "bool",
          "name": "",
          "type": "bool"
        }
      ],
      "payable": false,
      "stateMutability": "view",
      "type": "function"
    },
    {
      "constant": true,
      "inputs": [],
      "name": "owner",
      "outputs": [
        {
          "internalType": "address",
          "name": "",
          "type": "address"
        }
      ],
      "payable": false,
      "stateMutability": "view",
      "type": "function"
    },
    {
      "constant": false,
      "inputs": [],
      "name": "renounceOwnership",
      "outputs": [],
      "payable": false,
      "stateMutability": "nonpayable",
      "type": "function"
    },
    {
      "constant": false,
      "inputs": [
        {
          "internalType": "address",
          "name": "newOwner",
          "type": "address"
        }
      ],
      "name": "transferOwnership",
      "outputs": [],
      "payable": false,
      "stateMutability": "nonpayable",
      "type": "function"
    },
    {
      "constant": false,
      "inputs": [
        {
          "internalType": "bytes32",
          "name": "interfaceName",
          "type": "bytes32"
        },
        {
          "internalType": "address",
          "name": "implementationAddress",
          "type": "address"
        }
      ],
      "name": "changeImplementationAddress",
      "outputs": [],
      "payable": false,
      "stateMutability": "nonpayable",
      "type": "function"
    },
    {
      "constant": true,
      "inputs": [
        {
          "internalType": "bytes32",
          "name": "interfaceName",
          "type": "bytes32"
        }
      ],
      "name": "getImplementationAddress",
      "outputs": [
        {
          "internalType": "address",
          "name": "implementationAddress",
          "type": "address"
        }
      ],
      "payable": false,
      "stateMutability": "view",
      "type": "function"
    }
  ],
  "bytecode": "0x60806040526100126100d260201b60201c565b6000806101000a81548173ffffffffffffffffffffffffffffffffffffffff021916908373ffffffffffffffffffffffffffffffffffffffff1602179055506000809054906101000a900473ffffffffffffffffffffffffffffffffffffffff1673ffffffffffffffffffffffffffffffffffffffff16600073ffffffffffffffffffffffffffffffffffffffff167f8be0079c531659141344cd1fd0a4f28419497f9722a3daafe3b4186f6b6457e060405160405180910390a36100da565b600033905090565b610882806100e96000396000f3fe608060405234801561001057600080fd5b506004361061007d5760003560e01c80638f32d59b1161005b5780638f32d59b14610124578063aafd5e4014610146578063cc48f4db146101b4578063f2fde38b146102225761007d565b806331f9665e14610082578063715018a6146100d05780638da5cb5b146100da575b600080fd5b6100ce6004803603604081101561009857600080fd5b8101908080359060200190929190803573ffffffffffffffffffffffffffffffffffffffff169060200190929190505050610266565b005b6100d861037a565b005b6100e26104b3565b604051808273ffffffffffffffffffffffffffffffffffffffff1673ffffffffffffffffffffffffffffffffffffffff16815260200191505060405180910390f35b61012c6104dc565b604051808215151515815260200191505060405180910390f35b6101726004803603602081101561015c57600080fd5b810190808035906020019092919050505061053a565b604051808273ffffffffffffffffffffffffffffffffffffffff1673ffffffffffffffffffffffffffffffffffffffff16815260200191505060405180910390f35b6101e0600480360360208110156101ca57600080fd5b81019080803590602001909291905050506105fd565b604051808273ffffffffffffffffffffffffffffffffffffffff1673ffffffffffffffffffffffffffffffffffffffff16815260200191505060405180910390f35b6102646004803603602081101561023857600080fd5b81019080803573ffffffffffffffffffffffffffffffffffffffff169060200190929190505050610630565b005b61026e6104dc565b6102e0576040517f08c379a00000000000000000000000000000000000000000000000000000000081526004018080602001828103825260208152602001807f4f776e61626c653a2063616c6c6572206973206e6f7420746865206f776e657281525060200191505060405180910390fd5b806001600084815260200190815260200160002060006101000a81548173ffffffffffffffffffffffffffffffffffffffff021916908373ffffffffffffffffffffffffffffffffffffffff1602179055508073ffffffffffffffffffffffffffffffffffffffff16827fb29aa13e555039289e0513962835b00fcc6e4a265ae8f99e68e5b90d5406fe4860405160405180910390a35050565b6103826104dc565b6103f4576040517f08c379a00000000000000000000000000000000000000000000000000000000081526004018080602001828103825260208152602001807f4f776e61626c653a2063616c6c6572206973206e6f7420746865206f776e657281525060200191505060405180910390fd5b600073ffffffffffffffffffffffffffffffffffffffff166000809054906101000a900473ffffffffffffffffffffffffffffffffffffffff1673ffffffffffffffffffffffffffffffffffffffff167f8be0079c531659141344cd1fd0a4f28419497f9722a3daafe3b4186f6b6457e060405160405180910390a360008060006101000a81548173ffffffffffffffffffffffffffffffffffffffff021916908373ffffffffffffffffffffffffffffffffffffffff160217905550565b60008060009054906101000a900473ffffffffffffffffffffffffffffffffffffffff16905090565b60008060009054906101000a900473ffffffffffffffffffffffffffffffffffffffff1673ffffffffffffffffffffffffffffffffffffffff1661051e6106b6565b73ffffffffffffffffffffffffffffffffffffffff1614905090565b60006001600083815260200190815260200160002060009054906101000a900473ffffffffffffffffffffffffffffffffffffffff169050600073ffffffffffffffffffffffffffffffffffffffff168173ffffffffffffffffffffffffffffffffffffffff1614156105f8576040517f08c379a00000000000000000000000000000000000000000000000000000000081526004018080602001828103825260258152602001806108296025913960400191505060405180910390fd5b919050565b60016020528060005260406000206000915054906101000a900473ffffffffffffffffffffffffffffffffffffffff1681565b6106386104dc565b6106aa576040517f08c379a00000000000000000000000000000000000000000000000000000000081526004018080602001828103825260208152602001807f4f776e61626c653a2063616c6c6572206973206e6f7420746865206f776e657281525060200191505060405180910390fd5b6106b3816106be565b50565b600033905090565b600073ffffffffffffffffffffffffffffffffffffffff168173ffffffffffffffffffffffffffffffffffffffff161415610744576040517f08c379a00000000000000000000000000000000000000000000000000000000081526004018080602001828103825260268152602001806108036026913960400191505060405180910390fd5b8073ffffffffffffffffffffffffffffffffffffffff166000809054906101000a900473ffffffffffffffffffffffffffffffffffffffff1673ffffffffffffffffffffffffffffffffffffffff167f8be0079c531659141344cd1fd0a4f28419497f9722a3daafe3b4186f6b6457e060405160405180910390a3806000806101000a81548173ffffffffffffffffffffffffffffffffffffffff021916908373ffffffffffffffffffffffffffffffffffffffff1602179055505056fe4f776e61626c653a206e6577206f776e657220697320746865207a65726f20616464726573734e6f20696d706c656d656e746174696f6e20666f7220696e7465726661636520666f756e64a265627a7a723158207e185b2a979e09b24b3dcf48816f9674a85cb2721d4529bcdc6270b9ac02e6b464736f6c634300050d0032",
  "source": "pragma solidity ^0.5.0;\n\nimport \"@openzeppelin/contracts/ownership/Ownable.sol\";\n\n\n/**\n * @title Provides addresses of the live contracts implementing certain interfaces. \n * @dev Examples are the Oracle or Store interfaces.\n */\ncontract Finder is Ownable {\n\n    mapping(bytes32 => address) public interfacesImplemented;\n\n    event InterfaceImplementationChanged(bytes32 indexed interfaceName, address indexed newImplementationAddress);\n\n    /**\n     * @dev Updates the address of the contract that implements `interfaceName`.\n     */\n    function changeImplementationAddress(bytes32 interfaceName, address implementationAddress)\n        external\n        onlyOwner\n    {\n        interfacesImplemented[interfaceName] = implementationAddress;\n        emit InterfaceImplementationChanged(interfaceName, implementationAddress);\n    }\n    \n    /**\n     * @dev Gets the address of the contract that implements the given `interfaceName`.\n     */\n    function getImplementationAddress(bytes32 interfaceName)\n        external\n        view\n        returns (address implementationAddress)\n    {\n        implementationAddress = interfacesImplemented[interfaceName];\n        require(implementationAddress != address(0x0), \"No implementation for interface found\");\n    }\n}\n",
  "sourcePath": "/Users/ptare/protocol/core/contracts/Finder.sol",
  "compiler": {
    "name": "solc",
    "version": "0.5.13+commit.5b0b510c.Emscripten.clang"
  },
  "schemaVersion": "3.0.19",
  "updatedAt": "2019-12-20T16:30:08.546Z",
  "networkType": "ethereum",
  "devdoc": {
    "details": "Examples are the Oracle or Store interfaces.",
    "methods": {
      "changeImplementationAddress(bytes32,address)": {
        "details": "Updates the address of the contract that implements `interfaceName`."
      },
      "getImplementationAddress(bytes32)": {
        "details": "Gets the address of the contract that implements the given `interfaceName`."
      },
      "isOwner()": {
        "details": "Returns true if the caller is the current owner."
      },
      "owner()": {
        "details": "Returns the address of the current owner."
      },
      "renounceOwnership()": {
        "details": "Leaves the contract without owner. It will not be possible to call `onlyOwner` functions anymore. Can only be called by the current owner.     * NOTE: Renouncing ownership will leave the contract without an owner, thereby removing any functionality that is only available to the owner."
      },
      "transferOwnership(address)": {
        "details": "Transfers ownership of the contract to a new account (`newOwner`). Can only be called by the current owner."
      }
    },
    "title": "Provides addresses of the live contracts implementing certain interfaces. "
  },
  "userdoc": {
    "methods": {}
  }
}