{
  "contractName": "Governor",
  "abi": [
    {
      "inputs": [
        {
          "internalType": "address",
          "name": "_finderAddress",
          "type": "address"
        },
        {
          "internalType": "bool",
          "name": "_isTest",
          "type": "bool"
        }
      ],
      "payable": false,
      "stateMutability": "nonpayable",
      "type": "constructor"
    },
    {
      "anonymous": false,
      "inputs": [
        {
          "indexed": true,
          "internalType": "uint256",
          "name": "id",
          "type": "uint256"
        },
        {
          "components": [
            {
              "internalType": "address",
              "name": "to",
              "type": "address"
            },
            {
              "internalType": "uint256",
              "name": "value",
              "type": "uint256"
            },
            {
              "internalType": "bytes",
              "name": "data",
              "type": "bytes"
            }
          ],
          "indexed": false,
          "internalType": "struct Governor.Transaction[]",
          "name": "transactions",
          "type": "tuple[]"
        }
      ],
      "name": "NewProposal",
      "type": "event"
    },
    {
      "anonymous": false,
      "inputs": [
        {
          "indexed": true,
          "internalType": "uint256",
          "name": "id",
          "type": "uint256"
        },
        {
          "indexed": false,
          "internalType": "uint256",
          "name": "transactionIndex",
          "type": "uint256"
        }
      ],
      "name": "ProposalExecuted",
      "type": "event"
    },
    {
      "constant": false,
      "inputs": [
        {
          "internalType": "uint256",
          "name": "roleId",
          "type": "uint256"
        },
        {
          "internalType": "address",
          "name": "newMember",
          "type": "address"
        }
      ],
      "name": "addMember",
      "outputs": [],
      "payable": false,
      "stateMutability": "nonpayable",
      "type": "function"
    },
    {
      "constant": true,
      "inputs": [],
      "name": "getCurrentTime",
      "outputs": [
        {
          "internalType": "uint256",
          "name": "",
          "type": "uint256"
        }
      ],
      "payable": false,
      "stateMutability": "view",
      "type": "function"
    },
    {
      "constant": true,
      "inputs": [
        {
          "internalType": "uint256",
          "name": "roleId",
          "type": "uint256"
        }
      ],
      "name": "getMember",
      "outputs": [
        {
          "internalType": "address",
          "name": "",
          "type": "address"
        }
      ],
      "payable": false,
      "stateMutability": "view",
      "type": "function"
    },
    {
      "constant": true,
      "inputs": [
        {
          "internalType": "uint256",
          "name": "roleId",
          "type": "uint256"
        },
        {
          "internalType": "address",
          "name": "memberToCheck",
          "type": "address"
        }
      ],
      "name": "holdsRole",
      "outputs": [
        {
          "internalType": "bool",
          "name": "",
          "type": "bool"
        }
      ],
      "payable": false,
      "stateMutability": "view",
      "type": "function"
    },
    {
      "constant": true,
      "inputs": [],
      "name": "isTest",
      "outputs": [
        {
          "internalType": "bool",
          "name": "",
          "type": "bool"
        }
      ],
      "payable": false,
      "stateMutability": "view",
      "type": "function"
    },
    {
      "constant": true,
      "inputs": [
        {
          "internalType": "uint256",
          "name": "",
          "type": "uint256"
        }
      ],
      "name": "proposals",
      "outputs": [
        {
          "internalType": "uint256",
          "name": "requestTime",
          "type": "uint256"
        }
      ],
      "payable": false,
      "stateMutability": "view",
      "type": "function"
    },
    {
      "constant": false,
      "inputs": [
        {
          "internalType": "uint256",
          "name": "roleId",
          "type": "uint256"
        },
        {
          "internalType": "address",
          "name": "memberToRemove",
          "type": "address"
        }
      ],
      "name": "removeMember",
      "outputs": [],
      "payable": false,
      "stateMutability": "nonpayable",
      "type": "function"
    },
    {
      "constant": false,
      "inputs": [
        {
          "internalType": "uint256",
          "name": "roleId",
          "type": "uint256"
        },
        {
          "internalType": "address",
          "name": "newMember",
          "type": "address"
        }
      ],
      "name": "resetMember",
      "outputs": [],
      "payable": false,
      "stateMutability": "nonpayable",
      "type": "function"
    },
    {
      "constant": false,
      "inputs": [
        {
          "internalType": "uint256",
          "name": "_time",
          "type": "uint256"
        }
      ],
      "name": "setCurrentTime",
      "outputs": [],
      "payable": false,
      "stateMutability": "nonpayable",
      "type": "function"
    },
    {
      "constant": false,
      "inputs": [
        {
          "internalType": "uint256",
          "name": "id",
          "type": "uint256"
        },
        {
          "internalType": "uint256",
          "name": "transactionIndex",
          "type": "uint256"
        }
      ],
      "name": "executeProposal",
      "outputs": [],
      "payable": false,
      "stateMutability": "nonpayable",
      "type": "function"
    },
    {
      "constant": true,
      "inputs": [],
      "name": "numProposals",
      "outputs": [
        {
          "internalType": "uint256",
          "name": "",
          "type": "uint256"
        }
      ],
      "payable": false,
      "stateMutability": "view",
      "type": "function"
    },
    {
      "constant": true,
      "inputs": [
        {
          "internalType": "uint256",
          "name": "id",
          "type": "uint256"
        }
      ],
      "name": "getProposal",
      "outputs": [
        {
          "components": [
            {
              "components": [
                {
                  "internalType": "address",
                  "name": "to",
                  "type": "address"
                },
                {
                  "internalType": "uint256",
                  "name": "value",
                  "type": "uint256"
                },
                {
                  "internalType": "bytes",
                  "name": "data",
                  "type": "bytes"
                }
              ],
              "internalType": "struct Governor.Transaction[]",
              "name": "transactions",
              "type": "tuple[]"
            },
            {
              "internalType": "uint256",
              "name": "requestTime",
              "type": "uint256"
            }
          ],
          "internalType": "struct Governor.Proposal",
          "name": "proposal",
          "type": "tuple"
        }
      ],
      "payable": false,
      "stateMutability": "view",
      "type": "function"
    },
    {
      "constant": false,
      "inputs": [
        {
          "components": [
            {
              "internalType": "address",
              "name": "to",
              "type": "address"
            },
            {
              "internalType": "uint256",
              "name": "value",
              "type": "uint256"
            },
            {
              "internalType": "bytes",
              "name": "data",
              "type": "bytes"
            }
          ],
          "internalType": "struct Governor.Transaction[]",
          "name": "transactions",
          "type": "tuple[]"
        }
      ],
      "name": "propose",
      "outputs": [],
      "payable": false,
      "stateMutability": "nonpayable",
      "type": "function"
    }
  ],
  "bytecode": "0x60806040523480156200001157600080fd5b5060405162002dd238038062002dd283398181016040526200003791908101906200036e565b8080600160006101000a81548160ff02191690831515021790555080156200006157426002819055505b5081600360006101000a81548173ffffffffffffffffffffffffffffffffffffffff021916908373ffffffffffffffffffffffffffffffffffffffff160217905550620000d060006001811115620000b557fe5b60006001811115620000c357fe5b336200010460201b60201c565b620000fc600180811115620000e157fe5b60006001811115620000ef57fe5b336200010460201b60201c565b5050620005ac565b82600060028111156200011357fe5b60008083815260200190815260200160002060010160009054906101000a900460ff1660028111156200014257fe5b1462000185576040517f08c379a00000000000000000000000000000000000000000000000000000000081526004016200017c90620004e3565b60405180910390fd5b6000806000868152602001908152602001600020905060018160010160006101000a81548160ff02191690836002811115620001bd57fe5b0217905550838160000181905550620001e883826002016200027060201b620027c51790919060201c565b60006002811115620001f657fe5b60008086815260200190815260200160002060010160009054906101000a900460ff1660028111156200022557fe5b141562000269576040517f08c379a00000000000000000000000000000000000000000000000000000000081526004016200026090620004c1565b60405180910390fd5b5050505050565b6200028282826200028660201b60201c565b5050565b600073ffffffffffffffffffffffffffffffffffffffff168173ffffffffffffffffffffffffffffffffffffffff161415620002f9576040517f08c379a0000000000000000000000000000000000000000000000000000000008152600401620002f09062000505565b60405180910390fd5b808260000160006101000a81548173ffffffffffffffffffffffffffffffffffffffff021916908373ffffffffffffffffffffffffffffffffffffffff1602179055505050565b600081519050620003518162000578565b92915050565b600081519050620003688162000592565b92915050565b600080604083850312156200038257600080fd5b6000620003928582860162000340565b9250506020620003a58582860162000357565b9150509250929050565b6000620003be603c8362000527565b91507f417474656d7074656420746f2075736520616e20696e76616c696420726f6c6560008301527f20746f206d616e61676520616e206578636c757369766520726f6c65000000006020830152604082019050919050565b600062000426601e8362000527565b91507f43616e6e6f74207573652061207072652d6578697374696e6720726f6c6500006000830152602082019050919050565b60006200046860238362000527565b91507f43616e6e6f742073657420616e206578636c757369766520726f6c6520746f2060008301527f30783000000000000000000000000000000000000000000000000000000000006020830152604082019050919050565b60006020820190508181036000830152620004dc81620003af565b9050919050565b60006020820190508181036000830152620004fe8162000417565b9050919050565b60006020820190508181036000830152620005208162000459565b9050919050565b600082825260208201905092915050565b6000620005458262000558565b9050919050565b60008115159050919050565b600073ffffffffffffffffffffffffffffffffffffffff82169050919050565b620005838162000538565b81146200058f57600080fd5b50565b6200059d816200054c565b8114620005a957600080fd5b50565b61281680620005bc6000396000f3fe608060405234801561001057600080fd5b50600436106100cf5760003560e01c806374d0a6761161008c578063ab3545e511610066578063ab3545e5146101fe578063c62fdef71461022e578063c7f758a81461024a578063d97c05be1461027a576100cf565b806374d0a676146101945780637cdc1cb9146101b05780639381a345146101e0576100cf565b8063013cf08b146100d45780631ab767121461010457806322f8e5661461012057806329cb924d1461013c578063400e39491461015a5780636be7658b14610178575b600080fd5b6100ee60048036036100e99190810190611b15565b610296565b6040516100fb919061258b565b60405180910390f35b61011e60048036036101199190810190611ba3565b6102c1565b005b61013a60048036036101359190810190611b15565b6106f4565b005b610144610717565b604051610151919061258b565b60405180910390f35b61016261073f565b60405161016f919061258b565b60405180910390f35b610192600480360361018d9190810190611b67565b61074c565b005b6101ae60048036036101a99190810190611b67565b610853565b005b6101ca60048036036101c59190810190611b67565b61095a565b6040516101d7919061232f565b60405180910390f35b6101e8610a55565b6040516101f5919061232f565b60405180910390f35b61021860048036036102139190810190611b15565b610a68565b60405161022591906122f2565b60405180910390f35b61024860048036036102439190810190611aab565b610b0b565b005b610264600480360361025f9190810190611b15565b610f1e565b6040516102719190612569565b60405180910390f35b610294600480360361028f9190810190611b67565b6110be565b005b600481815481106102a357fe5b90600052602060002090600202016000915090508060010154905081565b6000600483815481106102d057fe5b9060005260206000209060020201905060006102ea6111c6565b73ffffffffffffffffffffffffffffffffffffffff1663c9280f0661030e86611276565b84600101546040518363ffffffff1660e01b8152600401610330929190612365565b60206040518083038186803b15801561034857600080fd5b505afa15801561035c573d6000803e3d6000fd5b505050506040513d601f19601f820116820180604052506103809190810190611aec565b9050600082600001848154811061039357fe5b9060005260206000209060030201905060008414806104315750600073ffffffffffffffffffffffffffffffffffffffff16836000016103dd6001876112b890919063ffffffff16565b815481106103e757fe5b906000526020600020906003020160000160009054906101000a900473ffffffffffffffffffffffffffffffffffffffff1673ffffffffffffffffffffffffffffffffffffffff16145b610470576040517f08c379a0000000000000000000000000000000000000000000000000000000008152600401610467906124a9565b60405180910390fd5b600073ffffffffffffffffffffffffffffffffffffffff168160000160009054906101000a900473ffffffffffffffffffffffffffffffffffffffff1673ffffffffffffffffffffffffffffffffffffffff161415610504576040517f08c379a00000000000000000000000000000000000000000000000000000000081526004016104fb90612509565b60405180910390fd5b6000821415610548576040517f08c379a000000000000000000000000000000000000000000000000000000000815260040161053f90612469565b60405180910390fd5b6106178160000160009054906101000a900473ffffffffffffffffffffffffffffffffffffffff168260010154836002018054600181600116156101000203166002900480601f01602080910402602001604051908101604052809291908181526020018280546001816001161561010002031660029004801561060d5780601f106105e25761010080835404028352916020019161060d565b820191906000526020600020905b8154815290600101906020018083116105f057829003601f168201915b5050505050611302565b610656576040517f08c379a000000000000000000000000000000000000000000000000000000000815260040161064d90612409565b60405180910390fd5b82600001848154811061066557fe5b9060005260206000209060030201600080820160006101000a81549073ffffffffffffffffffffffffffffffffffffffff021916905560018201600090556002820160006106b391906116b5565b5050847ff758fc91e01b00ea6b4a6138756f7f28e021f9bf21db6dbf8c36c88eb737257a856040516106e5919061258b565b60405180910390a25050505050565b600160009054906101000a900460ff1661070d57600080fd5b8060028190555050565b6000600160009054906101000a900460ff161561073857600254905061073c565b4290505b90565b6000600480549050905090565b8160028081111561075957fe5b60008083815260200190815260200160002060010160009054906101000a900460ff16600281111561078757fe5b146107c7576040517f08c379a00000000000000000000000000000000000000000000000000000000081526004016107be90612429565b60405180910390fd5b826107e7600080838152602001908152602001600020600001543361095a565b610826576040517f08c379a000000000000000000000000000000000000000000000000000000000815260040161081d90612529565b60405180910390fd5b61084d8360008087815260200190815260200160002060030161131e90919063ffffffff16565b50505050565b8160028081111561086057fe5b60008083815260200190815260200160002060010160009054906101000a900460ff16600281111561088e57fe5b146108ce576040517f08c379a00000000000000000000000000000000000000000000000000000000081526004016108c590612429565b60405180910390fd5b826108ee600080838152602001908152602001600020600001543361095a565b61092d576040517f08c379a000000000000000000000000000000000000000000000000000000000815260040161092490612529565b60405180910390fd5b6109548360008087815260200190815260200160002060030161137c90919063ffffffff16565b50505050565b60008060008085815260200190815260200160002090506001600281111561097e57fe5b8160010160009054906101000a900460ff16600281111561099b57fe5b14156109bf576109b783826002016113da90919063ffffffff16565b915050610a4f565b6002808111156109cb57fe5b8160010160009054906101000a900460ff1660028111156109e857fe5b1415610a0c57610a04838260030161143790919063ffffffff16565b915050610a4f565b6000610a4d576040517f08c379a0000000000000000000000000000000000000000000000000000000008152600401610a4490612549565b60405180910390fd5b505b92915050565b600160009054906101000a900460ff1681565b60008160016002811115610a7857fe5b60008083815260200190815260200160002060010160009054906101000a900460ff166002811115610aa657fe5b14610ae6576040517f08c379a0000000000000000000000000000000000000000000000000000000008152600401610add906123e9565b60405180910390fd5b610b03600080858152602001908152602001600020600201611490565b915050919050565b600180811115610b1757fe5b610b21813361095a565b610b60576040517f08c379a0000000000000000000000000000000000000000000000000000000008152600401610b5790612449565b60405180910390fd5b600060048054905090506000610b74610717565b9050610b8f60016004805490506114be90919063ffffffff16565b600481610b9c91906116fd565b50600060048381548110610bac57fe5b9060005260206000209060020201905081816001018190555084518160000181610bd6919061172f565b5060008090505b8551811015610d1c57600073ffffffffffffffffffffffffffffffffffffffff16868281518110610c0a57fe5b60200260200101516000015173ffffffffffffffffffffffffffffffffffffffff161415610c6d576040517f08c379a0000000000000000000000000000000000000000000000000000000008152600401610c64906124e9565b60405180910390fd5b858181518110610c7957fe5b6020026020010151826000018281548110610c9057fe5b906000526020600020906003020160008201518160000160006101000a81548173ffffffffffffffffffffffffffffffffffffffff021916908373ffffffffffffffffffffffffffffffffffffffff160217905550602082015181600101556040820151816002019080519060200190610d0b929190611761565b509050508080600101915050610bdd565b506000610d2884611276565b90506000610d346111c6565b90508073ffffffffffffffffffffffffffffffffffffffff166310a7e201836040518263ffffffff1660e01b8152600401610d6f919061234a565b600060405180830381600087803b158015610d8957600080fd5b505af1158015610d9d573d6000803e3d6000fd5b505050506000198173ffffffffffffffffffffffffffffffffffffffff166368ad8ae384876040518363ffffffff1660e01b8152600401610ddf929190612365565b602060405180830381600087803b158015610df957600080fd5b505af1158015610e0d573d6000803e3d6000fd5b505050506040513d601f19601f82011682018060405250610e319190810190611b3e565b1415610e72576040517f08c379a0000000000000000000000000000000000000000000000000000000008152600401610e6990612489565b60405180910390fd5b8073ffffffffffffffffffffffffffffffffffffffff16638e0d3ca7836040518263ffffffff1660e01b8152600401610eab919061234a565b600060405180830381600087803b158015610ec557600080fd5b505af1158015610ed9573d6000803e3d6000fd5b50505050847f082d2a29e61e3d0508e5617570bed4c7c58ae73d4719b31052d8638812bc4c0c88604051610f0d919061230d565b60405180910390a250505050505050565b610f266117e1565b60048281548110610f3357fe5b906000526020600020906002020160405180604001604052908160008201805480602002602001604051908101604052809291908181526020016000905b828210156110a557838290600052602060002090600302016040518060600160405290816000820160009054906101000a900473ffffffffffffffffffffffffffffffffffffffff1673ffffffffffffffffffffffffffffffffffffffff1673ffffffffffffffffffffffffffffffffffffffff16815260200160018201548152602001600282018054600181600116156101000203166002900480601f01602080910402602001604051908101604052809291908181526020018280546001816001161561010002031660029004801561108d5780601f106110625761010080835404028352916020019161108d565b820191906000526020600020905b81548152906001019060200180831161107057829003601f168201915b50505050508152505081526020019060010190610f71565b5050505081526020016001820154815250509050919050565b81600160028111156110cc57fe5b60008083815260200190815260200160002060010160009054906101000a900460ff1660028111156110fa57fe5b1461113a576040517f08c379a0000000000000000000000000000000000000000000000000000000008152600401611131906123e9565b60405180910390fd5b8261115a600080838152602001908152602001600020600001543361095a565b611199576040517f08c379a000000000000000000000000000000000000000000000000000000000815260040161119090612529565b60405180910390fd5b6111c08360008087815260200190815260200160002060020161151390919063ffffffff16565b50505050565b6000600360009054906101000a900473ffffffffffffffffffffffffffffffffffffffff1673ffffffffffffffffffffffffffffffffffffffff1663aafd5e406040518163ffffffff1660e01b8152600401611221906123b0565b60206040518083038186803b15801561123957600080fd5b505afa15801561124d573d6000803e3d6000fd5b505050506040513d601f19601f820116820180604052506112719190810190611a82565b905090565b600080611282836115ca565b90506112b0817f41646d696e2000000000000000000000000000000000000000000000000000006006611641565b915050919050565b60006112fa83836040518060400160405280601e81526020017f536166654d6174683a207375627472616374696f6e206f766572666c6f77000081525061165a565b905092915050565b60006020820182516000808284888a5af1925050509392505050565b60008260000160008373ffffffffffffffffffffffffffffffffffffffff1673ffffffffffffffffffffffffffffffffffffffff16815260200190815260200160002060006101000a81548160ff0219169083151502179055505050565b60018260000160008373ffffffffffffffffffffffffffffffffffffffff1673ffffffffffffffffffffffffffffffffffffffff16815260200190815260200160002060006101000a81548160ff0219169083151502179055505050565b60008173ffffffffffffffffffffffffffffffffffffffff168360000160009054906101000a900473ffffffffffffffffffffffffffffffffffffffff1673ffffffffffffffffffffffffffffffffffffffff1614905092915050565b60008260000160008373ffffffffffffffffffffffffffffffffffffffff1673ffffffffffffffffffffffffffffffffffffffff16815260200190815260200160002060009054906101000a900460ff16905092915050565b60008160000160009054906101000a900473ffffffffffffffffffffffffffffffffffffffff169050919050565b600080828401905083811015611509576040517f08c379a0000000000000000000000000000000000000000000000000000000008152600401611500906123c9565b60405180910390fd5b8091505092915050565b600073ffffffffffffffffffffffffffffffffffffffff168173ffffffffffffffffffffffffffffffffffffffff161415611583576040517f08c379a000000000000000000000000000000000000000000000000000000000815260040161157a906124c9565b60405180910390fd5b808260000160006101000a81548173ffffffffffffffffffffffffffffffffffffffff021916908373ffffffffffffffffffffffffffffffffffffffff1602179055505050565b6000808214156115fc577f30000000000000000000000000000000000000000000000000000000000000009050611639565b5b600082111561163857600881901c905060f86030600a848161161b57fe5b060160001b901b81179050600a828161163057fe5b0491506115fd565b5b809050919050565b6000806008830285901c90508381179150509392505050565b60008383111582906116a2576040517f08c379a0000000000000000000000000000000000000000000000000000000008152600401611699919061238e565b60405180910390fd5b5060008385039050809150509392505050565b50805460018160011615610100020316600290046000825580601f106116db57506116fa565b601f0160209004906000526020600020908101906116f991906117fb565b5b50565b81548183558181111561172a576002028160020283600052602060002091820191016117299190611820565b5b505050565b81548183558181111561175c5760030281600302836000526020600020918201910161175b9190611857565b5b505050565b828054600181600116156101000203166002900490600052602060002090601f016020900481019282601f106117a257805160ff19168380011785556117d0565b828001600101855582156117d0579182015b828111156117cf5782518255916020019190600101906117b4565b5b5090506117dd91906117fb565b5090565b604051806040016040528060608152602001600081525090565b61181d91905b80821115611819576000816000905550600101611801565b5090565b90565b61185491905b80821115611850576000808201600061183f91906118b5565b600182016000905550600201611826565b5090565b90565b6118b291905b808211156118ae57600080820160006101000a81549073ffffffffffffffffffffffffffffffffffffffff021916905560018201600090556002820160006118a591906116b5565b5060030161185d565b5090565b90565b50805460008255600302906000526020600020908101906118d69190611857565b50565b6000813590506118e881612780565b92915050565b6000815190506118fd81612780565b92915050565b600082601f83011261191457600080fd5b8135611927611922826125d3565b6125a6565b9150818183526020840193506020810190508360005b8381101561196d578135860161195388826119e0565b84526020840193506020830192505060018101905061193d565b5050505092915050565b600082601f83011261198857600080fd5b813561199b611996826125fb565b6125a6565b915080825260208301602083018583830111156119b757600080fd5b6119c283828461272d565b50505092915050565b6000815190506119da81612797565b92915050565b6000606082840312156119f257600080fd5b6119fc60606125a6565b90506000611a0c848285016118d9565b6000830152506020611a2084828501611a58565b602083015250604082013567ffffffffffffffff811115611a4057600080fd5b611a4c84828501611977565b60408301525092915050565b600081359050611a67816127ae565b92915050565b600081519050611a7c816127ae565b92915050565b600060208284031215611a9457600080fd5b6000611aa2848285016118ee565b91505092915050565b600060208284031215611abd57600080fd5b600082013567ffffffffffffffff811115611ad757600080fd5b611ae384828501611903565b91505092915050565b600060208284031215611afe57600080fd5b6000611b0c848285016119cb565b91505092915050565b600060208284031215611b2757600080fd5b6000611b3584828501611a58565b91505092915050565b600060208284031215611b5057600080fd5b6000611b5e84828501611a6d565b91505092915050565b60008060408385031215611b7a57600080fd5b6000611b8885828601611a58565b9250506020611b99858286016118d9565b9150509250929050565b60008060408385031215611bb657600080fd5b6000611bc485828601611a58565b9250506020611bd585828601611a58565b9150509250929050565b6000611beb8383612284565b905092915050565b611bfc816126d1565b82525050565b611c0b816126d1565b82525050565b6000611c1c82612652565b611c26818561269e565b935083602082028501611c3885612637565b8060005b85811015611c745784840389528151611c558582611bdf565b9450611c6083612680565b925060208a01995050600181019050611c3c565b50829750879550505050505092915050565b6000611c9182612647565b611c9b818561268d565b935083602082028501611cad85612627565b8060005b85811015611ce95784840389528151611cca8582611bdf565b9450611cd583612673565b925060208a01995050600181019050611cb1565b50829750879550505050505092915050565b611d04816126e3565b82525050565b611d13816126ef565b82525050565b6000611d248261265d565b611d2e81856126af565b9350611d3e81856020860161273c565b611d478161276f565b840191505092915050565b6000611d5d82612668565b611d6781856126c0565b9350611d7781856020860161273c565b611d808161276f565b840191505092915050565b7f4f7261636c650000000000000000000000000000000000000000000000000000815250565b6000611dbe601b836126c0565b91507f536166654d6174683a206164646974696f6e206f766572666c6f7700000000006000830152602082019050919050565b6000611dfe602f836126c0565b91507f4d7573742062652063616c6c6564206f6e20616e20696e697469616c697a656460008301527f204578636c757369766520726f6c6500000000000000000000000000000000006020830152604082019050919050565b6000611e64601c836126c0565b91507f5472616e73616374696f6e20657865637574696f6e206661696c6564000000006000830152602082019050919050565b6000611ea4602c836126c0565b91507f4d7573742062652063616c6c6564206f6e20616e20696e697469616c697a656460008301527f2053686172656420726f6c6500000000000000000000000000000000000000006020830152604082019050919050565b6000611f0a6022836126c0565b91507f53656e64657220646f6573206e6f7420686f6c6420726571756972656420726f60008301527f6c650000000000000000000000000000000000000000000000000000000000006020830152604082019050919050565b6000611f706027836126c0565b91507f43616e6e6f7420657865637574652c2070726f706f73616c2077617320766f7460008301527f656420646f776e000000000000000000000000000000000000000000000000006020830152604082019050919050565b6000611fd66021836126c0565b91507f50726f706f73616c2077696c6c206e6576657220626520636f6e73696465726560008301527f64000000000000000000000000000000000000000000000000000000000000006020830152604082019050919050565b600061203c602a836126c0565b91507f50726576696f7573207472616e73616374696f6e20686173206e6f742062656560008301527f6e206578656375746564000000000000000000000000000000000000000000006020830152604082019050919050565b60006120a26023836126c0565b91507f43616e6e6f742073657420616e206578636c757369766520726f6c6520746f2060008301527f30783000000000000000000000000000000000000000000000000000000000006020830152604082019050919050565b6000612108601c836126c0565b91507f54686520746f20616464726573732063616e6e6f7420626520307830000000006000830152602082019050919050565b60006121486025836126c0565b91507f5472616e73616374696f6e2068617320616c7265616479206265656e2065786560008301527f63757465640000000000000000000000000000000000000000000000000000006020830152604082019050919050565b60006121ae6024836126c0565b91507f43616e206f6e6c792062652063616c6c6564206279206120726f6c65206d616e60008301527f61676572000000000000000000000000000000000000000000000000000000006020830152604082019050919050565b6000612214600e836126c0565b91507f496e76616c696420726f6c6549640000000000000000000000000000000000006000830152602082019050919050565b600060408301600083015184820360008601526122648282611c86565b915050602083015161227960208601826122d4565b508091505092915050565b600060608301600083015161229c6000860182611bf3565b5060208301516122af60208601826122d4565b50604083015184820360408601526122c78282611d19565b9150508091505092915050565b6122dd81612723565b82525050565b6122ec81612723565b82525050565b60006020820190506123076000830184611c02565b92915050565b600060208201905081810360008301526123278184611c11565b905092915050565b60006020820190506123446000830184611cfb565b92915050565b600060208201905061235f6000830184611d0a565b92915050565b600060408201905061237a6000830185611d0a565b61238760208301846122e3565b9392505050565b600060208201905081810360008301526123a88184611d52565b905092915050565b60006020820190506123c460008301611d8b565b919050565b600060208201905081810360008301526123e281611db1565b9050919050565b6000602082019050818103600083015261240281611df1565b9050919050565b6000602082019050818103600083015261242281611e57565b9050919050565b6000602082019050818103600083015261244281611e97565b9050919050565b6000602082019050818103600083015261246281611efd565b9050919050565b6000602082019050818103600083015261248281611f63565b9050919050565b600060208201905081810360008301526124a281611fc9565b9050919050565b600060208201905081810360008301526124c28161202f565b9050919050565b600060208201905081810360008301526124e281612095565b9050919050565b60006020820190508181036000830152612502816120fb565b9050919050565b600060208201905081810360008301526125228161213b565b9050919050565b60006020820190508181036000830152612542816121a1565b9050919050565b6000602082019050818103600083015261256281612207565b9050919050565b600060208201905081810360008301526125838184612247565b905092915050565b60006020820190506125a060008301846122e3565b92915050565b6000604051905081810181811067ffffffffffffffff821117156125c957600080fd5b8060405250919050565b600067ffffffffffffffff8211156125ea57600080fd5b602082029050602081019050919050565b600067ffffffffffffffff82111561261257600080fd5b601f19601f8301169050602081019050919050565b6000819050602082019050919050565b6000819050602082019050919050565b600081519050919050565b600081519050919050565b600081519050919050565b600081519050919050565b6000602082019050919050565b6000602082019050919050565b600082825260208201905092915050565b600082825260208201905092915050565b600082825260208201905092915050565b600082825260208201905092915050565b60006126dc82612703565b9050919050565b60008115159050919050565b6000819050919050565b6000819050919050565b600073ffffffffffffffffffffffffffffffffffffffff82169050919050565b6000819050919050565b82818337600083830152505050565b60005b8381101561275a57808201518184015260208101905061273f565b83811115612769576000848401525b50505050565b6000601f19601f8301169050919050565b612789816126d1565b811461279457600080fd5b50565b6127a0816126f9565b81146127ab57600080fd5b50565b6127b781612723565b81146127c257600080fd5b50565b6127cf8282611513565b505056fea365627a7a72315820db5da65a0a2eae387dac5ffa946ec07e5e1bcfd4788aa52ad970c38fd87989b76c6578706572696d656e74616cf564736f6c634300050d0040",
  "source": "pragma solidity ^0.5.0;\n\npragma experimental ABIEncoderV2;\n\nimport \"./Finder.sol\";\nimport \"./MultiRole.sol\";\nimport \"./FixedPoint.sol\";\nimport \"./Voting.sol\";\nimport \"./Testable.sol\";\n\nimport \"@openzeppelin/contracts/math/SafeMath.sol\";\n\n\n/**\n * @title Takes proposals for certain governance actions and allows UMA token holders to vote on them.\n */\ncontract Governor is MultiRole, Testable {\n\n    using SafeMath for uint;\n\n    enum Roles {\n        // Can set the proposer.\n        Owner,\n        // Address that can make proposals.\n        Proposer\n    }\n\n    struct Transaction {\n        address to;\n        uint value;\n        bytes data;\n    }\n\n    struct Proposal {\n        Transaction[] transactions;\n        uint requestTime;\n    }\n\n    Finder private finder;\n    Proposal[] public proposals;\n\n    /**\n     * @notice Emitted when a new proposal is created.\n     */\n    event NewProposal(uint indexed id, Transaction[] transactions);\n\n    /**\n     * @notice Emitted when an existing proposal is executed.\n     */\n    event ProposalExecuted(uint indexed id, uint transactionIndex);\n\n    constructor(address _finderAddress, bool _isTest) public Testable(_isTest) {\n        finder = Finder(_finderAddress);\n        _createExclusiveRole(uint(Roles.Owner), uint(Roles.Owner), msg.sender);\n        _createExclusiveRole(uint(Roles.Proposer), uint(Roles.Owner), msg.sender);\n    }\n\n    /**\n     * @notice Executes a proposed governance action that has been approved by voters. This can be called by anyone.\n     */\n    function executeProposal(uint id, uint transactionIndex) external {\n        Proposal storage proposal = proposals[id];\n        int price = _getVoting().getPrice(_constructIdentifier(id), proposal.requestTime);\n\n        Transaction storage transaction = proposal.transactions[transactionIndex];\n\n        require(transactionIndex == 0 || proposal.transactions[transactionIndex.sub(1)].to == address(0),\n            \"Previous transaction has not been executed\");\n        require(transaction.to != address(0), \"Transaction has already been executed\");\n        require(price != 0, \"Cannot execute, proposal was voted down\");\n        require(_executeCall(transaction.to, transaction.value, transaction.data), \"Transaction execution failed\");\n\n        // Delete the transaction.\n        delete proposal.transactions[transactionIndex];\n\n        emit ProposalExecuted(id, transactionIndex);\n    }\n\n    /**\n     * @notice Gets the total number of proposals (includes executed and non-executed).\n     */\n    function numProposals() external view returns (uint) {\n        return proposals.length;\n    }\n\n    /**\n     * @notice Gets the proposal data for a particular id.\n     * Note: after a proposal is executed, its data will be zeroed out.\n     */\n    function getProposal(uint id) external view returns (Proposal memory proposal) {\n        return proposals[id];\n    }\n\n    /**\n     * @notice Proposes a new governance action. Can only be called by the holder of the Proposer role.\n     * @param transactions the list of transactions that are being proposed.\n     * @dev You can create the data portion of each transaction by doing the following:\n     * ```\n     * const truffleContractInstance = await TruffleContract.deployed()\n     * const data = truffleContractInstance.methods.methodToCall(arg1, arg2).encodeABI()\n     * ```\n     * Note: this method must be public because of a solidity limitation that disallows structs arrays to be passed to\n     * external functions.\n     */\n    function propose(Transaction[] memory transactions) public onlyRoleHolder(uint(Roles.Proposer)) {\n        uint id = proposals.length;\n        uint time = getCurrentTime();\n\n        // Note: doing all of this array manipulation manually is necessary because directly setting an array of\n        // structs in storage to an an array of structs in memory is currently not implemented in solidity :/.\n\n        // Add an element to the proposals array.\n        proposals.length = proposals.length.add(1);\n\n        // Initialize the new proposal.\n        Proposal storage proposal = proposals[id];\n        proposal.requestTime = time;\n\n        // Initialize the transaction array.\n        proposal.transactions.length = transactions.length;\n        for (uint i = 0; i < transactions.length; i++) {\n            require(transactions[i].to != address(0), \"The to address cannot be 0x0\");\n            proposal.transactions[i] = transactions[i];\n        }\n\n        bytes32 identifier = _constructIdentifier(id);\n\n        // Request a vote on this proposal in the DVM.\n        Voting voting = _getVoting();\n        voting.addSupportedIdentifier(identifier);\n\n        // Note: this check is only here to appease slither.\n        require(voting.requestPrice(identifier, time) != ~uint(0), \"Proposal will never be considered\");\n        voting.removeSupportedIdentifier(identifier);\n\n        emit NewProposal(id, transactions);\n    }\n\n    function _constructIdentifier(uint id) private pure returns (bytes32 identifier) {\n        bytes32 bytesId = _uintToBytes(id);\n        return _addPrefix(bytesId, \"Admin \", 6);\n    }\n\n    function _executeCall(address to, uint256 value, bytes memory data)\n        private\n        returns (bool success)\n    {\n        // Mostly copied from:\n        // solhint-disable-next-line max-line-length\n        // https://github.com/gnosis/safe-contracts/blob/59cfdaebcd8b87a0a32f87b50fead092c10d3a05/contracts/base/Executor.sol#L23-L31\n        // solhint-disable-next-line no-inline-assembly\n        assembly {\n            let inputData := add(data, 0x20)\n            let inputDataSize := mload(data)\n            success := call(gas, to, value, inputData, inputDataSize, 0, 0)\n        }\n    }\n\n    function _getVoting() private view returns (Voting voting) {\n        return Voting(finder.getImplementationAddress(\"Oracle\"));\n    }\n\n    // This method is based off of this code: https://ethereum.stackexchange.com/a/6613/47801.\n    function _uintToBytes(uint v) private pure returns (bytes32 ret) {\n        if (v == 0) {\n            ret = \"0\";\n        } else {\n            while (v > 0) {\n                ret = ret >> 8;\n                ret |= bytes32((v % 10) + 48) << (31 * 8);\n                v /= 10;\n            }\n        }\n        return ret;\n    }\n\n    function _addPrefix(bytes32 input, bytes32 prefix, uint prefixLength) private pure returns (bytes32 output) {\n        bytes32 shiftedInput = input >> (prefixLength * 8);\n        return shiftedInput | prefix;\n    }\n}\n",
  "sourcePath": "/Users/ptare/protocol/core/contracts/Governor.sol",
  "compiler": {
    "name": "solc",
    "version": "0.5.13+commit.5b0b510c.Emscripten.clang"
  },
  "schemaVersion": "3.0.19",
  "updatedAt": "2019-12-20T16:30:03.160Z",
  "networkType": "ethereum",
  "devdoc": {
    "methods": {
      "addMember(uint256,address)": {
        "details": "Reverts if `roleId` does not represent an initialized, shared role or if the caller is not a member of the managing role for `roleId`."
      },
      "getMember(uint256)": {
        "details": "Reverts if `roleId` does not represent an initialized, exclusive role."
      },
      "holdsRole(uint256,address)": {
        "details": "Reverts if roleId does not correspond to an initialized role."
      },
      "propose((address,uint256,bytes)[])": {
        "details": "You can create the data portion of each transaction by doing the following: ``` const truffleContractInstance = await TruffleContract.deployed() const data = truffleContractInstance.methods.methodToCall(arg1, arg2).encodeABI() ``` Note: this method must be public because of a solidity limitation that disallows structs arrays to be passed to external functions.",
        "params": {
          "transactions": "the list of transactions that are being proposed."
        }
      },
      "removeMember(uint256,address)": {
        "details": "Reverts if `roleId` does not represent an initialized, shared role or if the caller is not a member of the managing role for `roleId`."
      },
      "resetMember(uint256,address)": {
        "details": "Reverts if the caller is not a member of the managing role for `roleId` or if `roleId` is not an initialized, exclusive role."
      },
      "setCurrentTime(uint256)": {
        "details": "Will revert if not running in test mode."
      }
    },
    "title": "Takes proposals for certain governance actions and allows UMA token holders to vote on them."
  },
  "userdoc": {
    "methods": {
      "addMember(uint256,address)": {
        "notice": "Adds `newMember` to the shared role, `roleId`."
      },
      "executeProposal(uint256,uint256)": {
        "notice": "Executes a proposed governance action that has been approved by voters. This can be called by anyone."
      },
      "getCurrentTime()": {
        "notice": "Gets the current time. Will return the last time set in `setCurrentTime` if running in test mode. Otherwise, it will return the block timestamp."
      },
      "getMember(uint256)": {
        "notice": "Gets the current holder of the exclusive role, `roleId`."
      },
      "getProposal(uint256)": {
        "notice": "Gets the proposal data for a particular id. Note: after a proposal is executed, its data will be zeroed out."
      },
      "holdsRole(uint256,address)": {
        "notice": "Whether `memberToCheck` is a member of roleId."
      },
      "numProposals()": {
        "notice": "Gets the total number of proposals (includes executed and non-executed)."
      },
      "propose((address,uint256,bytes)[])": {
        "notice": "Proposes a new governance action. Can only be called by the holder of the Proposer role."
      },
      "removeMember(uint256,address)": {
        "notice": "Removes `memberToRemove` from the shared role, `roleId`."
      },
      "resetMember(uint256,address)": {
        "notice": "Changes the exclusive role holder of `roleId` to `newMember`."
      },
      "setCurrentTime(uint256)": {
        "notice": "Sets the current time."
      }
    }
  }
}