{
  "contractName": "Registry",
  "abi": [
    {
      "inputs": [],
      "payable": false,
      "stateMutability": "nonpayable",
      "type": "constructor"
    },
    {
      "anonymous": false,
      "inputs": [
        {
          "indexed": true,
          "internalType": "address",
          "name": "derivativeAddress",
          "type": "address"
        },
        {
          "indexed": true,
          "internalType": "address",
          "name": "creator",
          "type": "address"
        },
        {
          "indexed": false,
          "internalType": "address[]",
          "name": "parties",
          "type": "address[]"
        }
      ],
      "name": "NewDerivativeRegistered",
      "type": "event"
    },
    {
      "constant": false,
      "inputs": [
        {
          "internalType": "uint256",
          "name": "roleId",
          "type": "uint256"
        },
        {
          "internalType": "address",
          "name": "newMember",
          "type": "address"
        }
      ],
      "name": "addMember",
      "outputs": [],
      "payable": false,
      "stateMutability": "nonpayable",
      "type": "function"
    },
    {
      "constant": true,
      "inputs": [
        {
          "internalType": "uint256",
          "name": "roleId",
          "type": "uint256"
        }
      ],
      "name": "getMember",
      "outputs": [
        {
          "internalType": "address",
          "name": "",
          "type": "address"
        }
      ],
      "payable": false,
      "stateMutability": "view",
      "type": "function"
    },
    {
      "constant": true,
      "inputs": [
        {
          "internalType": "uint256",
          "name": "roleId",
          "type": "uint256"
        },
        {
          "internalType": "address",
          "name": "memberToCheck",
          "type": "address"
        }
      ],
      "name": "holdsRole",
      "outputs": [
        {
          "internalType": "bool",
          "name": "",
          "type": "bool"
        }
      ],
      "payable": false,
      "stateMutability": "view",
      "type": "function"
    },
    {
      "constant": false,
      "inputs": [
        {
          "internalType": "uint256",
          "name": "roleId",
          "type": "uint256"
        },
        {
          "internalType": "address",
          "name": "memberToRemove",
          "type": "address"
        }
      ],
      "name": "removeMember",
      "outputs": [],
      "payable": false,
      "stateMutability": "nonpayable",
      "type": "function"
    },
    {
      "constant": false,
      "inputs": [
        {
          "internalType": "uint256",
          "name": "roleId",
          "type": "uint256"
        },
        {
          "internalType": "address",
          "name": "newMember",
          "type": "address"
        }
      ],
      "name": "resetMember",
      "outputs": [],
      "payable": false,
      "stateMutability": "nonpayable",
      "type": "function"
    },
    {
      "constant": false,
      "inputs": [
        {
          "internalType": "address[]",
          "name": "parties",
          "type": "address[]"
        },
        {
          "internalType": "address",
          "name": "derivativeAddress",
          "type": "address"
        }
      ],
      "name": "registerDerivative",
      "outputs": [],
      "payable": false,
      "stateMutability": "nonpayable",
      "type": "function"
    },
    {
      "constant": true,
      "inputs": [
        {
          "internalType": "address",
          "name": "derivative",
          "type": "address"
        }
      ],
      "name": "isDerivativeRegistered",
      "outputs": [
        {
          "internalType": "bool",
          "name": "isRegistered",
          "type": "bool"
        }
      ],
      "payable": false,
      "stateMutability": "view",
      "type": "function"
    },
    {
      "constant": true,
      "inputs": [
        {
          "internalType": "address",
          "name": "party",
          "type": "address"
        }
      ],
      "name": "getRegisteredDerivatives",
      "outputs": [
        {
          "internalType": "address[]",
          "name": "derivatives",
          "type": "address[]"
        }
      ],
      "payable": false,
      "stateMutability": "view",
      "type": "function"
    },
    {
      "constant": true,
      "inputs": [],
      "name": "getAllRegisteredDerivatives",
      "outputs": [
        {
          "internalType": "address[]",
          "name": "derivatives",
          "type": "address[]"
        }
      ],
      "payable": false,
      "stateMutability": "view",
      "type": "function"
    }
  ],
  "bytecode": "0x60806040523480156200001157600080fd5b506200003f600060018111156200002457fe5b600060018111156200003257fe5b33620000a260201b60201c565b6200009c6001808111156200005057fe5b600060018111156200005e57fe5b60006040519080825280602002602001820160405280156200008f5781602001602082028038833980820191505090505b506200020e60201b60201c565b62000704565b8260006002811115620000b157fe5b60008083815260200190815260200160002060010160009054906101000a900460ff166002811115620000e057fe5b1462000123576040517f08c379a00000000000000000000000000000000000000000000000000000000081526004016200011a906200068d565b60405180910390fd5b6000806000868152602001908152602001600020905060018160010160006101000a81548160ff021916908360028111156200015b57fe5b02179055508381600001819055506200018683826002016200037a60201b620017a71790919060201c565b600060028111156200019457fe5b60008086815260200190815260200160002060010160009054906101000a900460ff166002811115620001c357fe5b141562000207576040517f08c379a0000000000000000000000000000000000000000000000000000000008152600401620001fe906200066b565b60405180910390fd5b5050505050565b82600060028111156200021d57fe5b60008083815260200190815260200160002060010160009054906101000a900460ff1660028111156200024c57fe5b146200028f576040517f08c379a000000000000000000000000000000000000000000000000000000000815260040162000286906200068d565b60405180910390fd5b6000806000868152602001908152602001600020905060028160010160006101000a81548160ff02191690836002811115620002c757fe5b0217905550838160000181905550620002f283826003016200039060201b620017b51790919060201c565b600060028111156200030057fe5b60008086815260200190815260200160002060010160009054906101000a900460ff1660028111156200032f57fe5b141562000373576040517f08c379a00000000000000000000000000000000000000000000000000000000081526004016200036a90620006d1565b60405180910390fd5b5050505050565b6200038c8282620003d960201b60201c565b5050565b60008090505b8151811015620003d457620003c683838381518110620003b257fe5b60200260200101516200049360201b60201c565b808060010191505062000396565b505050565b600073ffffffffffffffffffffffffffffffffffffffff168173ffffffffffffffffffffffffffffffffffffffff1614156200044c576040517f08c379a00000000000000000000000000000000000000000000000000000000081526004016200044390620006af565b60405180910390fd5b808260000160006101000a81548173ffffffffffffffffffffffffffffffffffffffff021916908373ffffffffffffffffffffffffffffffffffffffff1602179055505050565b60018260000160008373ffffffffffffffffffffffffffffffffffffffff1673ffffffffffffffffffffffffffffffffffffffff16815260200190815260200160002060006101000a81548160ff0219169083151502179055505050565b600062000500603c83620006f3565b91507f417474656d7074656420746f2075736520616e20696e76616c696420726f6c6560008301527f20746f206d616e61676520616e206578636c757369766520726f6c65000000006020830152604082019050919050565b600062000568601e83620006f3565b91507f43616e6e6f74207573652061207072652d6578697374696e6720726f6c6500006000830152602082019050919050565b6000620005aa602383620006f3565b91507f43616e6e6f742073657420616e206578636c757369766520726f6c6520746f2060008301527f30783000000000000000000000000000000000000000000000000000000000006020830152604082019050919050565b600062000612603883620006f3565b91507f417474656d7074656420746f2075736520616e20696e76616c696420726f6c6560008301527f20746f206d616e61676520612073686172656420726f6c6500000000000000006020830152604082019050919050565b600060208201905081810360008301526200068681620004f1565b9050919050565b60006020820190508181036000830152620006a88162000559565b9050919050565b60006020820190508181036000830152620006ca816200059b565b9050919050565b60006020820190508181036000830152620006ec8162000603565b9050919050565b600082825260208201905092915050565b61183680620007146000396000f3fe608060405234801561001057600080fd5b50600436106100935760003560e01c80637cdc1cb9116100665780637cdc1cb91461011e5780638014b1dc1461014e5780638a3ca36b1461016a578063ab3545e51461019a578063d97c05be146101ca57610093565b806335a027a014610098578063647fcf18146100c85780636be7658b146100e657806374d0a67614610102575b600080fd5b6100b260048036036100ad91908101906110fe565b6101e6565b6040516100bf9190611559565b60405180910390f35b6100d061043e565b6040516100dd9190611559565b60405180910390f35b61010060048036036100fb91908101906111a8565b6104cc565b005b61011c600480360361011791908101906111a8565b6105d3565b005b610138600480360361013391908101906111a8565b6106da565b604051610145919061157b565b60405180910390f35b61016860048036036101639190810190611127565b6107d5565b005b610184600480360361017f91908101906110fe565b610b1d565b604051610191919061157b565b60405180910390f35b6101b460048036036101af919081019061117f565b610b8e565b6040516101c1919061153e565b60405180910390f35b6101e460048036036101df91908101906111a8565b610c31565b005b60608060018054905060405190808252806020026020018201604052801561021d5781602001602082028038833980820191505090505b509050600080905060008090505b6001805490508110156103805760006001828154811061024757fe5b9060005260206000200160009054906101000a900473ffffffffffffffffffffffffffffffffffffffff169050600360008273ffffffffffffffffffffffffffffffffffffffff1673ffffffffffffffffffffffffffffffffffffffff16815260200190815260200160002060000160008773ffffffffffffffffffffffffffffffffffffffff1673ffffffffffffffffffffffffffffffffffffffff16815260200190815260200160002060009054906101000a900460ff1615610364578084848151811061031357fe5b602002602001019073ffffffffffffffffffffffffffffffffffffffff16908173ffffffffffffffffffffffffffffffffffffffff1681525050610361600184610d3990919063ffffffff16565b92505b50610379600182610d3990919063ffffffff16565b905061022b565b50806040519080825280602002602001820160405280156103b05781602001602082028038833980820191505090505b50925060008090505b81811015610436578281815181106103cd57fe5b60200260200101518482815181106103e157fe5b602002602001019073ffffffffffffffffffffffffffffffffffffffff16908173ffffffffffffffffffffffffffffffffffffffff168152505061042f600182610d3990919063ffffffff16565b90506103b9565b505050919050565b606060018054806020026020016040519081016040528092919081815260200182805480156104c257602002820191906000526020600020905b8160009054906101000a900473ffffffffffffffffffffffffffffffffffffffff1673ffffffffffffffffffffffffffffffffffffffff1681526020019060010190808311610478575b5050505050905090565b816002808111156104d957fe5b60008083815260200190815260200160002060010160009054906101000a900460ff16600281111561050757fe5b14610547576040517f08c379a000000000000000000000000000000000000000000000000000000000815260040161053e906115f8565b60405180910390fd5b8261056760008083815260200190815260200160002060000154336106da565b6105a6576040517f08c379a000000000000000000000000000000000000000000000000000000000815260040161059d90611658565b60405180910390fd5b6105cd83600080878152602001908152602001600020600301610d8e90919063ffffffff16565b50505050565b816002808111156105e057fe5b60008083815260200190815260200160002060010160009054906101000a900460ff16600281111561060e57fe5b1461064e576040517f08c379a0000000000000000000000000000000000000000000000000000000008152600401610645906115f8565b60405180910390fd5b8261066e60008083815260200190815260200160002060000154336106da565b6106ad576040517f08c379a00000000000000000000000000000000000000000000000000000000081526004016106a490611658565b60405180910390fd5b6106d483600080878152602001908152602001600020600301610dec90919063ffffffff16565b50505050565b6000806000808581526020019081526020016000209050600160028111156106fe57fe5b8160010160009054906101000a900460ff16600281111561071b57fe5b141561073f576107378382600201610e4a90919063ffffffff16565b9150506107cf565b60028081111561074b57fe5b8160010160009054906101000a900460ff16600281111561076857fe5b141561078c576107848382600301610ea790919063ffffffff16565b9150506107cf565b60006107cd576040517f08c379a00000000000000000000000000000000000000000000000000000000081526004016107c490611678565b60405180910390fd5b505b92915050565b6001808111156107e157fe5b6107eb81336106da565b61082a576040517f08c379a000000000000000000000000000000000000000000000000000000000815260040161082190611618565b60405180910390fd5b6000600260008473ffffffffffffffffffffffffffffffffffffffff1673ffffffffffffffffffffffffffffffffffffffff16815260200190815260200160002090506000600181111561087a57fe5b8160000160009054906101000a900460ff16600181111561089757fe5b146108a157600080fd5b60018160000160006101000a81548160ff021916908360018111156108c257fe5b021790555060018390806001815401808255809150509060018203906000526020600020016000909192909190916101000a81548173ffffffffffffffffffffffffffffffffffffffff021916908373ffffffffffffffffffffffffffffffffffffffff1602179055505061094560018080549050610f0090919063ffffffff16565b8160000160016101000a8154816fffffffffffffffffffffffffffffffff02191690836fffffffffffffffffffffffffffffffff1602179055506000600360008573ffffffffffffffffffffffffffffffffffffffff1673ffffffffffffffffffffffffffffffffffffffff168152602001908152602001600020905060008090505b86869050811015610a685760018260000160008989858181106109e757fe5b90506020020160206109fc91908101906110fe565b73ffffffffffffffffffffffffffffffffffffffff1673ffffffffffffffffffffffffffffffffffffffff16815260200190815260200160002060006101000a81548160ff021916908315150217905550610a61600182610d3990919063ffffffff16565b90506109c8565b506060868680806020026020016040519081016040528093929190818152602001838360200280828437600081840152601f19601f8201169050808301925050505050505090503373ffffffffffffffffffffffffffffffffffffffff168573ffffffffffffffffffffffffffffffffffffffff167f51c333898f2a7f50a1d23a79ca04ce7c75af5cc276899b32ced7965b76b75d3a83604051610b0c9190611559565b60405180910390a350505050505050565b6000600180811115610b2b57fe5b600260008473ffffffffffffffffffffffffffffffffffffffff1673ffffffffffffffffffffffffffffffffffffffff16815260200190815260200160002060000160009054906101000a900460ff166001811115610b8657fe5b149050919050565b60008160016002811115610b9e57fe5b60008083815260200190815260200160002060010160009054906101000a900460ff166002811115610bcc57fe5b14610c0c576040517f08c379a0000000000000000000000000000000000000000000000000000000008152600401610c03906115d8565b60405180910390fd5b610c29600080858152602001908152602001600020600201610f4a565b915050919050565b8160016002811115610c3f57fe5b60008083815260200190815260200160002060010160009054906101000a900460ff166002811115610c6d57fe5b14610cad576040517f08c379a0000000000000000000000000000000000000000000000000000000008152600401610ca4906115d8565b60405180910390fd5b82610ccd60008083815260200190815260200160002060000154336106da565b610d0c576040517f08c379a0000000000000000000000000000000000000000000000000000000008152600401610d0390611658565b60405180910390fd5b610d3383600080878152602001908152602001600020600201610f7890919063ffffffff16565b50505050565b600080828401905083811015610d84576040517f08c379a0000000000000000000000000000000000000000000000000000000008152600401610d7b906115b8565b60405180910390fd5b8091505092915050565b60008260000160008373ffffffffffffffffffffffffffffffffffffffff1673ffffffffffffffffffffffffffffffffffffffff16815260200190815260200160002060006101000a81548160ff0219169083151502179055505050565b60018260000160008373ffffffffffffffffffffffffffffffffffffffff1673ffffffffffffffffffffffffffffffffffffffff16815260200190815260200160002060006101000a81548160ff0219169083151502179055505050565b60008173ffffffffffffffffffffffffffffffffffffffff168360000160009054906101000a900473ffffffffffffffffffffffffffffffffffffffff1673ffffffffffffffffffffffffffffffffffffffff1614905092915050565b60008260000160008373ffffffffffffffffffffffffffffffffffffffff1673ffffffffffffffffffffffffffffffffffffffff16815260200190815260200160002060009054906101000a900460ff16905092915050565b6000610f4283836040518060400160405280601e81526020017f536166654d6174683a207375627472616374696f6e206f766572666c6f77000081525061102f565b905092915050565b60008160000160009054906101000a900473ffffffffffffffffffffffffffffffffffffffff169050919050565b600073ffffffffffffffffffffffffffffffffffffffff168173ffffffffffffffffffffffffffffffffffffffff161415610fe8576040517f08c379a0000000000000000000000000000000000000000000000000000000008152600401610fdf90611638565b60405180910390fd5b808260000160006101000a81548173ffffffffffffffffffffffffffffffffffffffff021916908373ffffffffffffffffffffffffffffffffffffffff1602179055505050565b6000838311158290611077576040517f08c379a000000000000000000000000000000000000000000000000000000000815260040161106e9190611596565b60405180910390fd5b5060008385039050809150509392505050565b60008135905061109981611779565b92915050565b60008083601f8401126110b157600080fd5b8235905067ffffffffffffffff8111156110ca57600080fd5b6020830191508360208202830111156110e257600080fd5b9250929050565b6000813590506110f881611790565b92915050565b60006020828403121561111057600080fd5b600061111e8482850161108a565b91505092915050565b60008060006040848603121561113c57600080fd5b600084013567ffffffffffffffff81111561115657600080fd5b6111628682870161109f565b935093505060206111758682870161108a565b9150509250925092565b60006020828403121561119157600080fd5b600061119f848285016110e9565b91505092915050565b600080604083850312156111bb57600080fd5b60006111c9858286016110e9565b92505060206111da8582860161108a565b9150509250929050565b60006111f083836111fc565b60208301905092915050565b611205816116ed565b82525050565b611214816116ed565b82525050565b6000611225826116a8565b61122f81856116cb565b935061123a83611698565b8060005b8381101561126b57815161125288826111e4565b975061125d836116be565b92505060018101905061123e565b5085935050505092915050565b611281816116ff565b82525050565b6000611292826116b3565b61129c81856116dc565b93506112ac818560208601611735565b6112b581611768565b840191505092915050565b60006112cd601b836116dc565b91507f536166654d6174683a206164646974696f6e206f766572666c6f7700000000006000830152602082019050919050565b600061130d602f836116dc565b91507f4d7573742062652063616c6c6564206f6e20616e20696e697469616c697a656460008301527f204578636c757369766520726f6c6500000000000000000000000000000000006020830152604082019050919050565b6000611373602c836116dc565b91507f4d7573742062652063616c6c6564206f6e20616e20696e697469616c697a656460008301527f2053686172656420726f6c6500000000000000000000000000000000000000006020830152604082019050919050565b60006113d96022836116dc565b91507f53656e64657220646f6573206e6f7420686f6c6420726571756972656420726f60008301527f6c650000000000000000000000000000000000000000000000000000000000006020830152604082019050919050565b600061143f6023836116dc565b91507f43616e6e6f742073657420616e206578636c757369766520726f6c6520746f2060008301527f30783000000000000000000000000000000000000000000000000000000000006020830152604082019050919050565b60006114a56024836116dc565b91507f43616e206f6e6c792062652063616c6c6564206279206120726f6c65206d616e60008301527f61676572000000000000000000000000000000000000000000000000000000006020830152604082019050919050565b600061150b600e836116dc565b91507f496e76616c696420726f6c6549640000000000000000000000000000000000006000830152602082019050919050565b6000602082019050611553600083018461120b565b92915050565b60006020820190508181036000830152611573818461121a565b905092915050565b60006020820190506115906000830184611278565b92915050565b600060208201905081810360008301526115b08184611287565b905092915050565b600060208201905081810360008301526115d1816112c0565b9050919050565b600060208201905081810360008301526115f181611300565b9050919050565b6000602082019050818103600083015261161181611366565b9050919050565b60006020820190508181036000830152611631816113cc565b9050919050565b6000602082019050818103600083015261165181611432565b9050919050565b6000602082019050818103600083015261167181611498565b9050919050565b60006020820190508181036000830152611691816114fe565b9050919050565b6000819050602082019050919050565b600081519050919050565b600081519050919050565b6000602082019050919050565b600082825260208201905092915050565b600082825260208201905092915050565b60006116f88261170b565b9050919050565b60008115159050919050565b600073ffffffffffffffffffffffffffffffffffffffff82169050919050565b6000819050919050565b60005b83811015611753578082015181840152602081019050611738565b83811115611762576000848401525b50505050565b6000601f19601f8301169050919050565b611782816116ed565b811461178d57600080fd5b50565b6117998161172b565b81146117a457600080fd5b50565b6117b18282610f78565b5050565b60008090505b81518110156117ee576117e1838383815181106117d457fe5b6020026020010151610dec565b80806001019150506117bb565b50505056fea365627a7a723158207d18c618a766fd7dac61519401ffa07dc3c788dddde520d8281cf45d257c0a0d6c6578706572696d656e74616cf564736f6c634300050d0040",
  "source": "pragma solidity ^0.5.0;\n\nimport \"./MultiRole.sol\";\nimport \"./RegistryInterface.sol\";\n\nimport \"@openzeppelin/contracts/math/SafeMath.sol\";\n\npragma experimental ABIEncoderV2;\n\n\n/**\n * @title Registry for derivatives and approved derivative creators.\n * @dev Maintains a whitelist of derivative creators that are allowed to register new derivatives.\n */\ncontract Registry is RegistryInterface, MultiRole {\n\n    using SafeMath for uint;\n\n    enum Roles {\n        // The owner manages the set of DerivativeCreators.\n        Owner,\n        // Can register derivatives.\n        DerivativeCreator\n    }\n\n    // Array of all derivatives that are approved to use the UMA Oracle.\n    address[] private registeredDerivatives;\n\n    // This enum is required because a WasValid state is required to ensure that derivatives cannot be re-registered.\n    enum PointerValidity {\n        Invalid,\n        Valid\n    }\n\n    struct Pointer {\n        PointerValidity valid;\n        uint128 index;\n    }\n\n    // Maps from derivative address to a pointer that refers to that registered derivative in `registeredDerivatives`.\n    mapping(address => Pointer) private derivativePointers;\n\n    // Note: this must be stored outside of `registeredDerivatives` because mappings cannot be deleted and copied\n    // like normal data. This could be stored in the Pointer struct, but storing it there would muddy the purpose\n    // of the Pointer struct and break separation of concern between referential data and data.\n    struct PartiesMap {\n        mapping(address => bool) parties;\n    }\n\n    // Maps from derivative address to the set of parties that are involved in that derivative.\n    mapping(address => PartiesMap) private derivativesToParties;\n\n    event NewDerivativeRegistered(address indexed derivativeAddress, address indexed creator, address[] parties);\n\n    constructor() public {\n        _createExclusiveRole(uint(Roles.Owner), uint(Roles.Owner), msg.sender);\n        // Start with no derivative creators registered.\n        _createSharedRole(uint(Roles.DerivativeCreator), uint(Roles.Owner), new address[](0));\n    }\n\n    function registerDerivative(address[] calldata parties, address derivativeAddress)\n        external\n        onlyRoleHolder(uint(Roles.DerivativeCreator))\n    {\n        // Create derivative pointer.\n        Pointer storage pointer = derivativePointers[derivativeAddress];\n\n        // Ensure that the pointer was not valid in the past (derivatives cannot be re-registered or double\n        // registered).\n        require(pointer.valid == PointerValidity.Invalid);\n        pointer.valid = PointerValidity.Valid;\n\n        registeredDerivatives.push(derivativeAddress);\n\n        // No length check necessary because we should never hit (2^127 - 1) derivatives.\n        pointer.index = uint128(registeredDerivatives.length.sub(1));\n\n        // Set up PartiesMap for this derivative.\n        PartiesMap storage partiesMap = derivativesToParties[derivativeAddress];\n        for (uint i = 0; i < parties.length; i = i.add(1)) {\n            partiesMap.parties[parties[i]] = true;\n        }\n\n        address[] memory partiesForEvent = parties;\n        emit NewDerivativeRegistered(derivativeAddress, msg.sender, partiesForEvent);\n    }\n\n    function isDerivativeRegistered(address derivative) external view returns (bool isRegistered) {\n        return derivativePointers[derivative].valid == PointerValidity.Valid;\n    }\n\n    function getRegisteredDerivatives(address party) external view returns (address[] memory derivatives) {\n        // This is not ideal - we must statically allocate memory arrays. To be safe, we make a temporary array as long\n        // as registeredDerivatives. We populate it with any derivatives that involve the provided party. Then, we copy\n        // the array over to the return array, which is allocated using the correct size. Note: this is done by double\n        // copying each value rather than storing some referential info (like indices) in memory to reduce the number\n        // of storage reads. This is because storage reads are far more expensive than extra memory space (~100:1).\n        address[] memory tmpDerivativeArray = new address[](registeredDerivatives.length);\n        uint outputIndex = 0;\n        for (uint i = 0; i < registeredDerivatives.length; i = i.add(1)) {\n            address derivative = registeredDerivatives[i];\n            if (derivativesToParties[derivative].parties[party]) {\n                // Copy selected derivative to the temporary array.\n                tmpDerivativeArray[outputIndex] = derivative;\n                outputIndex = outputIndex.add(1);\n            }\n        }\n\n        // Copy the temp array to the return array that is set to the correct size.\n        derivatives = new address[](outputIndex);\n        for (uint j = 0; j < outputIndex; j = j.add(1)) {\n            derivatives[j] = tmpDerivativeArray[j];\n        }\n    }\n\n    function getAllRegisteredDerivatives() external view returns (address[] memory derivatives) {\n        return registeredDerivatives;\n    }\n}\n",
  "sourcePath": "/Users/ptare/protocol/core/contracts/Registry.sol",
  "compiler": {
    "name": "solc",
    "version": "0.5.13+commit.5b0b510c.Emscripten.clang"
  },
  "schemaVersion": "3.0.19",
  "updatedAt": "2019-12-20T16:30:09.386Z",
  "networkType": "ethereum",
  "devdoc": {
    "details": "Maintains a whitelist of derivative creators that are allowed to register new derivatives.",
    "methods": {
      "addMember(uint256,address)": {
        "details": "Reverts if `roleId` does not represent an initialized, shared role or if the caller is not a member of the managing role for `roleId`."
      },
      "getMember(uint256)": {
        "details": "Reverts if `roleId` does not represent an initialized, exclusive role."
      },
      "holdsRole(uint256,address)": {
        "details": "Reverts if roleId does not correspond to an initialized role."
      },
      "removeMember(uint256,address)": {
        "details": "Reverts if `roleId` does not represent an initialized, shared role or if the caller is not a member of the managing role for `roleId`."
      },
      "resetMember(uint256,address)": {
        "details": "Reverts if the caller is not a member of the managing role for `roleId` or if `roleId` is not an initialized, exclusive role."
      }
    },
    "title": "Registry for derivatives and approved derivative creators."
  },
  "userdoc": {
    "methods": {
      "addMember(uint256,address)": {
        "notice": "Adds `newMember` to the shared role, `roleId`."
      },
      "getMember(uint256)": {
        "notice": "Gets the current holder of the exclusive role, `roleId`."
      },
      "holdsRole(uint256,address)": {
        "notice": "Whether `memberToCheck` is a member of roleId."
      },
      "removeMember(uint256,address)": {
        "notice": "Removes `memberToRemove` from the shared role, `roleId`."
      },
      "resetMember(uint256,address)": {
        "notice": "Changes the exclusive role holder of `roleId` to `newMember`."
      }
    }
  }
}