{
  "contractName": "Store",
  "abi": [
    {
      "inputs": [],
      "payable": false,
      "stateMutability": "nonpayable",
      "type": "constructor"
    },
    {
      "anonymous": false,
      "inputs": [
        {
          "components": [
            {
              "internalType": "uint256",
              "name": "rawValue",
              "type": "uint256"
            }
          ],
          "indexed": false,
          "internalType": "struct FixedPoint.Unsigned",
          "name": "newOracleFee",
          "type": "tuple"
        }
      ],
      "name": "NewFixedOracleFeePerSecond",
      "type": "event"
    },
    {
      "constant": false,
      "inputs": [
        {
          "internalType": "uint256",
          "name": "roleId",
          "type": "uint256"
        },
        {
          "internalType": "address",
          "name": "newMember",
          "type": "address"
        }
      ],
      "name": "addMember",
      "outputs": [],
      "payable": false,
      "stateMutability": "nonpayable",
      "type": "function"
    },
    {
      "constant": true,
      "inputs": [
        {
          "internalType": "uint256",
          "name": "roleId",
          "type": "uint256"
        }
      ],
      "name": "getMember",
      "outputs": [
        {
          "internalType": "address",
          "name": "",
          "type": "address"
        }
      ],
      "payable": false,
      "stateMutability": "view",
      "type": "function"
    },
    {
      "constant": true,
      "inputs": [
        {
          "internalType": "uint256",
          "name": "roleId",
          "type": "uint256"
        },
        {
          "internalType": "address",
          "name": "memberToCheck",
          "type": "address"
        }
      ],
      "name": "holdsRole",
      "outputs": [
        {
          "internalType": "bool",
          "name": "",
          "type": "bool"
        }
      ],
      "payable": false,
      "stateMutability": "view",
      "type": "function"
    },
    {
      "constant": false,
      "inputs": [
        {
          "internalType": "uint256",
          "name": "roleId",
          "type": "uint256"
        },
        {
          "internalType": "address",
          "name": "memberToRemove",
          "type": "address"
        }
      ],
      "name": "removeMember",
      "outputs": [],
      "payable": false,
      "stateMutability": "nonpayable",
      "type": "function"
    },
    {
      "constant": false,
      "inputs": [
        {
          "internalType": "uint256",
          "name": "roleId",
          "type": "uint256"
        },
        {
          "internalType": "address",
          "name": "newMember",
          "type": "address"
        }
      ],
      "name": "resetMember",
      "outputs": [],
      "payable": false,
      "stateMutability": "nonpayable",
      "type": "function"
    },
    {
      "constant": false,
      "inputs": [
        {
          "internalType": "uint256",
          "name": "amount",
          "type": "uint256"
        }
      ],
      "name": "withdraw",
      "outputs": [],
      "payable": false,
      "stateMutability": "nonpayable",
      "type": "function"
    },
    {
      "constant": false,
      "inputs": [
        {
          "internalType": "address",
          "name": "erc20Address",
          "type": "address"
        },
        {
          "internalType": "uint256",
          "name": "amount",
          "type": "uint256"
        }
      ],
      "name": "withdrawErc20",
      "outputs": [],
      "payable": false,
      "stateMutability": "nonpayable",
      "type": "function"
    },
    {
      "constant": false,
      "inputs": [],
      "name": "payOracleFees",
      "outputs": [],
      "payable": true,
      "stateMutability": "payable",
      "type": "function"
    },
    {
      "constant": false,
      "inputs": [
        {
          "internalType": "address",
          "name": "erc20Address",
          "type": "address"
        }
      ],
      "name": "payOracleFeesErc20",
      "outputs": [],
      "payable": false,
      "stateMutability": "nonpayable",
      "type": "function"
    },
    {
      "constant": true,
      "inputs": [
        {
          "internalType": "uint256",
          "name": "startTime",
          "type": "uint256"
        },
        {
          "internalType": "uint256",
          "name": "endTime",
          "type": "uint256"
        },
        {
          "components": [
            {
              "internalType": "uint256",
              "name": "rawValue",
              "type": "uint256"
            }
          ],
          "internalType": "struct FixedPoint.Unsigned",
          "name": "pfc",
          "type": "tuple"
        }
      ],
      "name": "computeRegularFee",
      "outputs": [
        {
          "components": [
            {
              "internalType": "uint256",
              "name": "rawValue",
              "type": "uint256"
            }
          ],
          "internalType": "struct FixedPoint.Unsigned",
          "name": "regularFee",
          "type": "tuple"
        },
        {
          "components": [
            {
              "internalType": "uint256",
              "name": "rawValue",
              "type": "uint256"
            }
          ],
          "internalType": "struct FixedPoint.Unsigned",
          "name": "latePenalty",
          "type": "tuple"
        }
      ],
      "payable": false,
      "stateMutability": "view",
      "type": "function"
    },
    {
      "constant": true,
      "inputs": [
        {
          "internalType": "address",
          "name": "currency",
          "type": "address"
        }
      ],
      "name": "computeFinalFee",
      "outputs": [
        {
          "components": [
            {
              "internalType": "uint256",
              "name": "rawValue",
              "type": "uint256"
            }
          ],
          "internalType": "struct FixedPoint.Unsigned",
          "name": "finalFee",
          "type": "tuple"
        }
      ],
      "payable": false,
      "stateMutability": "view",
      "type": "function"
    },
    {
      "constant": false,
      "inputs": [
        {
          "components": [
            {
              "internalType": "uint256",
              "name": "rawValue",
              "type": "uint256"
            }
          ],
          "internalType": "struct FixedPoint.Unsigned",
          "name": "newOracleFee",
          "type": "tuple"
        }
      ],
      "name": "setFixedOracleFeePerSecond",
      "outputs": [],
      "payable": false,
      "stateMutability": "nonpayable",
      "type": "function"
    },
    {
      "constant": false,
      "inputs": [
        {
          "components": [
            {
              "internalType": "uint256",
              "name": "rawValue",
              "type": "uint256"
            }
          ],
          "internalType": "struct FixedPoint.Unsigned",
          "name": "newWeeklyDelayFee",
          "type": "tuple"
        }
      ],
      "name": "setWeeklyDelayFee",
      "outputs": [],
      "payable": false,
      "stateMutability": "nonpayable",
      "type": "function"
    },
    {
      "constant": false,
      "inputs": [
        {
          "internalType": "address",
          "name": "currency",
          "type": "address"
        },
        {
          "components": [
            {
              "internalType": "uint256",
              "name": "rawValue",
              "type": "uint256"
            }
          ],
          "internalType": "struct FixedPoint.Unsigned",
          "name": "finalFee",
          "type": "tuple"
        }
      ],
      "name": "setFinalFee",
      "outputs": [],
      "payable": false,
      "stateMutability": "nonpayable",
      "type": "function"
    }
  ],
  "bytecode": "0x60806040523480156200001157600080fd5b506200003f600060018111156200002457fe5b600060018111156200003257fe5b336200007160201b60201c565b6200006b6001808111156200005057fe5b600060018111156200005e57fe5b33620001dd60201b60201c565b62000455565b82600060028111156200008057fe5b60008083815260200190815260200160002060010160009054906101000a900460ff166002811115620000af57fe5b14620000f2576040517f08c379a0000000000000000000000000000000000000000000000000000000008152600401620000e99062000400565b60405180910390fd5b6000806000868152602001908152602001600020905060018160010160006101000a81548160ff021916908360028111156200012a57fe5b0217905550838160000181905550620001558382600201620001fc60201b62001bfd1790919060201c565b600060028111156200016357fe5b60008086815260200190815260200160002060010160009054906101000a900460ff1660028111156200019257fe5b1415620001d6576040517f08c379a0000000000000000000000000000000000000000000000000000000008152600401620001cd90620003de565b60405180910390fd5b5050505050565b82600181905550620001f78383836200007160201b60201c565b505050565b6200020e82826200021260201b60201c565b5050565b600073ffffffffffffffffffffffffffffffffffffffff168173ffffffffffffffffffffffffffffffffffffffff16141562000285576040517f08c379a00000000000000000000000000000000000000000000000000000000081526004016200027c9062000422565b60405180910390fd5b808260000160006101000a81548173ffffffffffffffffffffffffffffffffffffffff021916908373ffffffffffffffffffffffffffffffffffffffff1602179055505050565b6000620002db603c8362000444565b91507f417474656d7074656420746f2075736520616e20696e76616c696420726f6c6560008301527f20746f206d616e61676520616e206578636c757369766520726f6c65000000006020830152604082019050919050565b600062000343601e8362000444565b91507f43616e6e6f74207573652061207072652d6578697374696e6720726f6c6500006000830152602082019050919050565b60006200038560238362000444565b91507f43616e6e6f742073657420616e206578636c757369766520726f6c6520746f2060008301527f30783000000000000000000000000000000000000000000000000000000000006020830152604082019050919050565b60006020820190508181036000830152620003f981620002cc565b9050919050565b600060208201905081810360008301526200041b8162000334565b9050919050565b600060208201905081810360008301526200043d8162000376565b9050919050565b600082825260208201905092915050565b611c4e80620004656000396000f3fe6080604052600436106100dd5760003560e01c80637684e0001161007f578063ab3545e511610059578063ab3545e5146102b9578063bd1f4b52146102f6578063cd3a9b241461031f578063d97c05be14610329576100dd565b80637684e0001461022a5780637cdc1cb9146102535780637e7e591d14610290576100dd565b80635b97aadd116100bb5780635b97aadd1461015d5780636be7658b1461019a57806374201feb146101c357806374d0a67614610201576100dd565b80632e1a7d4d146100e257806334a9eff41461010b5780634933a88714610134575b600080fd5b3480156100ee57600080fd5b5061010960048036036101049190810190611487565b610352565b005b34801561011757600080fd5b50610132600480360361012d919081019061145e565b6103e9565b005b34801561014057600080fd5b5061015b60048036036101569190810190611394565b610453565b005b34801561016957600080fd5b50610184600480360361017f9190810190611394565b610591565b6040516101919190611a69565b60405180910390f35b3480156101a657600080fd5b506101c160048036036101bc91908101906114d9565b6105f4565b005b3480156101cf57600080fd5b506101ea60048036036101e59190810190611515565b6106fb565b6040516101f8929190611a84565b60405180910390f35b34801561020d57600080fd5b50610228600480360361022391908101906114d9565b6107e0565b005b34801561023657600080fd5b50610251600480360361024c919081019061145e565b6108e7565b005b34801561025f57600080fd5b5061027a600480360361027591908101906114d9565b6109a5565b604051610287919061194c565b60405180910390f35b34801561029c57600080fd5b506102b760048036036102b291908101906113bd565b610aa0565b005b3480156102c557600080fd5b506102e060048036036102db9190810190611487565b610b48565b6040516102ed91906118a8565b60405180910390f35b34801561030257600080fd5b5061031d600480360361031891908101906113f9565b610beb565b005b610327610cd8565b005b34801561033557600080fd5b50610350600480360361034b91908101906114d9565b610ce7565b005b60015461035f81336109a5565b61039e576040517f08c379a0000000000000000000000000000000000000000000000000000000008152600401610395906119c9565b60405180910390fd5b3373ffffffffffffffffffffffffffffffffffffffff166108fc839081150290604051600060405180830381858888f193505050501580156103e4573d6000803e3d6000fd5b505050565b600060018111156103f657fe5b61040081336109a5565b61043f576040517f08c379a0000000000000000000000000000000000000000000000000000000008152600401610436906119c9565b60405180910390fd5b816003600082015181600001559050505050565b600081905060008173ffffffffffffffffffffffffffffffffffffffff1663dd62ed3e33306040518363ffffffff1660e01b81526004016104959291906118c3565b60206040518083038186803b1580156104ad57600080fd5b505afa1580156104c1573d6000803e3d6000fd5b505050506040513d601f19601f820116820180604052506104e591908101906114b0565b9050600081116104f457600080fd5b8173ffffffffffffffffffffffffffffffffffffffff166323b872dd3330846040518463ffffffff1660e01b8152600401610531939291906118ec565b602060405180830381600087803b15801561054b57600080fd5b505af115801561055f573d6000803e3d6000fd5b505050506040513d601f19601f820116820180604052506105839190810190611435565b61058c57600080fd5b505050565b6105996112da565b600460008373ffffffffffffffffffffffffffffffffffffffff1673ffffffffffffffffffffffffffffffffffffffff1681526020019081526020016000206040518060200160405290816000820154815250509050919050565b8160028081111561060157fe5b60008083815260200190815260200160002060010160009054906101000a900460ff16600281111561062f57fe5b1461066f576040517f08c379a0000000000000000000000000000000000000000000000000000000008152600401610666906119a9565b60405180910390fd5b8261068f60008083815260200190815260200160002060000154336109a5565b6106ce576040517f08c379a00000000000000000000000000000000000000000000000000000000081526004016106c590611a29565b60405180910390fd5b6106f583600080878152602001908152602001600020600301610def90919063ffffffff16565b50505050565b6107036112da565b61070b6112da565b60006107208686610e4d90919063ffffffff16565b905061076d600260405180602001604052908160008201548152505061075f8387803603610751919081019061145e565b610e9790919063ffffffff16565b610ecc90919063ffffffff16565b92506107cf6107b061078b62093a8084610f1690919063ffffffff16565b6003604051806020016040529081600082015481525050610e9790919063ffffffff16565b858036036107c1919081019061145e565b610ecc90919063ffffffff16565b915082829250925050935093915050565b816002808111156107ed57fe5b60008083815260200190815260200160002060010160009054906101000a900460ff16600281111561081b57fe5b1461085b576040517f08c379a0000000000000000000000000000000000000000000000000000000008152600401610852906119a9565b60405180910390fd5b8261087b60008083815260200190815260200160002060000154336109a5565b6108ba576040517f08c379a00000000000000000000000000000000000000000000000000000000081526004016108b190611a29565b60405180910390fd5b6108e183600080878152602001908152602001600020600301610f6090919063ffffffff16565b50505050565b600060018111156108f457fe5b6108fe81336109a5565b61093d576040517f08c379a0000000000000000000000000000000000000000000000000000000008152600401610934906119c9565b60405180910390fd5b610951600183610fbe90919063ffffffff16565b61095a57600080fd5b816002600082015181600001559050507fce0ae2865efa0c92fb74c1e33121795dc95cc78d86412a5b8f20be139857f386826040516109999190611a69565b60405180910390a15050565b6000806000808581526020019081526020016000209050600160028111156109c957fe5b8160010160009054906101000a900460ff1660028111156109e657fe5b1415610a0a57610a028382600201610fdb90919063ffffffff16565b915050610a9a565b600280811115610a1657fe5b8160010160009054906101000a900460ff166002811115610a3357fe5b1415610a5757610a4f838260030161103890919063ffffffff16565b915050610a9a565b6000610a98576040517f08c379a0000000000000000000000000000000000000000000000000000000008152600401610a8f90611a49565b60405180910390fd5b505b92915050565b60006001811115610aad57fe5b610ab781336109a5565b610af6576040517f08c379a0000000000000000000000000000000000000000000000000000000008152600401610aed906119c9565b60405180910390fd5b81600460008573ffffffffffffffffffffffffffffffffffffffff1673ffffffffffffffffffffffffffffffffffffffff16815260200190815260200160002060008201518160000155905050505050565b60008160016002811115610b5857fe5b60008083815260200190815260200160002060010160009054906101000a900460ff166002811115610b8657fe5b14610bc6576040517f08c379a0000000000000000000000000000000000000000000000000000000008152600401610bbd90611989565b60405180910390fd5b610be3600080858152602001908152602001600020600201611091565b915050919050565b600154610bf881336109a5565b610c37576040517f08c379a0000000000000000000000000000000000000000000000000000000008152600401610c2e906119c9565b60405180910390fd5b60008390508073ffffffffffffffffffffffffffffffffffffffff1663a9059cbb33856040518363ffffffff1660e01b8152600401610c77929190611923565b602060405180830381600087803b158015610c9157600080fd5b505af1158015610ca5573d6000803e3d6000fd5b505050506040513d601f19601f82011682018060405250610cc99190810190611435565b610cd257600080fd5b50505050565b60003411610ce557600080fd5b565b8160016002811115610cf557fe5b60008083815260200190815260200160002060010160009054906101000a900460ff166002811115610d2357fe5b14610d63576040517f08c379a0000000000000000000000000000000000000000000000000000000008152600401610d5a90611989565b60405180910390fd5b82610d8360008083815260200190815260200160002060000154336109a5565b610dc2576040517f08c379a0000000000000000000000000000000000000000000000000000000008152600401610db990611a29565b60405180910390fd5b610de9836000808781526020019081526020016000206002016110bf90919063ffffffff16565b50505050565b60008260000160008373ffffffffffffffffffffffffffffffffffffffff1673ffffffffffffffffffffffffffffffffffffffff16815260200190815260200160002060006101000a81548160ff0219169083151502179055505050565b6000610e8f83836040518060400160405280601e81526020017f536166654d6174683a207375627472616374696f6e206f766572666c6f770000815250611176565b905092915050565b610e9f6112da565b6040518060200160405280610ec18486600001516111d190919063ffffffff16565b815250905092915050565b610ed46112da565b6040518060200160405280670de0b6b3a7640000610f03856000015187600001516111d190919063ffffffff16565b81610f0a57fe5b04815250905092915050565b6000610f5883836040518060400160405280601a81526020017f536166654d6174683a206469766973696f6e206279207a65726f000000000000815250611241565b905092915050565b60018260000160008373ffffffffffffffffffffffffffffffffffffffff1673ffffffffffffffffffffffffffffffffffffffff16815260200190815260200160002060006101000a81548160ff0219169083151502179055505050565b6000610fc9826112a2565b60000151836000015110905092915050565b60008173ffffffffffffffffffffffffffffffffffffffff168360000160009054906101000a900473ffffffffffffffffffffffffffffffffffffffff1673ffffffffffffffffffffffffffffffffffffffff1614905092915050565b60008260000160008373ffffffffffffffffffffffffffffffffffffffff1673ffffffffffffffffffffffffffffffffffffffff16815260200190815260200160002060009054906101000a900460ff16905092915050565b60008160000160009054906101000a900473ffffffffffffffffffffffffffffffffffffffff169050919050565b600073ffffffffffffffffffffffffffffffffffffffff168173ffffffffffffffffffffffffffffffffffffffff16141561112f576040517f08c379a000000000000000000000000000000000000000000000000000000000815260040161112690611a09565b60405180910390fd5b808260000160006101000a81548173ffffffffffffffffffffffffffffffffffffffff021916908373ffffffffffffffffffffffffffffffffffffffff1602179055505050565b60008383111582906111be576040517f08c379a00000000000000000000000000000000000000000000000000000000081526004016111b59190611967565b60405180910390fd5b5060008385039050809150509392505050565b6000808314156111e4576000905061123b565b60008284029050828482816111f557fe5b0414611236576040517f08c379a000000000000000000000000000000000000000000000000000000000815260040161122d906119e9565b60405180910390fd5b809150505b92915050565b60008083118290611288576040517f08c379a000000000000000000000000000000000000000000000000000000000815260040161127f9190611967565b60405180910390fd5b50600083858161129457fe5b049050809150509392505050565b6112aa6112da565b60405180602001604052806112d0670de0b6b3a7640000856111d190919063ffffffff16565b8152509050919050565b6040518060200160405280600081525090565b6000813590506112fc81611bb8565b92915050565b60008151905061131181611bcf565b92915050565b60006020828403121561132957600080fd5b81905092915050565b60006020828403121561134457600080fd5b61134e6020611aad565b9050600061135e8482850161136a565b60008301525092915050565b60008135905061137981611be6565b92915050565b60008151905061138e81611be6565b92915050565b6000602082840312156113a657600080fd5b60006113b4848285016112ed565b91505092915050565b600080604083850312156113d057600080fd5b60006113de858286016112ed565b92505060206113ef85828601611332565b9150509250929050565b6000806040838503121561140c57600080fd5b600061141a858286016112ed565b925050602061142b8582860161136a565b9150509250929050565b60006020828403121561144757600080fd5b600061145584828501611302565b91505092915050565b60006020828403121561147057600080fd5b600061147e84828501611332565b91505092915050565b60006020828403121561149957600080fd5b60006114a78482850161136a565b91505092915050565b6000602082840312156114c257600080fd5b60006114d08482850161137f565b91505092915050565b600080604083850312156114ec57600080fd5b60006114fa8582860161136a565b925050602061150b858286016112ed565b9150509250929050565b60008060006060848603121561152a57600080fd5b60006115388682870161136a565b93505060206115498682870161136a565b925050604061155a86828701611317565b9150509250925092565b61156d81611b3e565b82525050565b61157c81611af6565b82525050565b61158b81611b08565b82525050565b600061159c82611ada565b6115a68185611ae5565b93506115b6818560208601611b74565b6115bf81611ba7565b840191505092915050565b60006115d7602f83611ae5565b91507f4d7573742062652063616c6c6564206f6e20616e20696e697469616c697a656460008301527f204578636c757369766520726f6c6500000000000000000000000000000000006020830152604082019050919050565b600061163d602c83611ae5565b91507f4d7573742062652063616c6c6564206f6e20616e20696e697469616c697a656460008301527f2053686172656420726f6c6500000000000000000000000000000000000000006020830152604082019050919050565b60006116a3602283611ae5565b91507f53656e64657220646f6573206e6f7420686f6c6420726571756972656420726f60008301527f6c650000000000000000000000000000000000000000000000000000000000006020830152604082019050919050565b6000611709602183611ae5565b91507f536166654d6174683a206d756c7469706c69636174696f6e206f766572666c6f60008301527f77000000000000000000000000000000000000000000000000000000000000006020830152604082019050919050565b600061176f602383611ae5565b91507f43616e6e6f742073657420616e206578636c757369766520726f6c6520746f2060008301527f30783000000000000000000000000000000000000000000000000000000000006020830152604082019050919050565b60006117d5602483611ae5565b91507f43616e206f6e6c792062652063616c6c6564206279206120726f6c65206d616e60008301527f61676572000000000000000000000000000000000000000000000000000000006020830152604082019050919050565b600061183b600e83611ae5565b91507f496e76616c696420726f6c6549640000000000000000000000000000000000006000830152602082019050919050565b602082016000820151611884600085018261188a565b50505050565b61189381611b34565b82525050565b6118a281611b34565b82525050565b60006020820190506118bd6000830184611573565b92915050565b60006040820190506118d86000830185611564565b6118e56020830184611573565b9392505050565b60006060820190506119016000830186611564565b61190e6020830185611573565b61191b6040830184611899565b949350505050565b60006040820190506119386000830185611564565b6119456020830184611899565b9392505050565b60006020820190506119616000830184611582565b92915050565b600060208201905081810360008301526119818184611591565b905092915050565b600060208201905081810360008301526119a2816115ca565b9050919050565b600060208201905081810360008301526119c281611630565b9050919050565b600060208201905081810360008301526119e281611696565b9050919050565b60006020820190508181036000830152611a02816116fc565b9050919050565b60006020820190508181036000830152611a2281611762565b9050919050565b60006020820190508181036000830152611a42816117c8565b9050919050565b60006020820190508181036000830152611a628161182e565b9050919050565b6000602082019050611a7e600083018461186e565b92915050565b6000604082019050611a99600083018561186e565b611aa6602083018461186e565b9392505050565b6000604051905081810181811067ffffffffffffffff82111715611ad057600080fd5b8060405250919050565b600081519050919050565b600082825260208201905092915050565b6000611b0182611b14565b9050919050565b60008115159050919050565b600073ffffffffffffffffffffffffffffffffffffffff82169050919050565b6000819050919050565b6000611b4982611b50565b9050919050565b6000611b5b82611b62565b9050919050565b6000611b6d82611b14565b9050919050565b60005b83811015611b92578082015181840152602081019050611b77565b83811115611ba1576000848401525b50505050565b6000601f19601f8301169050919050565b611bc181611af6565b8114611bcc57600080fd5b50565b611bd881611b08565b8114611be357600080fd5b50565b611bef81611b34565b8114611bfa57600080fd5b50565b611c0782826110bf565b505056fea365627a7a72315820fecaac3b04219530b40b9d8ccee382dc002faf852714a21456ca39e6f7c276376c6578706572696d656e74616cf564736f6c634300050d0040",
  "source": "pragma solidity ^0.5.0;\npragma experimental ABIEncoderV2;\n\nimport \"@openzeppelin/contracts/math/SafeMath.sol\";\nimport \"./StoreInterface.sol\";\nimport \"./Withdrawable.sol\";\nimport \"./FixedPoint.sol\";\nimport \"./MultiRole.sol\";\n\n\n/** \n * @title An implementation of StoreInterface that can accept Oracle fees in ETH or any arbitrary ERC20 token.\n */\ncontract Store is StoreInterface, MultiRole, Withdrawable {\n\n    using SafeMath for uint;\n    using FixedPoint for FixedPoint.Unsigned;\n    using FixedPoint for uint;\n\n    enum Roles {\n        Owner,\n        Withdrawer\n    }\n\n    FixedPoint.Unsigned private fixedOracleFeePerSecond; // Percentage of 1 E.g., .1 is 10% Oracle fee.\n\n    FixedPoint.Unsigned private weeklyDelayFee; // Percentage of 1 E.g., .1 is 10% weekly delay fee.\n    mapping(address => FixedPoint.Unsigned) private finalFees;\n    uint private constant SECONDS_PER_WEEK = 604800;\n\n    event NewFixedOracleFeePerSecond(FixedPoint.Unsigned newOracleFee);\n\n    constructor() public {\n        _createExclusiveRole(uint(Roles.Owner), uint(Roles.Owner), msg.sender);\n        createWithdrawRole(uint(Roles.Withdrawer), uint(Roles.Owner), msg.sender);\n    }\n\n    function payOracleFees() external payable {\n        require(msg.value > 0);\n    }\n\n    function payOracleFeesErc20(address erc20Address) external {\n        IERC20 erc20 = IERC20(erc20Address);\n        uint authorizedAmount = erc20.allowance(msg.sender, address(this));\n        require(authorizedAmount > 0);\n        require(erc20.transferFrom(msg.sender, address(this), authorizedAmount));\n    }\n\n    function computeRegularFee(uint startTime, uint endTime, FixedPoint.Unsigned calldata pfc) \n        external \n        view \n        returns (FixedPoint.Unsigned memory regularFee, FixedPoint.Unsigned memory latePenalty) \n    {\n        uint timeDiff = endTime.sub(startTime);\n\n        // Multiply by the unscaled `timeDiff` first, to get more accurate results.\n        regularFee = pfc.mul(timeDiff).mul(fixedOracleFeePerSecond);\n        // `weeklyDelayFee` is already scaled up.\n        latePenalty = pfc.mul(weeklyDelayFee.mul(timeDiff.div(SECONDS_PER_WEEK)));\n\n        return (regularFee, latePenalty);\n    }\n\n    function computeFinalFee(address currency) \n        external \n        view \n        returns (FixedPoint.Unsigned memory finalFee) \n    {\n        finalFee = finalFees[currency];\n    }\n\n    /**\n     * @dev Sets a new oracle fee per second\n     */ \n    function setFixedOracleFeePerSecond(FixedPoint.Unsigned memory newOracleFee) \n        public \n        onlyRoleHolder(uint(Roles.Owner)) \n    {\n        // Oracle fees at or over 100% don't make sense.\n        require(newOracleFee.isLessThan(1));\n        fixedOracleFeePerSecond = newOracleFee;\n        emit NewFixedOracleFeePerSecond(newOracleFee);\n    }\n\n    /**\n     * @dev Sets a new weekly delay fee\n     */ \n    function setWeeklyDelayFee(FixedPoint.Unsigned memory newWeeklyDelayFee) \n        public \n        onlyRoleHolder(uint(Roles.Owner)) \n    {\n        weeklyDelayFee = newWeeklyDelayFee;\n    }\n\n    /**\n     * @dev Sets a new final fee for a particular currency\n     */ \n    function setFinalFee(address currency, FixedPoint.Unsigned memory finalFee) \n        public \n        onlyRoleHolder(uint(Roles.Owner))\n    {\n        finalFees[currency] = finalFee;\n    }\n}\n",
  "sourcePath": "/Users/ptare/protocol/core/contracts/Store.sol",
  "compiler": {
    "name": "solc",
    "version": "0.5.13+commit.5b0b510c.Emscripten.clang"
  },
  "schemaVersion": "3.0.19",
  "updatedAt": "2019-12-20T16:30:01.760Z",
  "networkType": "ethereum",
  "devdoc": {
    "methods": {
      "addMember(uint256,address)": {
        "details": "Reverts if `roleId` does not represent an initialized, shared role or if the caller is not a member of the managing role for `roleId`."
      },
      "getMember(uint256)": {
        "details": "Reverts if `roleId` does not represent an initialized, exclusive role."
      },
      "holdsRole(uint256,address)": {
        "details": "Reverts if roleId does not correspond to an initialized role."
      },
      "removeMember(uint256,address)": {
        "details": "Reverts if `roleId` does not represent an initialized, shared role or if the caller is not a member of the managing role for `roleId`."
      },
      "resetMember(uint256,address)": {
        "details": "Reverts if the caller is not a member of the managing role for `roleId` or if `roleId` is not an initialized, exclusive role."
      },
      "setFinalFee(address,(uint256))": {
        "details": "Sets a new final fee for a particular currency"
      },
      "setFixedOracleFeePerSecond((uint256))": {
        "details": "Sets a new oracle fee per second"
      },
      "setWeeklyDelayFee((uint256))": {
        "details": "Sets a new weekly delay fee"
      }
    },
    "title": "An implementation of StoreInterface that can accept Oracle fees in ETH or any arbitrary ERC20 token."
  },
  "userdoc": {
    "methods": {
      "addMember(uint256,address)": {
        "notice": "Adds `newMember` to the shared role, `roleId`."
      },
      "getMember(uint256)": {
        "notice": "Gets the current holder of the exclusive role, `roleId`."
      },
      "holdsRole(uint256,address)": {
        "notice": "Whether `memberToCheck` is a member of roleId."
      },
      "removeMember(uint256,address)": {
        "notice": "Removes `memberToRemove` from the shared role, `roleId`."
      },
      "resetMember(uint256,address)": {
        "notice": "Changes the exclusive role holder of `roleId` to `newMember`."
      },
      "withdraw(uint256)": {
        "notice": "Withdraws ETH from the contract."
      },
      "withdrawErc20(address,uint256)": {
        "notice": "Withdraws ERC20 tokens from the contract."
      }
    }
  }
}