{
  "contractName": "TokenizedDerivativeCreator",
  "abi": [
    {
      "inputs": [
        {
          "internalType": "address",
          "name": "_finderAddress",
          "type": "address"
        },
        {
          "internalType": "address",
          "name": "_returnCalculatorWhitelist",
          "type": "address"
        },
        {
          "internalType": "address",
          "name": "_marginCurrencyWhitelist",
          "type": "address"
        },
        {
          "internalType": "bool",
          "name": "_isTest",
          "type": "bool"
        }
      ],
      "payable": false,
      "stateMutability": "nonpayable",
      "type": "constructor"
    },
    {
      "anonymous": false,
      "inputs": [
        {
          "indexed": false,
          "internalType": "address",
          "name": "contractAddress",
          "type": "address"
        }
      ],
      "name": "CreatedTokenizedDerivative",
      "type": "event"
    },
    {
      "constant": true,
      "inputs": [],
      "name": "getCurrentTime",
      "outputs": [
        {
          "internalType": "uint256",
          "name": "",
          "type": "uint256"
        }
      ],
      "payable": false,
      "stateMutability": "view",
      "type": "function"
    },
    {
      "constant": true,
      "inputs": [],
      "name": "isTest",
      "outputs": [
        {
          "internalType": "bool",
          "name": "",
          "type": "bool"
        }
      ],
      "payable": false,
      "stateMutability": "view",
      "type": "function"
    },
    {
      "constant": true,
      "inputs": [],
      "name": "marginCurrencyWhitelist",
      "outputs": [
        {
          "internalType": "contract AddressWhitelist",
          "name": "",
          "type": "address"
        }
      ],
      "payable": false,
      "stateMutability": "view",
      "type": "function"
    },
    {
      "constant": true,
      "inputs": [],
      "name": "returnCalculatorWhitelist",
      "outputs": [
        {
          "internalType": "contract AddressWhitelist",
          "name": "",
          "type": "address"
        }
      ],
      "payable": false,
      "stateMutability": "view",
      "type": "function"
    },
    {
      "constant": false,
      "inputs": [
        {
          "internalType": "uint256",
          "name": "_time",
          "type": "uint256"
        }
      ],
      "name": "setCurrentTime",
      "outputs": [],
      "payable": false,
      "stateMutability": "nonpayable",
      "type": "function"
    },
    {
      "constant": false,
      "inputs": [
        {
          "components": [
            {
              "internalType": "address",
              "name": "priceFeedAddress",
              "type": "address"
            },
            {
              "internalType": "uint256",
              "name": "defaultPenalty",
              "type": "uint256"
            },
            {
              "internalType": "uint256",
              "name": "supportedMove",
              "type": "uint256"
            },
            {
              "internalType": "bytes32",
              "name": "product",
              "type": "bytes32"
            },
            {
              "internalType": "uint256",
              "name": "fixedYearlyFee",
              "type": "uint256"
            },
            {
              "internalType": "uint256",
              "name": "disputeDeposit",
              "type": "uint256"
            },
            {
              "internalType": "address",
              "name": "returnCalculator",
              "type": "address"
            },
            {
              "internalType": "uint256",
              "name": "startingTokenPrice",
              "type": "uint256"
            },
            {
              "internalType": "uint256",
              "name": "expiry",
              "type": "uint256"
            },
            {
              "internalType": "address",
              "name": "marginCurrency",
              "type": "address"
            },
            {
              "internalType": "uint256",
              "name": "withdrawLimit",
              "type": "uint256"
            },
            {
              "internalType": "enum TokenizedDerivativeParams.ReturnType",
              "name": "returnType",
              "type": "uint8"
            },
            {
              "internalType": "uint256",
              "name": "startingUnderlyingPrice",
              "type": "uint256"
            },
            {
              "internalType": "string",
              "name": "name",
              "type": "string"
            },
            {
              "internalType": "string",
              "name": "symbol",
              "type": "string"
            }
          ],
          "internalType": "struct TokenizedDerivativeCreator.Params",
          "name": "params",
          "type": "tuple"
        }
      ],
      "name": "createTokenizedDerivative",
      "outputs": [
        {
          "internalType": "address",
          "name": "derivativeAddress",
          "type": "address"
        }
      ],
      "payable": false,
      "stateMutability": "nonpayable",
      "type": "function"
    }
  ],
  "bytecode": "0x60806040523480156200001157600080fd5b5060405162004ec438038062004ec483398181016040526200003791908101906200015e565b8084806000806101000a81548173ffffffffffffffffffffffffffffffffffffffff021916908373ffffffffffffffffffffffffffffffffffffffff1602179055505080600060146101000a81548160ff0219169083151502179055508015620000a357426001819055505b5082600260006101000a81548173ffffffffffffffffffffffffffffffffffffffff021916908373ffffffffffffffffffffffffffffffffffffffff16021790555081600360006101000a81548173ffffffffffffffffffffffffffffffffffffffff021916908373ffffffffffffffffffffffffffffffffffffffff160217905550505050506200023e565b60008151905062000141816200020a565b92915050565b600081519050620001588162000224565b92915050565b600080600080608085870312156200017557600080fd5b6000620001858782880162000130565b9450506020620001988782880162000130565b9350506040620001ab8782880162000130565b9250506060620001be8782880162000147565b91505092959194509250565b6000620001d782620001ea565b9050919050565b60008115159050919050565b600073ffffffffffffffffffffffffffffffffffffffff82169050919050565b6200021581620001ca565b81146200022157600080fd5b50565b6200022f81620001de565b81146200023b57600080fd5b50565b614c76806200024e6000396000f3fe60806040523480156200001157600080fd5b50600436106200006a5760003560e01c806322f8e566146200006f57806329cb924d146200008f578063415b725114620000b15780639381a34514620000d3578063966a67dd14620000f5578063aec238491462000117575b600080fd5b6200008d600480360362000087919081019062000c4a565b6200014d565b005b6200009962000171565b604051620000a8919062001034565b60405180910390f35b620000bb6200019a565b604051620000ca919062000fc9565b60405180910390f35b620000dd620001c0565b604051620000ec919062000f8f565b60405180910390f35b620000ff620001d3565b6040516200010e919062000fc9565b60405180910390f35b6200013560048036036200012f919081019062000c05565b620001f9565b60405162000144919062000f3e565b60405180910390f35b600060149054906101000a900460ff166200016757600080fd5b8060018190555050565b60008060149054906101000a900460ff16156200019357600154905062000197565b4290505b90565b600360009054906101000a900473ffffffffffffffffffffffffffffffffffffffff1681565b600060149054906101000a900460ff1681565b600260009054906101000a900473ffffffffffffffffffffffffffffffffffffffff1681565b60008062000207836200031d565b836101a00151846101c0015160405162000221906200080c565b6200022f9392919062000fe6565b604051809103906000f0801580156200024c573d6000803e3d6000fd5b50905060606001604051908082528060200260200182016040528015620002825781602001602082028038833980820191505090505b50905033816000815181106200029457fe5b602002602001019073ffffffffffffffffffffffffffffffffffffffff16908173ffffffffffffffffffffffffffffffffffffffff1681525050620002da8183620006b6565b7ff662f8b1426e949f451eda394771fcd3d09da20372cd77bfc715e2dc6affbf92826040516200030b919062000f3e565b60405180910390a18192505050919050565b620003276200081a565b33816000019073ffffffffffffffffffffffffffffffffffffffff16908173ffffffffffffffffffffffffffffffffffffffff1681525050600260009054906101000a900473ffffffffffffffffffffffffffffffffffffffff1673ffffffffffffffffffffffffffffffffffffffff16633a3ab6728360c001516040518263ffffffff1660e01b8152600401620003c0919062000f3e565b60206040518083038186803b158015620003d957600080fd5b505afa158015620003ee573d6000803e3d6000fd5b505050506040513d601f19601f8201168201806040525062000414919081019062000bd9565b6200041e57600080fd5b8160c0015181610100019073ffffffffffffffffffffffffffffffffffffffff16908173ffffffffffffffffffffffffffffffffffffffff1681525050600360009054906101000a900473ffffffffffffffffffffffffffffffffffffffff1673ffffffffffffffffffffffffffffffffffffffff16633a3ab6728361012001516040518263ffffffff1660e01b8152600401620004bd919062000f3e565b60206040518083038186803b158015620004d657600080fd5b505afa158015620004eb573d6000803e3d6000fd5b505050506040513d601f19601f8201168201806040525062000511919081019062000bd9565b6200051b57600080fd5b81610120015181610160019073ffffffffffffffffffffffffffffffffffffffff16908173ffffffffffffffffffffffffffffffffffffffff16815250508160000151816040019073ffffffffffffffffffffffffffffffffffffffff16908173ffffffffffffffffffffffffffffffffffffffff16815250508160200151816060018181525050816040015181608001818152505081606001518160a001818152505081608001518160c00181815250508160a001518160e00181815250508160e00151816101200181815250508161010001518161014001818152505081610140015181610180018181525050816101600151816101a0019060018111156200062257fe5b908160018111156200063057fe5b81525050816101800151816101c00181815250506000809054906101000a900473ffffffffffffffffffffffffffffffffffffffff16816020019073ffffffffffffffffffffffffffffffffffffffff16908173ffffffffffffffffffffffffffffffffffffffff1681525050620006a762000171565b816101e0018181525050919050565b60008060009054906101000a900473ffffffffffffffffffffffffffffffffffffffff16905060007f5265676973747279000000000000000000000000000000000000000000000000905060008273ffffffffffffffffffffffffffffffffffffffff1663aafd5e40836040518263ffffffff1660e01b81526004016200073e919062000fac565b60206040518083038186803b1580156200075757600080fd5b505afa1580156200076c573d6000803e3d6000fd5b505050506040513d601f19601f8201168201806040525062000792919081019062000bad565b90508073ffffffffffffffffffffffffffffffffffffffff16638014b1dc86866040518363ffffffff1660e01b8152600401620007d192919062000f5b565b600060405180830381600087803b158015620007ec57600080fd5b505af115801562000801573d6000803e3d6000fd5b505050505050505050565b6139b0806200128483390190565b604051806102000160405280600073ffffffffffffffffffffffffffffffffffffffff168152602001600073ffffffffffffffffffffffffffffffffffffffff168152602001600073ffffffffffffffffffffffffffffffffffffffff1681526020016000815260200160008152602001600080191681526020016000815260200160008152602001600073ffffffffffffffffffffffffffffffffffffffff1681526020016000815260200160008152602001600073ffffffffffffffffffffffffffffffffffffffff16815260200160008152602001600060018111156200090057fe5b815260200160008152602001600081525090565b60008135905062000925816200120a565b92915050565b6000815190506200093c816200120a565b92915050565b600081519050620009538162001224565b92915050565b6000813590506200096a816200123e565b92915050565b600081359050620009818162001258565b92915050565b600082601f8301126200099957600080fd5b8135620009b0620009aa826200107f565b62001051565b91508082526020830160208301858383011115620009cd57600080fd5b620009da838284620011a6565b50505092915050565b60006101e08284031215620009f757600080fd5b62000a046101e062001051565b9050600062000a168482850162000914565b600083015250602062000a2c8482850162000b96565b602083015250604062000a428482850162000b96565b604083015250606062000a588482850162000959565b606083015250608062000a6e8482850162000b96565b60808301525060a062000a848482850162000b96565b60a08301525060c062000a9a8482850162000914565b60c08301525060e062000ab08482850162000b96565b60e08301525061010062000ac78482850162000b96565b6101008301525061012062000adf8482850162000914565b6101208301525061014062000af78482850162000b96565b6101408301525061016062000b0f8482850162000970565b6101608301525061018062000b278482850162000b96565b610180830152506101a082013567ffffffffffffffff81111562000b4a57600080fd5b62000b588482850162000987565b6101a0830152506101c082013567ffffffffffffffff81111562000b7b57600080fd5b62000b898482850162000987565b6101c08301525092915050565b60008135905062000ba78162001269565b92915050565b60006020828403121562000bc057600080fd5b600062000bd0848285016200092b565b91505092915050565b60006020828403121562000bec57600080fd5b600062000bfc8482850162000942565b91505092915050565b60006020828403121562000c1857600080fd5b600082013567ffffffffffffffff81111562000c3357600080fd5b62000c4184828501620009e3565b91505092915050565b60006020828403121562000c5d57600080fd5b600062000c6d8482850162000b96565b91505092915050565b600062000c84838362000c90565b60208301905092915050565b62000c9b8162001101565b82525050565b62000cac8162001101565b82525050565b600062000cbf82620010bc565b62000ccb8185620010df565b935062000cd883620010ac565b8060005b8381101562000d0f57815162000cf3888262000c76565b975062000d0083620010d2565b92505060018101905062000cdc565b5085935050505092915050565b62000d278162001115565b82525050565b62000d388162001121565b82525050565b62000d498162001121565b82525050565b62000d5a816200116a565b82525050565b62000d6b8162001192565b82525050565b600062000d7e82620010c7565b62000d8a8185620010f0565b935062000d9c818560208601620011b5565b62000da781620011eb565b840191505092915050565b6102008201600082015162000dcb600085018262000c90565b50602082015162000de0602085018262000c90565b50604082015162000df5604085018262000c90565b50606082015162000e0a606085018262000f1c565b50608082015162000e1f608085018262000f1c565b5060a082015162000e3460a085018262000d2d565b5060c082015162000e4960c085018262000f1c565b5060e082015162000e5e60e085018262000f1c565b5061010082015162000e7561010085018262000c90565b5061012082015162000e8c61012085018262000f1c565b5061014082015162000ea361014085018262000f1c565b5061016082015162000eba61016085018262000c90565b5061018082015162000ed161018085018262000f1c565b506101a082015162000ee86101a085018262000d60565b506101c082015162000eff6101c085018262000f1c565b506101e082015162000f166101e085018262000f1c565b50505050565b62000f278162001160565b82525050565b62000f388162001160565b82525050565b600060208201905062000f55600083018462000ca1565b92915050565b6000604082019050818103600083015262000f77818562000cb2565b905062000f88602083018462000ca1565b9392505050565b600060208201905062000fa6600083018462000d1c565b92915050565b600060208201905062000fc3600083018462000d3e565b92915050565b600060208201905062000fe0600083018462000d4f565b92915050565b60006102408201905062000ffe600083018662000db2565b81810361020083015262001013818562000d71565b90508181036102208301526200102a818462000d71565b9050949350505050565b60006020820190506200104b600083018462000f2d565b92915050565b6000604051905081810181811067ffffffffffffffff821117156200107557600080fd5b8060405250919050565b600067ffffffffffffffff8211156200109757600080fd5b601f19601f8301169050602081019050919050565b6000819050602082019050919050565b600081519050919050565b600081519050919050565b6000602082019050919050565b600082825260208201905092915050565b600082825260208201905092915050565b60006200110e8262001140565b9050919050565b60008115159050919050565b6000819050919050565b60008190506200113b82620011fc565b919050565b600073ffffffffffffffffffffffffffffffffffffffff82169050919050565b6000819050919050565b600062001177826200117e565b9050919050565b60006200118b8262001140565b9050919050565b60006200119f826200112b565b9050919050565b82818337600083830152505050565b60005b83811015620011d5578082015181840152602081019050620011b8565b83811115620011e5576000848401525b50505050565b6000601f19601f8301169050919050565b600281106200120757fe5b50565b620012158162001101565b81146200122157600080fd5b50565b6200122f8162001115565b81146200123b57600080fd5b50565b620012498162001121565b81146200125557600080fd5b50565b600281106200126657600080fd5b50565b620012748162001160565b81146200128057600080fd5b5056fe60806040523480156200001157600080fd5b50604051620039b0380380620039b08339818101604052620000379190810190620003e4565b81600390805190602001906200004f929190620000e4565b50806004908051906020019062000068929190620000e4565b50600573__TokenizedDerivativeUtils______________63c5cfad68909185846040518463ffffffff1660e01b8152600401620000a99392919062000665565b60006040518083038186803b158015620000c257600080fd5b505af4158015620000d7573d6000803e3d6000fd5b5050505050505062000847565b828054600181600116156101000203166002900490600052602060002090601f016020900481019282601f106200012757805160ff191683800117855562000158565b8280016001018555821562000158579182015b82811115620001575782518255916020019190600101906200013a565b5b5090506200016791906200016b565b5090565b6200019091905b808211156200018c57600081600090555060010162000172565b5090565b90565b600081519050620001a481620007e8565b92915050565b600081519050620001bb8162000802565b92915050565b600081519050620001d2816200081c565b92915050565b600082601f830112620001ea57600080fd5b815162000201620001fb82620006d9565b620006ab565b915080825260208301602083018583830111156200021e57600080fd5b6200022b83828462000793565b50505092915050565b600061020082840312156200024857600080fd5b62000255610200620006ab565b90506000620002678482850162000193565b60008301525060206200027d8482850162000193565b6020830152506040620002938482850162000193565b6040830152506060620002a984828501620003cd565b6060830152506080620002bf84828501620003cd565b60808301525060a0620002d584828501620001aa565b60a08301525060c0620002eb84828501620003cd565b60c08301525060e06200030184828501620003cd565b60e083015250610100620003188482850162000193565b610100830152506101206200033084828501620003cd565b610120830152506101406200034884828501620003cd565b61014083015250610160620003608482850162000193565b610160830152506101806200037884828501620003cd565b610180830152506101a06200039084828501620001c1565b6101a0830152506101c0620003a884828501620003cd565b6101c0830152506101e0620003c084828501620003cd565b6101e08301525092915050565b600081519050620003de816200082d565b92915050565b60008060006102408486031215620003fb57600080fd5b60006200040b8682870162000234565b93505061020084015167ffffffffffffffff8111156200042a57600080fd5b6200043886828701620001d8565b92505061022084015167ffffffffffffffff8111156200045757600080fd5b6200046586828701620001d8565b9150509250925092565b6200047a8162000722565b82525050565b6200048b8162000736565b82525050565b6200049c816200077f565b82525050565b6000620004af8262000706565b620004bb818562000711565b9350620004cd81856020860162000793565b620004d881620007c9565b840191505092915050565b61020082016000820151620004fc60008501826200046f565b5060208201516200051160208501826200046f565b5060408201516200052660408501826200046f565b5060608201516200053b606085018262000654565b50608082015162000550608085018262000654565b5060a08201516200056560a085018262000480565b5060c08201516200057a60c085018262000654565b5060e08201516200058f60e085018262000654565b50610100820151620005a66101008501826200046f565b50610120820151620005bd61012085018262000654565b50610140820151620005d461014085018262000654565b50610160820151620005eb6101608501826200046f565b506101808201516200060261018085018262000654565b506101a0820151620006196101a085018262000491565b506101c0820151620006306101c085018262000654565b506101e0820151620006476101e085018262000654565b50505050565b8082525050565b6200065f8162000775565b82525050565b6000610240820190506200067d60008301866200064d565b6200068c6020830185620004e3565b818103610220830152620006a18184620004a2565b9050949350505050565b6000604051905081810181811067ffffffffffffffff82111715620006cf57600080fd5b8060405250919050565b600067ffffffffffffffff821115620006f157600080fd5b601f19601f8301169050602081019050919050565b600081519050919050565b600082825260208201905092915050565b60006200072f8262000755565b9050919050565b6000819050919050565b60008190506200075082620007da565b919050565b600073ffffffffffffffffffffffffffffffffffffffff82169050919050565b6000819050919050565b60006200078c8262000740565b9050919050565b60005b83811015620007b357808201518184015260208101905062000796565b83811115620007c3576000848401525b50505050565b6000601f19601f8301169050919050565b60028110620007e557fe5b50565b620007f38162000722565b8114620007ff57600080fd5b50565b6200080d8162000736565b81146200081957600080fd5b50565b600281106200082a57600080fd5b50565b620008388162000775565b81146200084457600080fd5b50565b61315980620008576000396000f3fe6080604052600436106101ee5760003560e01c806342966c681161010d578063b6b55f25116100a0578063c7af29a91161006f578063c7af29a91461069a578063dd62ed3e146106c5578063e14e42da14610702578063e39dd93a1461072e578063f3f75c0614610759576101ee565b8063b6b55f2514610622578063b82b9ff61461063e578063bda02e771461065a578063c596481714610671576101ee565b806395d89b41116100dc57806395d89b4114610554578063a457c2d71461057f578063a6e158f8146105bc578063a9059cbb146105e5576101ee565b806342966c68146104a75780636074785a146104d057806370a08231146104fb57806386d6282c14610538576101ee565b80632e1a7d4d11610185578063395093511161015457806339509351146103db5780633c6ee392146104185780633e1700a71461043457806340c10f191461046a576101ee565b80632e1a7d4d14610345578063313ce5671461036e5780633327570b146103995780633403c2fc146103c4576101ee565b806318160ddd116101c157806318160ddd146102895780631c93cd75146102b4578063211339f8146102dd57806323b872dd14610308576101ee565b806306fdde03146101f3578063095ea7b31461021e57806311da60b41461025b578063156c87fb14610272575b600080fd5b3480156101ff57600080fd5b50610208610784565b6040516102159190612b51565b60405180910390f35b34801561022a57600080fd5b50610245600480360361024091908101906123ae565b610822565b6040516102529190612af2565b60405180910390f35b34801561026757600080fd5b50610270610840565b005b34801561027e57600080fd5b506102876108ac565b005b34801561029557600080fd5b5061029e610918565b6040516102ab9190612e16565b60405180910390f35b3480156102c057600080fd5b506102db60048036036102d691908101906122fa565b610922565b005b3480156102e957600080fd5b506102f2610991565b6040516102ff9190612b0d565b60405180910390f35b34801561031457600080fd5b5061032f600480360361032a919081019061235f565b610a22565b60405161033c9190612af2565b60405180910390f35b34801561035157600080fd5b5061036c60048036036103679190810190612478565b610afb565b005b34801561037a57600080fd5b50610383610b6a565b6040516103909190612e31565b60405180910390f35b3480156103a557600080fd5b506103ae610b6f565b6040516103bb9190612b0d565b60405180910390f35b3480156103d057600080fd5b506103d9610c00565b005b3480156103e757600080fd5b5061040260048036036103fd91908101906123ae565b610c6c565b60405161040f9190612af2565b60405180910390f35b610432600480360361042d91908101906124a1565b610d1f565b005b34801561044057600080fd5b50610449610d91565b6040516104619c9b9a99989796959493929190612c75565b60405180910390f35b34801561047657600080fd5b50610491600480360361048c91908101906123ae565b6111b0565b60405161049e9190612af2565b60405180910390f35b3480156104b357600080fd5b506104ce60048036036104c99190810190612478565b6111fe565b005b3480156104dc57600080fd5b506104e5611243565b6040516104f29190612b0d565b60405180910390f35b34801561050757600080fd5b50610522600480360361051d91908101906122fa565b6112d4565b60405161052f9190612e16565b60405180910390f35b610552600480360361054d9190810190612478565b61131c565b005b34801561056057600080fd5b5061056961138b565b6040516105769190612b51565b60405180910390f35b34801561058b57600080fd5b506105a660048036036105a191908101906123ae565b611429565b6040516105b39190612af2565b60405180910390f35b3480156105c857600080fd5b506105e360048036036105de9190810190612478565b6114f6565b005b3480156105f157600080fd5b5061060c600480360361060791908101906123ae565b611565565b6040516106199190612af2565b60405180910390f35b61063c60048036036106379190810190612478565b611583565b005b610658600480360361065391908101906124a1565b6115f2565b005b34801561066657600080fd5b5061066f611664565b005b34801561067d57600080fd5b50610698600480360361069391908101906123ae565b6116d0565b005b3480156106a657600080fd5b506106af611742565b6040516106bc9190612b0d565b60405180910390f35b3480156106d157600080fd5b506106ec60048036036106e79190810190612323565b6117d3565b6040516106f99190612e16565b60405180910390f35b34801561070e57600080fd5b5061071761185a565b604051610725929190612b28565b60405180910390f35b34801561073a57600080fd5b506107436118ee565b6040516107509190612b0d565b60405180910390f35b34801561076557600080fd5b5061076e61197f565b60405161077b9190612af2565b60405180910390f35b60038054600181600116156101000203166002900480601f01602080910402602001604051908101604052809291908181526020018280546001816001161561010002031660029004801561081a5780601f106107ef5761010080835404028352916020019161081a565b820191906000526020600020905b8154815290600101906020018083116107fd57829003601f168201915b505050505081565b600061083661082f611a10565b8484611a18565b6001905092915050565b600573__TokenizedDerivativeUtils______________639f3f1bde90916040518263ffffffff1660e01b815260040161087a9190612d3b565b60006040518083038186803b15801561089257600080fd5b505af41580156108a6573d6000803e3d6000fd5b50505050565b600573__TokenizedDerivativeUtils______________63d658d7ea90916040518263ffffffff1660e01b81526004016108e69190612d3b565b60006040518083038186803b1580156108fe57600080fd5b505af4158015610912573d6000803e3d6000fd5b50505050565b6000600254905090565b600573__TokenizedDerivativeUtils______________63e11e62579091836040518363ffffffff1660e01b815260040161095e929190612d56565b60006040518083038186803b15801561097657600080fd5b505af415801561098a573d6000803e3d6000fd5b5050505050565b6000600573__TokenizedDerivativeUtils______________634b26eb4690916040518263ffffffff1660e01b81526004016109cd9190612d3b565b60206040518083038186803b1580156109e557600080fd5b505af41580156109f9573d6000803e3d6000fd5b505050506040513d601f19601f82011682018060405250610a1d9190810190612413565b905090565b6000610a2f848484611be3565b610af084610a3b611a10565b610aeb856040518060600160405280602881526020016130ca60289139600160008b73ffffffffffffffffffffffffffffffffffffffff1673ffffffffffffffffffffffffffffffffffffffff1681526020019081526020016000206000610aa1611a10565b73ffffffffffffffffffffffffffffffffffffffff1673ffffffffffffffffffffffffffffffffffffffff16815260200190815260200160002054611e6d9092919063ffffffff16565b611a18565b600190509392505050565b600573__TokenizedDerivativeUtils______________63360215799091836040518363ffffffff1660e01b8152600401610b37929190612db6565b60006040518083038186803b158015610b4f57600080fd5b505af4158015610b63573d6000803e3d6000fd5b5050505050565b601281565b6000600573__TokenizedDerivativeUtils______________636663de9690916040518263ffffffff1660e01b8152600401610bab9190612d3b565b60206040518083038186803b158015610bc357600080fd5b505af4158015610bd7573d6000803e3d6000fd5b505050506040513d601f19601f82011682018060405250610bfb9190810190612413565b905090565b600573__TokenizedDerivativeUtils______________6324477be890916040518263ffffffff1660e01b8152600401610c3a9190612d3b565b60006040518083038186803b158015610c5257600080fd5b505af4158015610c66573d6000803e3d6000fd5b50505050565b6000610d15610c79611a10565b84610d108560016000610c8a611a10565b73ffffffffffffffffffffffffffffffffffffffff1673ffffffffffffffffffffffffffffffffffffffff16815260200190815260200160002060008973ffffffffffffffffffffffffffffffffffffffff1673ffffffffffffffffffffffffffffffffffffffff16815260200190815260200160002054611ec890919063ffffffff16565b611a18565b6001905092915050565b600573__TokenizedDerivativeUtils______________630a4a5b76909184846040518463ffffffff1660e01b8152600401610d5d93929190612ddf565b60006040518083038186803b158015610d7557600080fd5b505af4158015610d89573d6000803e3d6000fd5b505050505050565b600580600001604051806101400160405290816000820154815260200160018201548152602001600282015481526020016003820154815260200160048201548152602001600582015481526020016006820160009054906101000a900460ff166001811115610dfd57fe5b6001811115610e0857fe5b81526020016007820154815260200160088201548152602001600982018054600181600116156101000203166002900480601f016020809104026020016040519081016040528092919081815260200182805460018160011615610100020316600290048015610eb95780601f10610e8e57610100808354040283529160200191610eb9565b820191906000526020600020905b815481529060010190602001808311610e9c57829003601f168201915b5050505050815250509080600a016040518060c00160405290816000820160009054906101000a900473ffffffffffffffffffffffffffffffffffffffff1673ffffffffffffffffffffffffffffffffffffffff1673ffffffffffffffffffffffffffffffffffffffff1681526020016001820160009054906101000a900473ffffffffffffffffffffffffffffffffffffffff1673ffffffffffffffffffffffffffffffffffffffff1673ffffffffffffffffffffffffffffffffffffffff1681526020016002820160009054906101000a900473ffffffffffffffffffffffffffffffffffffffff1673ffffffffffffffffffffffffffffffffffffffff1673ffffffffffffffffffffffffffffffffffffffff1681526020016003820160009054906101000a900473ffffffffffffffffffffffffffffffffffffffff1673ffffffffffffffffffffffffffffffffffffffff1673ffffffffffffffffffffffffffffffffffffffff1681526020016004820160009054906101000a900473ffffffffffffffffffffffffffffffffffffffff1673ffffffffffffffffffffffffffffffffffffffff1673ffffffffffffffffffffffffffffffffffffffff1681526020016005820160009054906101000a900473ffffffffffffffffffffffffffffffffffffffff1673ffffffffffffffffffffffffffffffffffffffff1673ffffffffffffffffffffffffffffffffffffffff1681525050908060100154908060110154908060120160009054906101000a900460ff1690806013015490806014016040518060600160405290816000820154815260200160018201548152602001600282015481525050908060170160405180606001604052908160008201548152602001600182015481526020016002820154815250509080601a01549080601b01604051806040016040529081600082015481526020016001820154815250509080601d01549080601e016040518060400160405290816000820154815260200160018201548152505090508c565b60003073ffffffffffffffffffffffffffffffffffffffff163373ffffffffffffffffffffffffffffffffffffffff16146111ea57600080fd5b6111f48383611f1d565b6001905092915050565b3073ffffffffffffffffffffffffffffffffffffffff163373ffffffffffffffffffffffffffffffffffffffff161461123657600080fd5b61124033826120a5565b50565b6000600573__TokenizedDerivativeUtils______________639545a37e90916040518263ffffffff1660e01b815260040161127f9190612d3b565b60206040518083038186803b15801561129757600080fd5b505af41580156112ab573d6000803e3d6000fd5b505050506040513d601f19601f820116820180604052506112cf9190810190612413565b905090565b60008060008373ffffffffffffffffffffffffffffffffffffffff1673ffffffffffffffffffffffffffffffffffffffff168152602001908152602001600020549050919050565b600573__TokenizedDerivativeUtils______________630806c1939091836040518363ffffffff1660e01b8152600401611358929190612db6565b60006040518083038186803b15801561137057600080fd5b505af4158015611384573d6000803e3d6000fd5b5050505050565b60048054600181600116156101000203166002900480601f0160208091040260200160405190810160405280929190818152602001828054600181600116156101000203166002900480156114215780601f106113f657610100808354040283529160200191611421565b820191906000526020600020905b81548152906001019060200180831161140457829003601f168201915b505050505081565b60006114ec611436611a10565b846114e7856040518060600160405280602581526020016130f26025913960016000611460611a10565b73ffffffffffffffffffffffffffffffffffffffff1673ffffffffffffffffffffffffffffffffffffffff16815260200190815260200160002060008a73ffffffffffffffffffffffffffffffffffffffff1673ffffffffffffffffffffffffffffffffffffffff16815260200190815260200160002054611e6d9092919063ffffffff16565b611a18565b6001905092915050565b600573__TokenizedDerivativeUtils______________630a5c47099091836040518363ffffffff1660e01b8152600401611532929190612db6565b60006040518083038186803b15801561154a57600080fd5b505af415801561155e573d6000803e3d6000fd5b5050505050565b6000611579611572611a10565b8484611be3565b6001905092915050565b600573__TokenizedDerivativeUtils______________63db2fa4249091836040518363ffffffff1660e01b81526004016115bf929190612db6565b60006040518083038186803b1580156115d757600080fd5b505af41580156115eb573d6000803e3d6000fd5b5050505050565b600573__TokenizedDerivativeUtils______________63c31671ff909184846040518463ffffffff1660e01b815260040161163093929190612ddf565b60006040518083038186803b15801561164857600080fd5b505af415801561165c573d6000803e3d6000fd5b505050505050565b600573__TokenizedDerivativeUtils______________633cd450dd90916040518263ffffffff1660e01b815260040161169e9190612d3b565b60006040518083038186803b1580156116b657600080fd5b505af41580156116ca573d6000803e3d6000fd5b50505050565b600573__TokenizedDerivativeUtils______________63c866ede8909184846040518463ffffffff1660e01b815260040161170e93929190612d7f565b60006040518083038186803b15801561172657600080fd5b505af415801561173a573d6000803e3d6000fd5b505050505050565b6000600573__TokenizedDerivativeUtils______________6355108c0290916040518263ffffffff1660e01b815260040161177e9190612d3b565b60206040518083038186803b15801561179657600080fd5b505af41580156117aa573d6000803e3d6000fd5b505050506040513d601f19601f820116820180604052506117ce9190810190612413565b905090565b6000600160008473ffffffffffffffffffffffffffffffffffffffff1673ffffffffffffffffffffffffffffffffffffffff16815260200190815260200160002060008373ffffffffffffffffffffffffffffffffffffffff1673ffffffffffffffffffffffffffffffffffffffff16815260200190815260200160002054905092915050565b600080600573__TokenizedDerivativeUtils______________638ce27c3f90916040518263ffffffff1660e01b81526004016118979190612d3b565b604080518083038186803b1580156118ae57600080fd5b505af41580156118c2573d6000803e3d6000fd5b505050506040513d601f19601f820116820180604052506118e6919081019061243c565b915091509091565b6000600573__TokenizedDerivativeUtils______________637dfedadb90916040518263ffffffff1660e01b815260040161192a9190612d3b565b60206040518083038186803b15801561194257600080fd5b505af4158015611956573d6000803e3d6000fd5b505050506040513d601f19601f8201168201806040525061197a9190810190612413565b905090565b6000600573__TokenizedDerivativeUtils______________632bf6109490916040518263ffffffff1660e01b81526004016119bb9190612d3b565b60206040518083038186803b1580156119d357600080fd5b505af41580156119e7573d6000803e3d6000fd5b505050506040513d601f19601f82011682018060405250611a0b91908101906123ea565b905090565b600033905090565b600073ffffffffffffffffffffffffffffffffffffffff168373ffffffffffffffffffffffffffffffffffffffff161415611a88576040517f08c379a0000000000000000000000000000000000000000000000000000000008152600401611a7f90612c35565b60405180910390fd5b600073ffffffffffffffffffffffffffffffffffffffff168273ffffffffffffffffffffffffffffffffffffffff161415611af8576040517f08c379a0000000000000000000000000000000000000000000000000000000008152600401611aef90612bb5565b60405180910390fd5b80600160008573ffffffffffffffffffffffffffffffffffffffff1673ffffffffffffffffffffffffffffffffffffffff16815260200190815260200160002060008473ffffffffffffffffffffffffffffffffffffffff1673ffffffffffffffffffffffffffffffffffffffff168152602001908152602001600020819055508173ffffffffffffffffffffffffffffffffffffffff168373ffffffffffffffffffffffffffffffffffffffff167f8c5be1e5ebec7d5bd14f71427d1e84f3dd0314c0f7b2291e5b200ac8c7c3b92583604051611bd69190612e16565b60405180910390a3505050565b600073ffffffffffffffffffffffffffffffffffffffff168373ffffffffffffffffffffffffffffffffffffffff161415611c53576040517f08c379a0000000000000000000000000000000000000000000000000000000008152600401611c4a90612c15565b60405180910390fd5b600073ffffffffffffffffffffffffffffffffffffffff168273ffffffffffffffffffffffffffffffffffffffff161415611cc3576040517f08c379a0000000000000000000000000000000000000000000000000000000008152600401611cba90612b95565b60405180910390fd5b611d2e816040518060600160405280602681526020016130a4602691396000808773ffffffffffffffffffffffffffffffffffffffff1673ffffffffffffffffffffffffffffffffffffffff16815260200190815260200160002054611e6d9092919063ffffffff16565b6000808573ffffffffffffffffffffffffffffffffffffffff1673ffffffffffffffffffffffffffffffffffffffff16815260200190815260200160002081905550611dc1816000808573ffffffffffffffffffffffffffffffffffffffff1673ffffffffffffffffffffffffffffffffffffffff16815260200190815260200160002054611ec890919063ffffffff16565b6000808473ffffffffffffffffffffffffffffffffffffffff1673ffffffffffffffffffffffffffffffffffffffff168152602001908152602001600020819055508173ffffffffffffffffffffffffffffffffffffffff168373ffffffffffffffffffffffffffffffffffffffff167fddf252ad1be2c89b69c2b068fc378daa952ba7f163c4a11628f55a4df523b3ef83604051611e609190612e16565b60405180910390a3505050565b6000838311158290611eb5576040517f08c379a0000000000000000000000000000000000000000000000000000000008152600401611eac9190612b73565b60405180910390fd5b5060008385039050809150509392505050565b600080828401905083811015611f13576040517f08c379a0000000000000000000000000000000000000000000000000000000008152600401611f0a90612bd5565b60405180910390fd5b8091505092915050565b600073ffffffffffffffffffffffffffffffffffffffff168273ffffffffffffffffffffffffffffffffffffffff161415611f8d576040517f08c379a0000000000000000000000000000000000000000000000000000000008152600401611f8490612c55565b60405180910390fd5b611fa281600254611ec890919063ffffffff16565b600281905550611ff9816000808573ffffffffffffffffffffffffffffffffffffffff1673ffffffffffffffffffffffffffffffffffffffff16815260200190815260200160002054611ec890919063ffffffff16565b6000808473ffffffffffffffffffffffffffffffffffffffff1673ffffffffffffffffffffffffffffffffffffffff168152602001908152602001600020819055508173ffffffffffffffffffffffffffffffffffffffff16600073ffffffffffffffffffffffffffffffffffffffff167fddf252ad1be2c89b69c2b068fc378daa952ba7f163c4a11628f55a4df523b3ef836040516120999190612e16565b60405180910390a35050565b600073ffffffffffffffffffffffffffffffffffffffff168273ffffffffffffffffffffffffffffffffffffffff161415612115576040517f08c379a000000000000000000000000000000000000000000000000000000000815260040161210c90612bf5565b60405180910390fd5b61218081604051806060016040528060228152602001613082602291396000808673ffffffffffffffffffffffffffffffffffffffff1673ffffffffffffffffffffffffffffffffffffffff16815260200190815260200160002054611e6d9092919063ffffffff16565b6000808473ffffffffffffffffffffffffffffffffffffffff1673ffffffffffffffffffffffffffffffffffffffff168152602001908152602001600020819055506121d78160025461224790919063ffffffff16565b600281905550600073ffffffffffffffffffffffffffffffffffffffff168273ffffffffffffffffffffffffffffffffffffffff167fddf252ad1be2c89b69c2b068fc378daa952ba7f163c4a11628f55a4df523b3ef8360405161223b9190612e16565b60405180910390a35050565b600061228983836040518060400160405280601e81526020017f536166654d6174683a207375627472616374696f6e206f766572666c6f770000815250611e6d565b905092915050565b6000813590506122a081613025565b92915050565b6000815190506122b58161303c565b92915050565b6000815190506122ca81613053565b92915050565b6000813590506122df8161306a565b92915050565b6000815190506122f48161306a565b92915050565b60006020828403121561230c57600080fd5b600061231a84828501612291565b91505092915050565b6000806040838503121561233657600080fd5b600061234485828601612291565b925050602061235585828601612291565b9150509250929050565b60008060006060848603121561237457600080fd5b600061238286828701612291565b935050602061239386828701612291565b92505060406123a4868287016122d0565b9150509250925092565b600080604083850312156123c157600080fd5b60006123cf85828601612291565b92505060206123e0858286016122d0565b9150509250929050565b6000602082840312156123fc57600080fd5b600061240a848285016122a6565b91505092915050565b60006020828403121561242557600080fd5b6000612433848285016122bb565b91505092915050565b6000806040838503121561244f57600080fd5b600061245d858286016122bb565b925050602061246e858286016122e5565b9150509250929050565b60006020828403121561248a57600080fd5b6000612498848285016122d0565b91505092915050565b600080604083850312156124b457600080fd5b60006124c2858286016122d0565b92505060206124d3858286016122d0565b9150509250929050565b6124e681612e84565b82525050565b6124f581612e84565b82525050565b61250481612e96565b82525050565b61251381612ea2565b82525050565b61252281612f13565b82525050565b61253181612f37565b82525050565b61254081612f5b565b82525050565b61254f81612f7f565b82525050565b61255e81612fa3565b82525050565b61256d81612fb5565b82525050565b61257c81612ed2565b82525050565b61258b81612ed2565b82525050565b600061259c82612e57565b6125a68185612e73565b93506125b6818560208601612fc7565b6125bf81612ffa565b840191505092915050565b60006125d582612e4c565b6125df8185612e62565b93506125ef818560208601612fc7565b6125f881612ffa565b840191505092915050565b600061260e82612e4c565b6126188185612e73565b9350612628818560208601612fc7565b61263181612ffa565b840191505092915050565b6000612649602383612e73565b91507f45524332303a207472616e7366657220746f20746865207a65726f206164647260008301527f65737300000000000000000000000000000000000000000000000000000000006020830152604082019050919050565b60006126af602283612e73565b91507f45524332303a20617070726f766520746f20746865207a65726f20616464726560008301527f73730000000000000000000000000000000000000000000000000000000000006020830152604082019050919050565b6000612715601b83612e73565b91507f536166654d6174683a206164646974696f6e206f766572666c6f7700000000006000830152602082019050919050565b6000612755602183612e73565b91507f45524332303a206275726e2066726f6d20746865207a65726f2061646472657360008301527f73000000000000000000000000000000000000000000000000000000000000006020830152604082019050919050565b60006127bb602583612e73565b91507f45524332303a207472616e736665722066726f6d20746865207a65726f20616460008301527f64726573730000000000000000000000000000000000000000000000000000006020830152604082019050919050565b6000612821602483612e73565b91507f45524332303a20617070726f76652066726f6d20746865207a65726f2061646460008301527f72657373000000000000000000000000000000000000000000000000000000006020830152604082019050919050565b6000612887601f83612e73565b91507f45524332303a206d696e7420746f20746865207a65726f2061646472657373006000830152602082019050919050565b6040820160008201516128d06000850182612573565b5060208201516128e36020850182612ab6565b50505050565b60c0820160008201516128ff60008501826124dd565b50602082015161291260208501826124dd565b5060408201516129256040850182612519565b5060608201516129386060850182612537565b50608082015161294b6080850182612546565b5060a082015161295e60a0850182612528565b50505050565b60006101408301600083015161297d6000860182612ab6565b5060208301516129906020860182612ab6565b5060408301516129a36040860182612ab6565b5060608301516129b66060860182612ab6565b5060808301516129c96080860182612ab6565b5060a08301516129dc60a086018261250a565b5060c08301516129ef60c0860182612555565b5060e0830151612a0260e0860182612ab6565b50610100830151612a17610100860182612ab6565b50610120830151848203610120860152612a3182826125ca565b9150508091505092915050565b8082525050565b606082016000820151612a5b6000850182612573565b506020820151612a6e6020850182612573565b506040820151612a816040850182612ab6565b50505050565b604082016000820151612a9d6000850182612ab6565b506020820151612ab06020850182612ab6565b50505050565b612abf81612efc565b82525050565b612ace81612efc565b82525050565b612add81612efc565b82525050565b612aec81612f06565b82525050565b6000602082019050612b0760008301846124fb565b92915050565b6000602082019050612b226000830184612582565b92915050565b6000604082019050612b3d6000830185612582565b612b4a6020830184612ac5565b9392505050565b60006020820190508181036000830152612b6b8184612603565b905092915050565b60006020820190508181036000830152612b8d8184612591565b905092915050565b60006020820190508181036000830152612bae8161263c565b9050919050565b60006020820190508181036000830152612bce816126a2565b9050919050565b60006020820190508181036000830152612bee81612708565b9050919050565b60006020820190508181036000830152612c0e81612748565b9050919050565b60006020820190508181036000830152612c2e816127ae565b9050919050565b60006020820190508181036000830152612c4e81612814565b9050919050565b60006020820190508181036000830152612c6e8161287a565b9050919050565b60006102e0820190508181036000830152612c90818f612964565b9050612c9f602083018e6128e9565b612cac60e083018d612582565b612cba61010083018c612582565b612cc861012083018b612564565b612cd661014083018a612ac5565b612ce4610160830189612a45565b612cf26101c0830188612a45565b612d00610220830187612582565b612d0e6102408301866128ba565b612d1c610280830185612582565b612d2a6102a0830184612a87565b9d9c50505050505050505050505050565b6000602082019050612d506000830184612a3e565b92915050565b6000604082019050612d6b6000830185612a3e565b612d7860208301846124ec565b9392505050565b6000606082019050612d946000830186612a3e565b612da160208301856124ec565b612dae6040830184612ad4565b949350505050565b6000604082019050612dcb6000830185612a3e565b612dd86020830184612ad4565b9392505050565b6000606082019050612df46000830186612a3e565b612e016020830185612ad4565b612e0e6040830184612ad4565b949350505050565b6000602082019050612e2b6000830184612ac5565b92915050565b6000602082019050612e466000830184612ae3565b92915050565b600081519050919050565b600081519050919050565b600082825260208201905092915050565b600082825260208201905092915050565b6000612e8f82612edc565b9050919050565b60008115159050919050565b6000819050919050565b6000819050612eba8261300b565b919050565b6000819050612ecd82613018565b919050565b6000819050919050565b600073ffffffffffffffffffffffffffffffffffffffff82169050919050565b6000819050919050565b600060ff82169050919050565b6000612f1e82612f25565b9050919050565b6000612f3082612edc565b9050919050565b6000612f4282612f49565b9050919050565b6000612f5482612edc565b9050919050565b6000612f6682612f6d565b9050919050565b6000612f7882612edc565b9050919050565b6000612f8a82612f91565b9050919050565b6000612f9c82612edc565b9050919050565b6000612fae82612eac565b9050919050565b6000612fc082612ebf565b9050919050565b60005b83811015612fe5578082015181840152602081019050612fca565b83811115612ff4576000848401525b50505050565b6000601f19601f8301169050919050565b6002811061301557fe5b50565b6006811061302257fe5b50565b61302e81612e84565b811461303957600080fd5b50565b61304581612e96565b811461305057600080fd5b50565b61305c81612ed2565b811461306757600080fd5b50565b61307381612efc565b811461307e57600080fd5b5056fe45524332303a206275726e20616d6f756e7420657863656564732062616c616e636545524332303a207472616e7366657220616d6f756e7420657863656564732062616c616e636545524332303a207472616e7366657220616d6f756e74206578636565647320616c6c6f77616e636545524332303a2064656372656173656420616c6c6f77616e63652062656c6f77207a65726fa365627a7a72315820e2f2752aaeff7c800c5708e70cb6b14cd2e1d3ca25cebc0491de75f7961741426c6578706572696d656e74616cf564736f6c634300050d0040a365627a7a723158207eacfbcd5822d1ae23a6e85b702542fe62e33655ce497f776c540c367b8a708b6c6578706572696d656e74616cf564736f6c634300050d0040",
  "source": "pragma solidity ^0.5.0;\n\npragma experimental ABIEncoderV2;\n\nimport \"./AddressWhitelist.sol\";\nimport \"./ContractCreator.sol\";\nimport \"./TokenizedDerivative.sol\";\nimport \"./Testable.sol\";\n\n\n/**\n * @title Contract creator for TokenizedDerivative.\n */\ncontract TokenizedDerivativeCreator is ContractCreator, Testable {\n    struct Params {\n        address priceFeedAddress;\n        uint defaultPenalty; // Percentage of mergin requirement * 10^18\n        uint supportedMove; // Expected percentage move in the underlying that the long is protected against.\n        bytes32 product;\n        uint fixedYearlyFee; // Percentage of nav * 10^18\n        uint disputeDeposit; // Percentage of mergin requirement * 10^18\n        address returnCalculator;\n        uint startingTokenPrice;\n        uint expiry;\n        address marginCurrency;\n        uint withdrawLimit; // Percentage of shortBalance * 10^18\n        TokenizedDerivativeParams.ReturnType returnType;\n        uint startingUnderlyingPrice;\n        string name;\n        string symbol;\n    }\n\n    AddressWhitelist public returnCalculatorWhitelist;\n    AddressWhitelist public marginCurrencyWhitelist;\n\n    event CreatedTokenizedDerivative(address contractAddress);\n\n    constructor(\n        address _finderAddress,\n        address _returnCalculatorWhitelist,\n        address _marginCurrencyWhitelist,\n        bool _isTest\n    ) public ContractCreator(_finderAddress) Testable(_isTest) {\n        returnCalculatorWhitelist = AddressWhitelist(_returnCalculatorWhitelist);\n        marginCurrencyWhitelist = AddressWhitelist(_marginCurrencyWhitelist);\n    }\n\n    /**\n     * @notice Creates a new instance of `TokenizedDerivative` with the provided `params`.\n     */\n    function createTokenizedDerivative(Params memory params)\n        public\n        returns (address derivativeAddress)\n    {\n        TokenizedDerivative derivative = new TokenizedDerivative(_convertParams(params), params.name, params.symbol);\n\n        address[] memory parties = new address[](1);\n        parties[0] = msg.sender;\n\n        _registerContract(parties, address(derivative));\n\n        emit CreatedTokenizedDerivative(address(derivative));\n\n        return address(derivative);\n    }\n\n    // Converts createTokenizedDerivative params to TokenizedDerivative constructor params.\n    function _convertParams(Params memory params)\n        private\n        view\n        returns (TokenizedDerivativeParams.ConstructorParams memory constructorParams)\n    {\n        // Copy and verify externally provided variables.\n        constructorParams.sponsor = msg.sender;\n\n        require(returnCalculatorWhitelist.isOnWhitelist(params.returnCalculator));\n        constructorParams.returnCalculator = params.returnCalculator;\n\n        require(marginCurrencyWhitelist.isOnWhitelist(params.marginCurrency));\n        constructorParams.marginCurrency = params.marginCurrency;\n\n        constructorParams.priceFeedAddress = params.priceFeedAddress;\n        constructorParams.defaultPenalty = params.defaultPenalty;\n        constructorParams.supportedMove = params.supportedMove;\n        constructorParams.product = params.product;\n        constructorParams.fixedYearlyFee = params.fixedYearlyFee;\n        constructorParams.disputeDeposit = params.disputeDeposit;\n        constructorParams.startingTokenPrice = params.startingTokenPrice;\n        constructorParams.expiry = params.expiry;\n        constructorParams.withdrawLimit = params.withdrawLimit;\n        constructorParams.returnType = params.returnType;\n        constructorParams.startingUnderlyingPrice = params.startingUnderlyingPrice;\n\n        // Copy internal variables.\n        constructorParams.finderAddress = finderAddress;\n        constructorParams.creationTime = getCurrentTime();\n    }\n}\n",
  "sourcePath": "/Users/ptare/protocol/core/contracts/TokenizedDerivativeCreator.sol",
  "compiler": {
    "name": "solc",
    "version": "0.5.13+commit.5b0b510c.Emscripten.clang"
  },
  "schemaVersion": "3.0.19",
  "updatedAt": "2019-12-20T16:30:11.920Z",
  "networkType": "ethereum",
  "devdoc": {
    "methods": {
      "setCurrentTime(uint256)": {
        "details": "Will revert if not running in test mode."
      }
    },
    "title": "Contract creator for TokenizedDerivative."
  },
  "userdoc": {
    "methods": {
      "createTokenizedDerivative((address,uint256,uint256,bytes32,uint256,uint256,address,uint256,uint256,address,uint256,uint8,uint256,string,string))": {
        "notice": "Creates a new instance of `TokenizedDerivative` with the provided `params`."
      },
      "getCurrentTime()": {
        "notice": "Gets the current time. Will return the last time set in `setCurrentTime` if running in test mode. Otherwise, it will return the block timestamp."
      },
      "setCurrentTime(uint256)": {
        "notice": "Sets the current time."
      }
    }
  }
}