{
  "contractName": "VoteTimingTest",
  "abi": [
    {
      "inputs": [
        {
          "internalType": "uint256",
          "name": "phaseLength",
          "type": "uint256"
        }
      ],
      "payable": false,
      "stateMutability": "nonpayable",
      "type": "constructor"
    },
    {
      "constant": true,
      "inputs": [],
      "name": "voteTiming",
      "outputs": [
        {
          "internalType": "uint256",
          "name": "roundId",
          "type": "uint256"
        },
        {
          "internalType": "uint256",
          "name": "roundStartTime",
          "type": "uint256"
        },
        {
          "internalType": "uint256",
          "name": "phaseLength",
          "type": "uint256"
        }
      ],
      "payable": false,
      "stateMutability": "view",
      "type": "function"
    },
    {
      "constant": false,
      "inputs": [
        {
          "internalType": "uint256",
          "name": "currentTime",
          "type": "uint256"
        }
      ],
      "name": "wrapUpdateRoundId",
      "outputs": [],
      "payable": false,
      "stateMutability": "nonpayable",
      "type": "function"
    },
    {
      "constant": true,
      "inputs": [],
      "name": "wrapGetLastUpdatedRoundId",
      "outputs": [
        {
          "internalType": "uint256",
          "name": "",
          "type": "uint256"
        }
      ],
      "payable": false,
      "stateMutability": "view",
      "type": "function"
    },
    {
      "constant": true,
      "inputs": [
        {
          "internalType": "uint256",
          "name": "currentTime",
          "type": "uint256"
        }
      ],
      "name": "wrapShouldUpdateRoundId",
      "outputs": [
        {
          "internalType": "bool",
          "name": "",
          "type": "bool"
        }
      ],
      "payable": false,
      "stateMutability": "view",
      "type": "function"
    },
    {
      "constant": true,
      "inputs": [
        {
          "internalType": "uint256",
          "name": "currentTime",
          "type": "uint256"
        }
      ],
      "name": "wrapComputeCurrentRoundId",
      "outputs": [
        {
          "internalType": "uint256",
          "name": "",
          "type": "uint256"
        }
      ],
      "payable": false,
      "stateMutability": "view",
      "type": "function"
    },
    {
      "constant": true,
      "inputs": [
        {
          "internalType": "uint256",
          "name": "currentTime",
          "type": "uint256"
        }
      ],
      "name": "wrapComputeCurrentPhase",
      "outputs": [
        {
          "internalType": "enum VoteTiming.Phase",
          "name": "",
          "type": "uint8"
        }
      ],
      "payable": false,
      "stateMutability": "view",
      "type": "function"
    },
    {
      "constant": true,
      "inputs": [
        {
          "internalType": "uint256",
          "name": "roundId",
          "type": "uint256"
        }
      ],
      "name": "wrapComputeEstimatedRoundEndTime",
      "outputs": [
        {
          "internalType": "uint256",
          "name": "",
          "type": "uint256"
        }
      ],
      "payable": false,
      "stateMutability": "view",
      "type": "function"
    },
    {
      "constant": false,
      "inputs": [
        {
          "internalType": "uint256",
          "name": "phaseLength",
          "type": "uint256"
        }
      ],
      "name": "wrapInit",
      "outputs": [],
      "payable": false,
      "stateMutability": "nonpayable",
      "type": "function"
    }
  ],
  "bytecode": "0x608060405234801561001057600080fd5b50604051610a36380380610a368339818101604052602081101561003357600080fd5b81019080805190602001909291905050506100538161005960201b60201c565b50610095565b61007181600061007460201b6103ad1790919060201c565b50565b80826002018190555060018260000181905550600082600101819055505050565b610992806100a46000396000f3fe608060405234801561001057600080fd5b50600436106100885760003560e01c80635272ab7b1161005b5780635272ab7b1461015d57806371b7db53146101a35780639e4d8447146101cf578063d9336ea4146101fd57610088565b80630f24c0801461008d57806329e4b013146100cf57806344d8ce9a14610111578063504bac5d1461013f575b600080fd5b6100b9600480360360208110156100a357600080fd5b810190808035906020019092919050505061024d565b6040518082815260200191505060405180910390f35b6100fb600480360360208110156100e557600080fd5b810190808035906020019092919050505061026a565b6040518082815260200191505060405180910390f35b61013d6004803603602081101561012757600080fd5b8101908080359060200190929190505050610287565b005b61014761029e565b6040518082815260200191505060405180910390f35b6101896004803603602081101561017357600080fd5b81019080803590602001909291905050506102af565b604051808215151515815260200191505060405180910390f35b6101ab6102cc565b60405180848152602001838152602001828152602001935050505060405180910390f35b6101fb600480360360208110156101e557600080fd5b81019080803590602001909291905050506102e4565b005b6102296004803603602081101561021357600080fd5b81019080803590602001909291905050506102fb565b6040518082600181111561023957fe5b60ff16815260200191505060405180910390f35b600061026382600061031890919063ffffffff16565b9050919050565b600061028082600061039690919063ffffffff16565b9050919050565b61029b8160006103ad90919063ffffffff16565b50565b60006102aa60006103ce565b905090565b60006102c58260006103dc90919063ffffffff16565b9050919050565b60008060000154908060010154908060020154905083565b6102f88160006103fd90919063ffffffff16565b50565b600061031182600061042390919063ffffffff16565b9050919050565b600080610345600161033786600001548661046290919063ffffffff16565b6104ac90919063ffffffff16565b905060006103616002866002015461053490919063ffffffff16565b905061038c610379828461053490919063ffffffff16565b86600101546104ac90919063ffffffff16565b9250505092915050565b60006103a283836105ba565b508091505092915050565b80826002018190555060018260000181905550600082600101819055505050565b600081600001549050919050565b6000806103e984846105ba565b509050808460000154141591505092915050565b61040782826105ba565b8360000160008560010160008491905055839190505550505050565b600061044f600261044185600201548561066190919063ffffffff16565b6106ab90919063ffffffff16565b600181111561045a57fe5b905092915050565b60006104a483836040518060400160405280601e81526020017f536166654d6174683a207375627472616374696f6e206f766572666c6f7700008152506106f5565b905092915050565b60008082840190508381101561052a576040517f08c379a000000000000000000000000000000000000000000000000000000000815260040180806020018281038252601b8152602001807f536166654d6174683a206164646974696f6e206f766572666c6f77000000000081525060200191505060405180910390fd5b8091505092915050565b60008083141561054757600090506105b4565b600082840290508284828161055857fe5b04146105af576040517f08c379a000000000000000000000000000000000000000000000000000000000815260040180806020018281038252602181526020018061093d6021913960400191505060405180910390fd5b809150505b92915050565b600080600084600101549050846001015484116105e55784600001548560010154925092505061065a565b60006105ff6002876002015461053490919063ffffffff16565b905061062681610618838861066190919063ffffffff16565b61053490919063ffffffff16565b92508183111561064f57610648600187600001546104ac90919063ffffffff16565b9350610657565b856000015493505b50505b9250929050565b60006106a383836040518060400160405280601a81526020017f536166654d6174683a206469766973696f6e206279207a65726f0000000000008152506107b5565b905092915050565b60006106ed83836040518060400160405280601881526020017f536166654d6174683a206d6f64756c6f206279207a65726f000000000000000081525061087b565b905092915050565b60008383111582906107a2576040517f08c379a00000000000000000000000000000000000000000000000000000000081526004018080602001828103825283818151815260200191508051906020019080838360005b8381101561076757808201518184015260208101905061074c565b50505050905090810190601f1680156107945780820380516001836020036101000a031916815260200191505b509250505060405180910390fd5b5060008385039050809150509392505050565b60008083118290610861576040517f08c379a00000000000000000000000000000000000000000000000000000000081526004018080602001828103825283818151815260200191508051906020019080838360005b8381101561082657808201518184015260208101905061080b565b50505050905090810190601f1680156108535780820380516001836020036101000a031916815260200191505b509250505060405180910390fd5b50600083858161086d57fe5b049050809150509392505050565b6000808314158290610928576040517f08c379a00000000000000000000000000000000000000000000000000000000081526004018080602001828103825283818151815260200191508051906020019080838360005b838110156108ed5780820151818401526020810190506108d2565b50505050905090810190601f16801561091a5780820380516001836020036101000a031916815260200191505b509250505060405180910390fd5b5082848161093257fe5b069050939250505056fe536166654d6174683a206d756c7469706c69636174696f6e206f766572666c6f77a265627a7a723158209381ac529626552e80c7dc57c959ca8eb53bbfc9e1e5eb7d805e22b26d98f6aa64736f6c634300050d0032",
  "source": "pragma solidity ^0.5.0;\n\nimport \"../VoteTiming.sol\";\n\n\n // Wraps the library VoteTiming for testing purposes.\ncontract VoteTimingTest {\n    using VoteTiming for VoteTiming.Data;\n\n    VoteTiming.Data public voteTiming;\n\n    constructor(uint phaseLength) public {\n        wrapInit(phaseLength);\n    }\n\n    function wrapUpdateRoundId(uint currentTime) external {\n        voteTiming.updateRoundId(currentTime);\n    }\n\n    function wrapGetLastUpdatedRoundId() external view returns (uint) {\n        return voteTiming.getLastUpdatedRoundId();\n    }\n\n    function wrapShouldUpdateRoundId(uint currentTime) external view returns (bool) {\n        return voteTiming.shouldUpdateRoundId(currentTime);\n    }\n\n    function wrapComputeCurrentRoundId(uint currentTime) external view returns (uint) {\n        return voteTiming.computeCurrentRoundId(currentTime);\n    }\n\n    function wrapComputeCurrentPhase(uint currentTime) external view returns (VoteTiming.Phase) {\n        return voteTiming.computeCurrentPhase(currentTime);\n    }\n\n    function wrapComputeEstimatedRoundEndTime(uint roundId) external view returns (uint) {\n        return voteTiming.computeEstimatedRoundEndTime(roundId);\n    }\n\n    function wrapInit(uint phaseLength) public {\n        voteTiming.init(phaseLength);\n    }\n}\n",
  "sourcePath": "/Users/ptare/protocol/core/contracts/test/VoteTimingTest.sol",
  "compiler": {
    "name": "solc",
    "version": "0.5.13+commit.5b0b510c.Emscripten.clang"
  },
  "schemaVersion": "3.0.19",
  "updatedAt": "2019-12-19T23:40:36.554Z",
  "devdoc": {
    "methods": {}
  },
  "userdoc": {
    "methods": {}
  }
}