{
  "contractName": "Voting",
  "abi": [
    {
      "inputs": [
        {
          "internalType": "uint256",
          "name": "phaseLength",
          "type": "uint256"
        },
        {
          "components": [
            {
              "internalType": "uint256",
              "name": "rawValue",
              "type": "uint256"
            }
          ],
          "internalType": "struct FixedPoint.Unsigned",
          "name": "_gatPercentage",
          "type": "tuple"
        },
        {
          "components": [
            {
              "internalType": "uint256",
              "name": "rawValue",
              "type": "uint256"
            }
          ],
          "internalType": "struct FixedPoint.Unsigned",
          "name": "_inflationRate",
          "type": "tuple"
        },
        {
          "internalType": "address",
          "name": "_votingToken",
          "type": "address"
        },
        {
          "internalType": "address",
          "name": "_finder",
          "type": "address"
        },
        {
          "internalType": "bool",
          "name": "_isTest",
          "type": "bool"
        }
      ],
      "payable": false,
      "stateMutability": "nonpayable",
      "type": "constructor"
    },
    {
      "anonymous": false,
      "inputs": [
        {
          "indexed": true,
          "internalType": "address",
          "name": "previousOwner",
          "type": "address"
        },
        {
          "indexed": true,
          "internalType": "address",
          "name": "newOwner",
          "type": "address"
        }
      ],
      "name": "OwnershipTransferred",
      "type": "event"
    },
    {
      "anonymous": false,
      "inputs": [
        {
          "indexed": true,
          "internalType": "uint256",
          "name": "votingRoundId",
          "type": "uint256"
        },
        {
          "indexed": true,
          "internalType": "bytes32",
          "name": "identifier",
          "type": "bytes32"
        },
        {
          "indexed": false,
          "internalType": "uint256",
          "name": "time",
          "type": "uint256"
        }
      ],
      "name": "PriceRequestAdded",
      "type": "event"
    },
    {
      "anonymous": false,
      "inputs": [
        {
          "indexed": true,
          "internalType": "uint256",
          "name": "resolutionRoundId",
          "type": "uint256"
        },
        {
          "indexed": true,
          "internalType": "bytes32",
          "name": "identifier",
          "type": "bytes32"
        },
        {
          "indexed": false,
          "internalType": "uint256",
          "name": "time",
          "type": "uint256"
        },
        {
          "indexed": false,
          "internalType": "int256",
          "name": "price",
          "type": "int256"
        }
      ],
      "name": "PriceResolved",
      "type": "event"
    },
    {
      "anonymous": false,
      "inputs": [
        {
          "indexed": true,
          "internalType": "address",
          "name": "voter",
          "type": "address"
        },
        {
          "indexed": true,
          "internalType": "uint256",
          "name": "rewardsRoundId",
          "type": "uint256"
        },
        {
          "indexed": false,
          "internalType": "uint256",
          "name": "numTokens",
          "type": "uint256"
        }
      ],
      "name": "RewardsRetrieved",
      "type": "event"
    },
    {
      "anonymous": false,
      "inputs": [
        {
          "indexed": true,
          "internalType": "bytes32",
          "name": "identifier",
          "type": "bytes32"
        }
      ],
      "name": "SupportedIdentifierAdded",
      "type": "event"
    },
    {
      "anonymous": false,
      "inputs": [
        {
          "indexed": true,
          "internalType": "bytes32",
          "name": "identifier",
          "type": "bytes32"
        }
      ],
      "name": "SupportedIdentifierRemoved",
      "type": "event"
    },
    {
      "anonymous": false,
      "inputs": [
        {
          "indexed": true,
          "internalType": "address",
          "name": "voter",
          "type": "address"
        },
        {
          "indexed": true,
          "internalType": "uint256",
          "name": "roundId",
          "type": "uint256"
        },
        {
          "indexed": true,
          "internalType": "bytes32",
          "name": "identifier",
          "type": "bytes32"
        },
        {
          "indexed": false,
          "internalType": "uint256",
          "name": "time",
          "type": "uint256"
        }
      ],
      "name": "VoteCommitted",
      "type": "event"
    },
    {
      "anonymous": false,
      "inputs": [
        {
          "indexed": true,
          "internalType": "address",
          "name": "voter",
          "type": "address"
        },
        {
          "indexed": true,
          "internalType": "uint256",
          "name": "roundId",
          "type": "uint256"
        },
        {
          "indexed": true,
          "internalType": "bytes32",
          "name": "identifier",
          "type": "bytes32"
        },
        {
          "indexed": false,
          "internalType": "uint256",
          "name": "time",
          "type": "uint256"
        },
        {
          "indexed": false,
          "internalType": "int256",
          "name": "price",
          "type": "int256"
        },
        {
          "indexed": false,
          "internalType": "uint256",
          "name": "numTokens",
          "type": "uint256"
        }
      ],
      "name": "VoteRevealed",
      "type": "event"
    },
    {
      "constant": false,
      "inputs": [
        {
          "internalType": "address",
          "name": "sender",
          "type": "address"
        }
      ],
      "name": "addAuthorizedSender",
      "outputs": [],
      "payable": false,
      "stateMutability": "nonpayable",
      "type": "function"
    },
    {
      "constant": true,
      "inputs": [],
      "name": "getCurrentTime",
      "outputs": [
        {
          "internalType": "uint256",
          "name": "",
          "type": "uint256"
        }
      ],
      "payable": false,
      "stateMutability": "view",
      "type": "function"
    },
    {
      "constant": true,
      "inputs": [
        {
          "internalType": "address",
          "name": "recipient",
          "type": "address"
        },
        {
          "internalType": "bytes32",
          "name": "topicHash",
          "type": "bytes32"
        }
      ],
      "name": "getMessage",
      "outputs": [
        {
          "internalType": "bytes",
          "name": "",
          "type": "bytes"
        }
      ],
      "payable": false,
      "stateMutability": "view",
      "type": "function"
    },
    {
      "constant": true,
      "inputs": [
        {
          "internalType": "address",
          "name": "recipient",
          "type": "address"
        },
        {
          "internalType": "bytes32",
          "name": "topicHash",
          "type": "bytes32"
        }
      ],
      "name": "getPublicKey",
      "outputs": [
        {
          "internalType": "bytes",
          "name": "",
          "type": "bytes"
        }
      ],
      "payable": false,
      "stateMutability": "view",
      "type": "function"
    },
    {
      "constant": true,
      "inputs": [
        {
          "internalType": "address",
          "name": "sender",
          "type": "address"
        },
        {
          "internalType": "address",
          "name": "recipient",
          "type": "address"
        }
      ],
      "name": "isAuthorizedSender",
      "outputs": [
        {
          "internalType": "bool",
          "name": "",
          "type": "bool"
        }
      ],
      "payable": false,
      "stateMutability": "view",
      "type": "function"
    },
    {
      "constant": true,
      "inputs": [],
      "name": "isOwner",
      "outputs": [
        {
          "internalType": "bool",
          "name": "",
          "type": "bool"
        }
      ],
      "payable": false,
      "stateMutability": "view",
      "type": "function"
    },
    {
      "constant": true,
      "inputs": [],
      "name": "isTest",
      "outputs": [
        {
          "internalType": "bool",
          "name": "",
          "type": "bool"
        }
      ],
      "payable": false,
      "stateMutability": "view",
      "type": "function"
    },
    {
      "constant": true,
      "inputs": [],
      "name": "owner",
      "outputs": [
        {
          "internalType": "address",
          "name": "",
          "type": "address"
        }
      ],
      "payable": false,
      "stateMutability": "view",
      "type": "function"
    },
    {
      "constant": false,
      "inputs": [
        {
          "internalType": "address",
          "name": "sender",
          "type": "address"
        }
      ],
      "name": "removeAuthorizedSender",
      "outputs": [],
      "payable": false,
      "stateMutability": "nonpayable",
      "type": "function"
    },
    {
      "constant": false,
      "inputs": [
        {
          "internalType": "address",
          "name": "recipient_",
          "type": "address"
        },
        {
          "internalType": "bytes32",
          "name": "topicHash",
          "type": "bytes32"
        }
      ],
      "name": "removeMessage",
      "outputs": [],
      "payable": false,
      "stateMutability": "nonpayable",
      "type": "function"
    },
    {
      "constant": false,
      "inputs": [],
      "name": "renounceOwnership",
      "outputs": [],
      "payable": false,
      "stateMutability": "nonpayable",
      "type": "function"
    },
    {
      "constant": false,
      "inputs": [
        {
          "internalType": "address",
          "name": "recipient_",
          "type": "address"
        },
        {
          "internalType": "bytes32",
          "name": "topicHash",
          "type": "bytes32"
        },
        {
          "internalType": "bytes",
          "name": "message",
          "type": "bytes"
        }
      ],
      "name": "sendMessage",
      "outputs": [],
      "payable": false,
      "stateMutability": "nonpayable",
      "type": "function"
    },
    {
      "constant": false,
      "inputs": [
        {
          "internalType": "uint256",
          "name": "_time",
          "type": "uint256"
        }
      ],
      "name": "setCurrentTime",
      "outputs": [],
      "payable": false,
      "stateMutability": "nonpayable",
      "type": "function"
    },
    {
      "constant": false,
      "inputs": [
        {
          "internalType": "bytes",
          "name": "publicKey",
          "type": "bytes"
        },
        {
          "internalType": "bytes32",
          "name": "topicHash",
          "type": "bytes32"
        }
      ],
      "name": "setPublicKey",
      "outputs": [],
      "payable": false,
      "stateMutability": "nonpayable",
      "type": "function"
    },
    {
      "constant": false,
      "inputs": [
        {
          "internalType": "address",
          "name": "newOwner",
          "type": "address"
        }
      ],
      "name": "transferOwnership",
      "outputs": [],
      "payable": false,
      "stateMutability": "nonpayable",
      "type": "function"
    },
    {
      "constant": false,
      "inputs": [
        {
          "internalType": "bytes32",
          "name": "identifier",
          "type": "bytes32"
        },
        {
          "internalType": "uint256",
          "name": "time",
          "type": "uint256"
        }
      ],
      "name": "requestPrice",
      "outputs": [
        {
          "internalType": "uint256",
          "name": "expectedTime",
          "type": "uint256"
        }
      ],
      "payable": false,
      "stateMutability": "nonpayable",
      "type": "function"
    },
    {
      "constant": false,
      "inputs": [
        {
          "components": [
            {
              "internalType": "bytes32",
              "name": "identifier",
              "type": "bytes32"
            },
            {
              "internalType": "uint256",
              "name": "time",
              "type": "uint256"
            },
            {
              "internalType": "bytes32",
              "name": "hash",
              "type": "bytes32"
            },
            {
              "internalType": "bytes",
              "name": "encryptedVote",
              "type": "bytes"
            }
          ],
          "internalType": "struct Voting.Commitment[]",
          "name": "commits",
          "type": "tuple[]"
        }
      ],
      "name": "batchCommit",
      "outputs": [],
      "payable": false,
      "stateMutability": "nonpayable",
      "type": "function"
    },
    {
      "constant": false,
      "inputs": [
        {
          "components": [
            {
              "internalType": "bytes32",
              "name": "identifier",
              "type": "bytes32"
            },
            {
              "internalType": "uint256",
              "name": "time",
              "type": "uint256"
            },
            {
              "internalType": "int256",
              "name": "price",
              "type": "int256"
            },
            {
              "internalType": "int256",
              "name": "salt",
              "type": "int256"
            }
          ],
          "internalType": "struct Voting.Reveal[]",
          "name": "reveals",
          "type": "tuple[]"
        }
      ],
      "name": "batchReveal",
      "outputs": [],
      "payable": false,
      "stateMutability": "nonpayable",
      "type": "function"
    },
    {
      "constant": false,
      "inputs": [
        {
          "internalType": "address",
          "name": "newVotingAddress",
          "type": "address"
        }
      ],
      "name": "setMigrated",
      "outputs": [],
      "payable": false,
      "stateMutability": "nonpayable",
      "type": "function"
    },
    {
      "constant": false,
      "inputs": [
        {
          "internalType": "bytes32",
          "name": "identifier",
          "type": "bytes32"
        }
      ],
      "name": "addSupportedIdentifier",
      "outputs": [],
      "payable": false,
      "stateMutability": "nonpayable",
      "type": "function"
    },
    {
      "constant": false,
      "inputs": [
        {
          "internalType": "bytes32",
          "name": "identifier",
          "type": "bytes32"
        }
      ],
      "name": "removeSupportedIdentifier",
      "outputs": [],
      "payable": false,
      "stateMutability": "nonpayable",
      "type": "function"
    },
    {
      "constant": true,
      "inputs": [
        {
          "internalType": "bytes32",
          "name": "identifier",
          "type": "bytes32"
        }
      ],
      "name": "isIdentifierSupported",
      "outputs": [
        {
          "internalType": "bool",
          "name": "",
          "type": "bool"
        }
      ],
      "payable": false,
      "stateMutability": "view",
      "type": "function"
    },
    {
      "constant": true,
      "inputs": [
        {
          "internalType": "bytes32",
          "name": "identifier",
          "type": "bytes32"
        },
        {
          "internalType": "uint256",
          "name": "time",
          "type": "uint256"
        }
      ],
      "name": "hasPrice",
      "outputs": [
        {
          "internalType": "bool",
          "name": "_hasPrice",
          "type": "bool"
        }
      ],
      "payable": false,
      "stateMutability": "view",
      "type": "function"
    },
    {
      "constant": true,
      "inputs": [
        {
          "internalType": "bytes32",
          "name": "identifier",
          "type": "bytes32"
        },
        {
          "internalType": "uint256",
          "name": "time",
          "type": "uint256"
        }
      ],
      "name": "getPrice",
      "outputs": [
        {
          "internalType": "int256",
          "name": "",
          "type": "int256"
        }
      ],
      "payable": false,
      "stateMutability": "view",
      "type": "function"
    },
    {
      "constant": true,
      "inputs": [],
      "name": "getPendingRequests",
      "outputs": [
        {
          "components": [
            {
              "internalType": "bytes32",
              "name": "identifier",
              "type": "bytes32"
            },
            {
              "internalType": "uint256",
              "name": "time",
              "type": "uint256"
            }
          ],
          "internalType": "struct VotingInterface.PendingRequest[]",
          "name": "pendingRequests",
          "type": "tuple[]"
        }
      ],
      "payable": false,
      "stateMutability": "view",
      "type": "function"
    },
    {
      "constant": true,
      "inputs": [],
      "name": "getVotePhase",
      "outputs": [
        {
          "internalType": "enum VoteTiming.Phase",
          "name": "",
          "type": "uint8"
        }
      ],
      "payable": false,
      "stateMutability": "view",
      "type": "function"
    },
    {
      "constant": true,
      "inputs": [],
      "name": "getCurrentRoundId",
      "outputs": [
        {
          "internalType": "uint256",
          "name": "",
          "type": "uint256"
        }
      ],
      "payable": false,
      "stateMutability": "view",
      "type": "function"
    },
    {
      "constant": false,
      "inputs": [
        {
          "internalType": "bytes32",
          "name": "identifier",
          "type": "bytes32"
        },
        {
          "internalType": "uint256",
          "name": "time",
          "type": "uint256"
        },
        {
          "internalType": "bytes32",
          "name": "hash",
          "type": "bytes32"
        }
      ],
      "name": "commitVote",
      "outputs": [],
      "payable": false,
      "stateMutability": "nonpayable",
      "type": "function"
    },
    {
      "constant": false,
      "inputs": [
        {
          "internalType": "bytes32",
          "name": "identifier",
          "type": "bytes32"
        },
        {
          "internalType": "uint256",
          "name": "time",
          "type": "uint256"
        },
        {
          "internalType": "int256",
          "name": "price",
          "type": "int256"
        },
        {
          "internalType": "int256",
          "name": "salt",
          "type": "int256"
        }
      ],
      "name": "revealVote",
      "outputs": [],
      "payable": false,
      "stateMutability": "nonpayable",
      "type": "function"
    },
    {
      "constant": false,
      "inputs": [
        {
          "internalType": "bytes32",
          "name": "identifier",
          "type": "bytes32"
        },
        {
          "internalType": "uint256",
          "name": "time",
          "type": "uint256"
        },
        {
          "internalType": "bytes32",
          "name": "hash",
          "type": "bytes32"
        },
        {
          "internalType": "bytes",
          "name": "encryptedVote",
          "type": "bytes"
        }
      ],
      "name": "commitAndPersistEncryptedVote",
      "outputs": [],
      "payable": false,
      "stateMutability": "nonpayable",
      "type": "function"
    },
    {
      "constant": false,
      "inputs": [
        {
          "components": [
            {
              "internalType": "uint256",
              "name": "rawValue",
              "type": "uint256"
            }
          ],
          "internalType": "struct FixedPoint.Unsigned",
          "name": "_inflationRate",
          "type": "tuple"
        }
      ],
      "name": "setInflationRate",
      "outputs": [],
      "payable": false,
      "stateMutability": "nonpayable",
      "type": "function"
    },
    {
      "constant": false,
      "inputs": [
        {
          "internalType": "address",
          "name": "voterAddress",
          "type": "address"
        },
        {
          "internalType": "uint256",
          "name": "roundId",
          "type": "uint256"
        },
        {
          "components": [
            {
              "internalType": "bytes32",
              "name": "identifier",
              "type": "bytes32"
            },
            {
              "internalType": "uint256",
              "name": "time",
              "type": "uint256"
            }
          ],
          "internalType": "struct VotingInterface.PendingRequest[]",
          "name": "toRetrieve",
          "type": "tuple[]"
        }
      ],
      "name": "retrieveRewards",
      "outputs": [
        {
          "components": [
            {
              "internalType": "uint256",
              "name": "rawValue",
              "type": "uint256"
            }
          ],
          "internalType": "struct FixedPoint.Unsigned",
          "name": "totalRewardToIssue",
          "type": "tuple"
        }
      ],
      "payable": false,
      "stateMutability": "nonpayable",
      "type": "function"
    }
  ],
  "bytecode": "0x60806040523480156200001157600080fd5b5060405162005638380380620056388339818101604052620000379190810190620003b6565b80806000806101000a81548160ff02191690831515021790555080156200006057426001819055505b50620000716200021c60201b60201c565b600260006101000a81548173ffffffffffffffffffffffffffffffffffffffff021916908373ffffffffffffffffffffffffffffffffffffffff160217905550600260009054906101000a900473ffffffffffffffffffffffffffffffffffffffff1673ffffffffffffffffffffffffffffffffffffffff16600073ffffffffffffffffffffffffffffffffffffffff167f8be0079c531659141344cd1fd0a4f28419497f9722a3daafe3b4186f6b6457e060405160405180910390a3620001498660076200022460201b62004fb01790919060201c565b620001646001866200024560201b62004fd11790919060201c565b6200016e57600080fd5b84600b6000820151816000015590505083600c6000820151816000015590505082600d60006101000a81548173ffffffffffffffffffffffffffffffffffffffff021916908373ffffffffffffffffffffffffffffffffffffffff16021790555081600e60006101000a81548173ffffffffffffffffffffffffffffffffffffffff021916908373ffffffffffffffffffffffffffffffffffffffff160217905550505050505050620005ad565b600033905090565b80826002018190555060018260000181905550600082600101819055505050565b600062000258826200026a60201b60201c565b60000151836000015110905092915050565b6200027462000321565b6040518060200160405280620002a1670de0b6b3a764000085620002ab60201b620035d61790919060201c565b8152509050919050565b600080831415620002c057600090506200031b565b6000828402905082848281620002d257fe5b041462000316576040517f08c379a00000000000000000000000000000000000000000000000000000000081526004016200030d90620004b4565b60405180910390fd5b809150505b92915050565b6040518060200160405280600081525090565b60008151905062000345816200055f565b92915050565b6000815190506200035c8162000579565b92915050565b6000602082840312156200037557600080fd5b620003816020620004d6565b9050600062000393848285016200039f565b60008301525092915050565b600081519050620003b08162000593565b92915050565b60008060008060008060c08789031215620003d057600080fd5b6000620003e089828a016200039f565b9650506020620003f389828a0162000362565b95505060406200040689828a0162000362565b94505060606200041989828a0162000334565b93505060806200042c89828a0162000334565b92505060a06200043f89828a016200034b565b9150509295509295509295565b60006200045b60218362000504565b91507f536166654d6174683a206d756c7469706c69636174696f6e206f766572666c6f60008301527f77000000000000000000000000000000000000000000000000000000000000006020830152604082019050919050565b60006020820190508181036000830152620004cf816200044c565b9050919050565b6000604051905081810181811067ffffffffffffffff82111715620004fa57600080fd5b8060405250919050565b600082825260208201905092915050565b6000620005228262000535565b9050919050565b60008115159050919050565b600073ffffffffffffffffffffffffffffffffffffffff82169050919050565b6000819050919050565b6200056a8162000515565b81146200057657600080fd5b50565b620005848162000529565b81146200059057600080fd5b50565b6200059e8162000555565b8114620005aa57600080fd5b50565b61507b80620005bd6000396000f3fe608060405234801561001057600080fd5b50600436106101f05760003560e01c80637cefdd5d1161010f578063a03e881a116100a2578063d8651ad011610071578063d8651ad01461058d578063ef74e0ac146105a9578063f2fde38b146105d9578063fa7229ee146105f5576101f0565b8063a03e881a146104f5578063c9280f0614610525578063cac42c9914610555578063cbd5796714610571576101f0565b80638e0d3ca7116100de5780638e0d3ca71461046d5780638f32d59b1461048957806390978d1b146104a75780639381a345146104d7576101f0565b80637cefdd5d146103e557806380a1f7121461041557806383c6aaca146104335780638da5cb5b1461044f576101f0565b806329cb924d1161018757806368ad8ae31161015657806368ad8ae31461037157806370a0cf2c146103a1578063715018a6146103bd57806374dd278c146103c7576101f0565b806329cb924d146102fd5780634c7a26031461031b5780635727e25d146103375780636852eea014610355576101f0565b80631904ff0e116101c35780631904ff0e146102795780631bc9bf7d146102a957806322f8e566146102c55780632960b5af146102e1576101f0565b806305454616146101f55780630cd7546a146102115780630d434e7e1461022d57806310a7e2011461025d575b600080fd5b61020f600480360361020a9190810190614180565b610611565b005b61022b60048036036102269190810190613f4b565b61067d565b005b61024760048036036102429190810190613fb2565b61073c565b6040516102549190614c9e565b60405180910390f35b610277600480360361027291908101906140cc565b610cde565b005b610293600480360361028e9190810190613ed3565b610da7565b6040516102a091906149e7565b60405180910390f35b6102c360048036036102be9190810190613f0f565b610e74565b005b6102df60048036036102da91908101906142db565b610f29565b005b6102fb60048036036102f69190810190613e81565b610f4b565b005b610305610fd6565b6040516103129190614cb9565b60405180910390f35b610335600480360361033091908101906141fb565b610ffd565b005b61033f6113cb565b60405161034c9190614cb9565b60405180910390f35b61036f600480360361036a919081019061405e565b6113ed565b005b61038b600480360361038691908101906140f5565b611470565b6040516103989190614cb9565b60405180910390f35b6103bb60048036036103b69190810190614019565b6118b0565b005b6103c5611b70565b005b6103cf611c78565b6040516103dc9190614a84565b60405180910390f35b6103ff60048036036103fa9190810190613f0f565b611c9a565b60405161040c9190614a62565b60405180910390f35b61041d611d93565b60405161042a91906149c5565b60405180910390f35b61044d600480360361044891908101906142b2565b611f42565b005b610457611f9c565b604051610464919061493d565b60405180910390f35b610487600480360361048291908101906140cc565b611fc6565b005b610491612090565b60405161049e91906149e7565b60405180910390f35b6104c160048036036104bc91908101906140cc565b6120ef565b6040516104ce91906149e7565b60405180910390f35b6104df612119565b6040516104ec91906149e7565b60405180910390f35b61050f600480360361050a91908101906140f5565b61212b565b60405161051c91906149e7565b60405180910390f35b61053f600480360361053a91908101906140f5565b612339565b60405161054c9190614a9f565b60405180910390f35b61056f600480360361056a919081019061425e565b612595565b005b61058b60048036036105869190810190613e81565b612648565b005b6105a760048036036105a29190810190614131565b6126e3565b005b6105c360048036036105be9190810190613f0f565b6128af565b6040516105d09190614a62565b60405180910390f35b6105f360048036036105ee9190810190613e81565b6129a8565b005b61060f600480360361060a9190810190613e81565b6129fb565b005b61061c8484846126e3565b6000610639610629610fd6565b6007612a9690919063ffffffff16565b9050600085858360405160200161065293929190614a2b565b60405160208183030381529060405280519060200120905061067533828561067d565b505050505050565b6000600360008573ffffffffffffffffffffffffffffffffffffffff1673ffffffffffffffffffffffffffffffffffffffff16815260200190815260200160002090506106ca3385610da7565b610709576040517f08c379a000000000000000000000000000000000000000000000000000000000815260040161070090614b05565b60405180910390fd5b818160000160008581526020019081526020016000206001019080519060200190610735929190613ae2565b5050505050565b610744613b62565b600073ffffffffffffffffffffffffffffffffffffffff16600f60009054906101000a900473ffffffffffffffffffffffffffffffffffffffff1673ffffffffffffffffffffffffffffffffffffffff16146107f557600f60009054906101000a900473ffffffffffffffffffffffffffffffffffffffff1673ffffffffffffffffffffffffffffffffffffffff163373ffffffffffffffffffffffffffffffffffffffff16146107f457600080fd5b5b60006107ff610fd6565b905061080a81612aad565b61081e816007612a9690919063ffffffff16565b841061082957600080fd5b6000600460008681526020019081526020016000209050610848613b62565b6040518060200160405280600d60009054906101000a900473ffffffffffffffffffffffffffffffffffffffff1673ffffffffffffffffffffffffffffffffffffffff16634ee2cd7e8a86600001546040518363ffffffff1660e01b81526004016108b492919061499c565b60206040518083038186803b1580156108cc57600080fd5b505afa1580156108e0573d6000803e3d6000fd5b505050506040513d601f19601f820116820180604052506109049190810190614304565b8152509050610911613b62565b6040518060200160405280600d60009054906101000a900473ffffffffffffffffffffffffffffffffffffffff1673ffffffffffffffffffffffffffffffffffffffff1663981b24d086600001546040518263ffffffff1660e01b815260040161097b9190614cb9565b60206040518083038186803b15801561099357600080fd5b505afa1580156109a7573d6000803e3d6000fd5b505050506040513d601f19601f820116820180604052506109cb9190810190614304565b81525090506109d8613b62565b610a038285600101604051806020016040529081600082015481525050612b2090919063ffffffff16565b905060405180602001604052806000815250955060008090505b8751811015610ba8576000610a60898381518110610a3757fe5b6020026020010151600001518a8481518110610a4f57fe5b602002602001015160200151612b6a565b9050600081600201600083600301548152602001908152602001600020905060008160000160008e73ffffffffffffffffffffffffffffffffffffffff1673ffffffffffffffffffffffffffffffffffffffff16815260200190815260200160002090508b836003015414610b0a576040517f08c379a0000000000000000000000000000000000000000000000000000000008152600401610b0190614c5e565b60405180910390fd5b610b148383612b90565b610b2e816001015483600101612d0190919063ffffffff16565b15610b9057610b3b613b62565b610b4783600101612d38565b9050610b51613b62565b610b7682610b68898c612b2090919063ffffffff16565b612d7590919063ffffffff16565b9050610b8b818d612dc890919063ffffffff16565b9b5050505b80600101600090555050508080600101915050610a1d565b50610bbd600087612e0190919063ffffffff16565b15610cd257600d60009054906101000a900473ffffffffffffffffffffffffffffffffffffffff1673ffffffffffffffffffffffffffffffffffffffff166340c10f198a88600001516040518363ffffffff1660e01b8152600401610c2392919061499c565b602060405180830381600087803b158015610c3d57600080fd5b505af1158015610c51573d6000803e3d6000fd5b505050506040513d601f19601f82011682018060405250610c7591908101906140a3565b610c7e57600080fd5b878973ffffffffffffffffffffffffffffffffffffffff167f469b5dd9fedbdef2f9e9c6013915593dc37bce87e28c05b88511be895d24274c8860000151604051610cc99190614cb9565b60405180910390a35b50505050509392505050565b610ce6612090565b610d25576040517f08c379a0000000000000000000000000000000000000000000000000000000008152600401610d1c90614bfe565b60405180910390fd5b600a600082815260200190815260200160002060009054906101000a900460ff16610da4576001600a600083815260200190815260200160002060006101000a81548160ff021916908315150217905550807fa0ca1076d765c13772089a90b5121cf6ddf63c9f7891c4e5031adbc85936b27660405160405180910390a25b50565b6000600360008373ffffffffffffffffffffffffffffffffffffffff1673ffffffffffffffffffffffffffffffffffffffff16815260200190815260200160002060010160008473ffffffffffffffffffffffffffffffffffffffff1673ffffffffffffffffffffffffffffffffffffffff16815260200190815260200160002060009054906101000a900460ff1680610e6c57508273ffffffffffffffffffffffffffffffffffffffff168273ffffffffffffffffffffffffffffffffffffffff16145b905092915050565b6000600360008473ffffffffffffffffffffffffffffffffffffffff1673ffffffffffffffffffffffffffffffffffffffff1681526020019081526020016000209050610ec13384610da7565b610f00576040517f08c379a0000000000000000000000000000000000000000000000000000000008152600401610ef790614b85565b60405180910390fd5b8060000160008381526020019081526020016000206001016000610f249190613b75565b505050565b6000809054906101000a900460ff16610f4157600080fd5b8060018190555050565b610f53612090565b610f92576040517f08c379a0000000000000000000000000000000000000000000000000000000008152600401610f8990614bfe565b60405180910390fd5b80600f60006101000a81548173ffffffffffffffffffffffffffffffffffffffff021916908373ffffffffffffffffffffffffffffffffffffffff16021790555050565b60008060009054906101000a900460ff1615610ff6576001549050610ffa565b4290505b90565b600073ffffffffffffffffffffffffffffffffffffffff16600f60009054906101000a900473ffffffffffffffffffffffffffffffffffffffff1673ffffffffffffffffffffffffffffffffffffffff161461105857600080fd5b6000611062610fd6565b905060018081111561107057fe5b611084826007612e1e90919063ffffffff16565b600181111561108f57fe5b146110cf576040517f08c379a00000000000000000000000000000000000000000000000000000000081526004016110c690614c1e565b60405180910390fd5b60006110e5826007612a9690919063ffffffff16565b905060006110f38787612b6a565b90506000816002016000848152602001908152602001600020905060008160000160003373ffffffffffffffffffffffffffffffffffffffff1673ffffffffffffffffffffffffffffffffffffffff16815260200190815260200160002090506000801b8160000154141561119d576040517f08c379a000000000000000000000000000000000000000000000000000000000815260040161119490614ba5565b60405180910390fd5b806000015487876040516020016111b5929190614aba565b604051602081830303815290604052805190602001201461120b576040517f08c379a000000000000000000000000000000000000000000000000000000000815260040161120290614c7e565b60405180910390fd5b8060000160009055600061121e85612e5d565b9050611228613b62565b6040518060200160405280600d60009054906101000a900473ffffffffffffffffffffffffffffffffffffffff1673ffffffffffffffffffffffffffffffffffffffff16634ee2cd7e33866040518363ffffffff1660e01b8152600401611290929190614973565b60206040518083038186803b1580156112a857600080fd5b505afa1580156112bc573d6000803e3d6000fd5b505050506040513d601f19601f820116820180604052506112e09190810190614304565b8152509050886040516020016112f69190614a9f565b60405160208183030381529060405280519060200120836001018190555061132c898286600101612f3a9092919063ffffffff16565b60008b8b8860405160200161134393929190614a2b565b6040516020818303038152906040528051906020012090506113653382610e74565b8b873373ffffffffffffffffffffffffffffffffffffffff167fd04931ad32b4f942a0f169443ebd7f85a7d42c8b4310b4792243a065348836078e8e87600001516040516113b593929190614cfd565b60405180910390a4505050505050505050505050565b60006113e86113d8610fd6565b6007612a9690919063ffffffff16565b905090565b60008090505b8282905081101561146b5761145e83838381811061140d57fe5b9050608002016000013584848481811061142357fe5b9050608002016020013585858581811061143957fe5b9050608002016040013586868681811061144f57fe5b90506080020160600135610ffd565b80806001019150506113f3565b505050565b60008073ffffffffffffffffffffffffffffffffffffffff16600f60009054906101000a900473ffffffffffffffffffffffffffffffffffffffff1673ffffffffffffffffffffffffffffffffffffffff161461152657600f60009054906101000a900473ffffffffffffffffffffffffffffffffffffffff1673ffffffffffffffffffffffffffffffffffffffff163373ffffffffffffffffffffffffffffffffffffffff161461152157600080fd5b611667565b6000600e60009054906101000a900473ffffffffffffffffffffffffffffffffffffffff1673ffffffffffffffffffffffffffffffffffffffff1663aafd5e406040518163ffffffff1660e01b815260040161158190614bc5565b60206040518083038186803b15801561159957600080fd5b505afa1580156115ad573d6000803e3d6000fd5b505050506040513d601f19601f820116820180604052506115d19190810190613eaa565b90508073ffffffffffffffffffffffffffffffffffffffff16638a3ca36b336040518263ffffffff1660e01b815260040161160c9190614958565b60206040518083038186803b15801561162457600080fd5b505afa158015611638573d6000803e3d6000fd5b505050506040513d601f19601f8201168201806040525061165c91908101906140a3565b61166557600080fd5b505b6000611671610fd6565b90508083111561168057600080fd5b600a600085815260200190815260200160002060009054906101000a900460ff166116aa57600080fd5b6116b381612aad565b60006116bf8585613061565b9050600060056000838152602001908152602001600020905060006116ee846007612a9690919063ffffffff16565b905060006116fc8383613094565b90506001600381111561170b57fe5b81600381111561171757fe5b141561173d5761173182600761313390919063ffffffff16565b955050505050506118aa565b6002600381111561174a57fe5b81600381111561175657fe5b141561176a576000955050505050506118aa565b60038081111561177657fe5b81600381111561178257fe5b14156117ac576117a08360030154600761313390919063ffffffff16565b955050505050506118aa565b60006117c26001846131b190919063ffffffff16565b905060405180608001604052808a81526020018981526020018281526020016006805490508152506005600087815260200190815260200160002060008201518160000155602082015181600101556040820151816003015560608201518160040155905050600685908060018154018082558091505090600182039060005260206000200160009091929091909150555088817f5d80f93c41e95cacea0b9ce9bb825092d709fa503a70bb26ea3f536bf16946bd8a6040516118859190614cb9565b60405180910390a36118a181600761313390919063ffffffff16565b96505050505050505b92915050565b60008090505b82829050811015611b6b5760008383838181106118cf57fe5b90506020028101803560016080038336030381126118ec57600080fd5b80830192505050806060018035600160200383360303811261190d57600080fd5b8083019250508135905060208201915067ffffffffffffffff81111561193257600080fd5b60018102360382131561194457600080fd5b905014156119f5576119f083838381811061195b57fe5b905060200281018035600160800383360303811261197857600080fd5b808301925050506000013584848481811061198f57fe5b90506020028101803560016080038336030381126119ac57600080fd5b80830192505050602001358585858181106119c357fe5b90506020028101803560016080038336030381126119e057600080fd5b80830192505050604001356126e3565b611b5e565b611b5d838383818110611a0457fe5b9050602002810180356001608003833603038112611a2157600080fd5b8083019250505060000135848484818110611a3857fe5b9050602002810180356001608003833603038112611a5557600080fd5b8083019250505060200135858585818110611a6c57fe5b9050602002810180356001608003833603038112611a8957600080fd5b8083019250505060400135868686818110611aa057fe5b9050602002810180356001608003833603038112611abd57600080fd5b808301925050508060600180356001602003833603038112611ade57600080fd5b8083019250508135905060208201915067ffffffffffffffff811115611b0357600080fd5b600181023603821315611b1557600080fd5b8080601f016020809104026020016040519081016040528093929190818152602001838380828437600081840152601f19601f82011690508083019250505050505050610611565b5b80806001019150506118b6565b505050565b611b78612090565b611bb7576040517f08c379a0000000000000000000000000000000000000000000000000000000008152600401611bae90614bfe565b60405180910390fd5b600073ffffffffffffffffffffffffffffffffffffffff16600260009054906101000a900473ffffffffffffffffffffffffffffffffffffffff1673ffffffffffffffffffffffffffffffffffffffff167f8be0079c531659141344cd1fd0a4f28419497f9722a3daafe3b4186f6b6457e060405160405180910390a36000600260006101000a81548173ffffffffffffffffffffffffffffffffffffffff021916908373ffffffffffffffffffffffffffffffffffffffff160217905550565b6000611c95611c85610fd6565b6007612e1e90919063ffffffff16565b905090565b6060600360008473ffffffffffffffffffffffffffffffffffffffff1673ffffffffffffffffffffffffffffffffffffffff16815260200190815260200160002060000160008381526020019081526020016000206000018054600181600116156101000203166002900480601f016020809104026020016040519081016040528092919081815260200182805460018160011615610100020316600290048015611d865780601f10611d5b57610100808354040283529160200191611d86565b820191906000526020600020905b815481529060010190602001808311611d6957829003601f168201915b5050505050905092915050565b60606000611d9f610fd6565b90506000611db7826007612a9690919063ffffffff16565b90506060600680549050604051908082528060200260200182016040528015611dfa57816020015b611de7613bbd565b815260200190600190039081611ddf5790505b509050600080905060008090505b600680549050811015611eb65760006005600060068481548110611e2857fe5b90600052602060002001548152602001908152602001600020905060016003811115611e5057fe5b611e5a8287613094565b6003811115611e6557fe5b1415611ea8576040518060400160405280826000015481526020018260010154815250848481518110611e9457fe5b602002602001018190525082806001019350505b508080600101915050611e08565b5080604051908082528060200260200182016040528015611ef157816020015b611ede613bbd565b815260200190600190039081611ed65790505b50945060008090505b81811015611f3a57828181518110611f0e57fe5b6020026020010151868281518110611f2257fe5b60200260200101819052508080600101915050611efa565b505050505090565b611f4a612090565b611f89576040517f08c379a0000000000000000000000000000000000000000000000000000000008152600401611f8090614bfe565b60405180910390fd5b80600c6000820151816000015590505050565b6000600260009054906101000a900473ffffffffffffffffffffffffffffffffffffffff16905090565b611fce612090565b61200d576040517f08c379a000000000000000000000000000000000000000000000000000000000815260040161200490614bfe565b60405180910390fd5b600a600082815260200190815260200160002060009054906101000a900460ff161561208d576000600a600083815260200190815260200160002060006101000a81548160ff021916908315150217905550807fefdf15ca0f9402bd4e933b0edb0db65b23cc50d27cb010d8abcadaae4fa944e560405160405180910390a25b50565b6000600260009054906101000a900473ffffffffffffffffffffffffffffffffffffffff1673ffffffffffffffffffffffffffffffffffffffff166120d3613206565b73ffffffffffffffffffffffffffffffffffffffff1614905090565b6000600a600083815260200190815260200160002060009054906101000a900460ff169050919050565b6000809054906101000a900460ff1681565b60008073ffffffffffffffffffffffffffffffffffffffff16600f60009054906101000a900473ffffffffffffffffffffffffffffffffffffffff1673ffffffffffffffffffffffffffffffffffffffff16146121e157600f60009054906101000a900473ffffffffffffffffffffffffffffffffffffffff1673ffffffffffffffffffffffffffffffffffffffff163373ffffffffffffffffffffffffffffffffffffffff16146121dc57600080fd5b612322565b6000600e60009054906101000a900473ffffffffffffffffffffffffffffffffffffffff1673ffffffffffffffffffffffffffffffffffffffff1663aafd5e406040518163ffffffff1660e01b815260040161223c90614bc5565b60206040518083038186803b15801561225457600080fd5b505afa158015612268573d6000803e3d6000fd5b505050506040513d601f19601f8201168201806040525061228c9190810190613eaa565b90508073ffffffffffffffffffffffffffffffffffffffff16638a3ca36b336040518263ffffffff1660e01b81526004016122c79190614958565b60206040518083038186803b1580156122df57600080fd5b505afa1580156122f3573d6000803e3d6000fd5b505050506040513d601f19601f8201168201806040525061231791908101906140a3565b61232057600080fd5b505b61232c838361320e565b9050508091505092915050565b60008073ffffffffffffffffffffffffffffffffffffffff16600f60009054906101000a900473ffffffffffffffffffffffffffffffffffffffff1673ffffffffffffffffffffffffffffffffffffffff16146123ef57600f60009054906101000a900473ffffffffffffffffffffffffffffffffffffffff1673ffffffffffffffffffffffffffffffffffffffff163373ffffffffffffffffffffffffffffffffffffffff16146123ea57600080fd5b612530565b6000600e60009054906101000a900473ffffffffffffffffffffffffffffffffffffffff1673ffffffffffffffffffffffffffffffffffffffff1663aafd5e406040518163ffffffff1660e01b815260040161244a90614bc5565b60206040518083038186803b15801561246257600080fd5b505afa158015612476573d6000803e3d6000fd5b505050506040513d601f19601f8201168201806040525061249a9190810190613eaa565b90508073ffffffffffffffffffffffffffffffffffffffff16638a3ca36b336040518263ffffffff1660e01b81526004016124d59190614958565b60206040518083038186803b1580156124ed57600080fd5b505afa158015612501573d6000803e3d6000fd5b505050506040513d601f19601f8201168201806040525061252591908101906140a3565b61252e57600080fd5b505b600080606061253f868661320e565b925092509250828190612588576040517f08c379a000000000000000000000000000000000000000000000000000000000815260040161257f9190614ae3565b60405180910390fd5b5081935050505092915050565b60408251146125d9576040517f08c379a00000000000000000000000000000000000000000000000000000000081526004016125d090614c3e565b60405180910390fd5b81600360003373ffffffffffffffffffffffffffffffffffffffff1673ffffffffffffffffffffffffffffffffffffffff16815260200190815260200160002060000160008381526020019081526020016000206000019080519060200190612643929190613ae2565b505050565b6000600360003373ffffffffffffffffffffffffffffffffffffffff1673ffffffffffffffffffffffffffffffffffffffff16815260200190815260200160002060010160008373ffffffffffffffffffffffffffffffffffffffff1673ffffffffffffffffffffffffffffffffffffffff16815260200190815260200160002060006101000a81548160ff02191690831515021790555050565b600073ffffffffffffffffffffffffffffffffffffffff16600f60009054906101000a900473ffffffffffffffffffffffffffffffffffffffff1673ffffffffffffffffffffffffffffffffffffffff161461273e57600080fd5b6000801b81141561274e57600080fd5b6000612758610fd6565b90506000600181111561276757fe5b61277b826007612e1e90919063ffffffff16565b600181111561278657fe5b1461279057600080fd5b61279981612aad565b60006127af826007612a9690919063ffffffff16565b905060006127bd8686612b6a565b9050600160038111156127cc57fe5b6127d68284613094565b60038111156127e157fe5b146127eb57600080fd5b81816003018190555060008160020160008481526020019081526020016000209050848160000160003373ffffffffffffffffffffffffffffffffffffffff1673ffffffffffffffffffffffffffffffffffffffff1681526020019081526020016000206000018190555086833373ffffffffffffffffffffffffffffffffffffffff167f879c67d036f174a10ea491cf7281d05af9b906660b4f26727d866aec0cf9147c8960405161289e9190614cb9565b60405180910390a450505050505050565b6060600360008473ffffffffffffffffffffffffffffffffffffffff1673ffffffffffffffffffffffffffffffffffffffff16815260200190815260200160002060000160008381526020019081526020016000206001018054600181600116156101000203166002900480601f01602080910402602001604051908101604052809291908181526020018280546001816001161561010002031660029004801561299b5780601f106129705761010080835404028352916020019161299b565b820191906000526020600020905b81548152906001019060200180831161297e57829003601f168201915b5050505050905092915050565b6129b0612090565b6129ef576040517f08c379a00000000000000000000000000000000000000000000000000000000081526004016129e690614bfe565b60405180910390fd5b6129f8816133b8565b50565b6001600360003373ffffffffffffffffffffffffffffffffffffffff1673ffffffffffffffffffffffffffffffffffffffff16815260200190815260200160002060010160008373ffffffffffffffffffffffffffffffffffffffff1673ffffffffffffffffffffffffffffffffffffffff16815260200190815260200160002060006101000a81548160ff02191690831515021790555050565b6000612aa283836134e8565b508091505092915050565b612ac181600761358f90919063ffffffff16565b612aca57612b1d565b6000612ae0826007612a9690919063ffffffff16565b9050600c6004600083815260200190815260200160002060010160008201548160000155905050612b1b8260076135b090919063ffffffff16565b505b50565b612b28613b62565b6040518060200160405280670de0b6b3a7640000612b57856000015187600001516135d690919063ffffffff16565b81612b5e57fe5b04815250905092915050565b600060056000612b7a8585613061565b8152602001908152602001600020905092915050565b60001982600401541415612ba357612cfd565b600080612bc8612bb68560030154613646565b8460010161378190919063ffffffff16565b9150915081612c0c576040517f08c379a0000000000000000000000000000000000000000000000000000000008152600401612c0390614b25565b60405180910390fd5b6000600160068054905003905060006005600060068481548110612c2c57fe5b9060005260206000200154815260200190815260200160002090508560040154816004018190555060068281548110612c6157fe5b90600052602060002001546006876004015481548110612c7d57fe5b906000526020600020018190555060068281548110612c9857fe5b90600052602060002001600090556000198660040181905550856000015486600301547f67565e6a3e804c4e180134cb2885e32142229de3ca125701318af11658ee4988886001015486604051612cf0929190614cd4565b60405180910390a3505050505b5050565b60008260020154604051602001612d189190614a9f565b604051602081830303815290604052805190602001208214905092915050565b612d40613b62565b816000016000836002015481526020019081526020016000206040518060200160405290816000820154815250509050919050565b612d7d613b62565b6040518060200160405280612dbd8460000151612daf670de0b6b3a764000088600001516135d690919063ffffffff16565b61386a90919063ffffffff16565b815250905092915050565b612dd0613b62565b6040518060200160405280612df6846000015186600001516131b190919063ffffffff16565b815250905092915050565b6000612e0c826138b4565b60000151836000015111905092915050565b6000612e4a6002612e3c85600201548561386a90919063ffffffff16565b6138ec90919063ffffffff16565b6001811115612e5557fe5b905092915050565b600080600460008481526020019081526020016000209050600081600001541415612f2d57600d60009054906101000a900473ffffffffffffffffffffffffffffffffffffffff1673ffffffffffffffffffffffffffffffffffffffff16639711715a6040518163ffffffff1660e01b8152600401602060405180830381600087803b158015612eec57600080fd5b505af1158015612f00573d6000803e3d6000fd5b505050506040513d601f19601f82011682018060405250612f249190810190614304565b81600001819055505b8060000154915050919050565b612f658184600101604051806020016040529081600082015481525050612dc890919063ffffffff16565b8360010160008201518160000155905050612fb281846000016000858152602001908152602001600020604051806020016040529081600082015481525050612dc890919063ffffffff16565b836000016000848152602001908152602001600020600082015181600001559050508260020154821415801561304d575061304c8360000160008560020154815260200190815260200160002060405180602001604052908160008201548152505084600001600085815260200190815260200160002060405180602001604052908160008201548152505061393690919063ffffffff16565b5b1561305c578183600201819055505b505050565b60008282604051602001613076929190614a02565b60405160208183030381529060405280519060200120905092915050565b600080836003015414156130ab576000905061312d565b818360030154101561311357600083600201600085600301548152602001908152602001600020905060006130f86130e68660030154613646565b8360010161378190919063ffffffff16565b5090508061310757600161310a565b60025b9250505061312d565b8183600301541415613128576001905061312d565b600390505b92915050565b600080613160600161315286600001548661394b90919063ffffffff16565b6131b190919063ffffffff16565b9050600061317c600286600201546135d690919063ffffffff16565b90506131a761319482846135d690919063ffffffff16565b86600101546131b190919063ffffffff16565b9250505092915050565b6000808284019050838110156131fc576040517f08c379a00000000000000000000000000000000000000000000000000000000081526004016131f390614b65565b60405180910390fd5b8091505092915050565b600033905090565b6000806060600061321f8686612b6a565b9050600061323e61322e610fd6565b6007612a9690919063ffffffff16565b9050600061324c8383613094565b90506001600381111561325b57fe5b81600381111561326757fe5b141561329a57600080809050604051806060016040528060268152602001614fef602691399550955095505050506133b1565b600260038111156132a757fe5b8160038111156132b357fe5b141561332057600083600201600085600301548152602001908152602001600020905060006132fa6132e88660030154613646565b8360010161378190919063ffffffff16565b9150506001816040518060200160405280600081525097509750975050505050506133b1565b60038081111561332c57fe5b81600381111561333857fe5b141561336b57600080809050604051806060016040528060248152602001615015602491399550955095505050506133b1565b6000808090506040518060400160405280601981526020017f507269636520776173206e6576657220726571756573746564000000000000008152509550955095505050505b9250925092565b600073ffffffffffffffffffffffffffffffffffffffff168173ffffffffffffffffffffffffffffffffffffffff161415613428576040517f08c379a000000000000000000000000000000000000000000000000000000000815260040161341f90614b45565b60405180910390fd5b8073ffffffffffffffffffffffffffffffffffffffff16600260009054906101000a900473ffffffffffffffffffffffffffffffffffffffff1673ffffffffffffffffffffffffffffffffffffffff167f8be0079c531659141344cd1fd0a4f28419497f9722a3daafe3b4186f6b6457e060405160405180910390a380600260006101000a81548173ffffffffffffffffffffffffffffffffffffffff021916908373ffffffffffffffffffffffffffffffffffffffff16021790555050565b6000806000846001015490508460010154841161351357846000015485600101549250925050613588565b600061352d600287600201546135d690919063ffffffff16565b905061355481613546838861386a90919063ffffffff16565b6135d690919063ffffffff16565b92508183111561357d57613576600187600001546131b190919063ffffffff16565b9350613585565b856000015493505b50505b9250929050565b60008061359c84846134e8565b509050808460000154141591505092915050565b6135ba82826134e8565b8360000160008560010160008491905055839190505550505050565b6000808314156135e95760009050613640565b60008284029050828482816135fa57fe5b041461363b576040517f08c379a000000000000000000000000000000000000000000000000000000000815260040161363290614bde565b60405180910390fd5b809150505b92915050565b61364e613b62565b600060046000848152602001908152602001600020600001549050600081141561368b57604051806020016040528060001981525091505061377c565b613693613b62565b6040518060200160405280600d60009054906101000a900473ffffffffffffffffffffffffffffffffffffffff1673ffffffffffffffffffffffffffffffffffffffff1663981b24d0856040518263ffffffff1660e01b81526004016136f99190614cb9565b60206040518083038186803b15801561371157600080fd5b505afa158015613725573d6000803e3d6000fd5b505050506040513d601f19601f820116820180604052506137499190810190614304565b8152509050613777600b60405180602001604052908160008201548152505082612b2090919063ffffffff16565b925050505b919050565b60008061378c613b62565b6137a9606461379b60326138b4565b61399590919063ffffffff16565b90506137d6848660010160405180602001604052908160008201548152505061393690919063ffffffff16565b8015613848575061384781613839876001016040518060200160405290816000820154815250508860000160008a600201548152602001908152602001600020604051806020016040529081600082015481525050612d7590919063ffffffff16565b61393690919063ffffffff16565b5b1561385d576001925084600201549150613862565b600092505b509250929050565b60006138ac83836040518060400160405280601a81526020017f536166654d6174683a206469766973696f6e206279207a65726f0000000000008152506139ca565b905092915050565b6138bc613b62565b60405180602001604052806138e2670de0b6b3a7640000856135d690919063ffffffff16565b8152509050919050565b600061392e83836040518060400160405280601881526020017f536166654d6174683a206d6f64756c6f206279207a65726f0000000000000000815250613a2b565b905092915050565b60008160000151836000015111905092915050565b600061398d83836040518060400160405280601e81526020017f536166654d6174683a207375627472616374696f6e206f766572666c6f770000815250613a87565b905092915050565b61399d613b62565b60405180602001604052806139bf84866000015161386a90919063ffffffff16565b815250905092915050565b60008083118290613a11576040517f08c379a0000000000000000000000000000000000000000000000000000000008152600401613a089190614ae3565b60405180910390fd5b506000838581613a1d57fe5b049050809150509392505050565b6000808314158290613a73576040517f08c379a0000000000000000000000000000000000000000000000000000000008152600401613a6a9190614ae3565b60405180910390fd5b50828481613a7d57fe5b0690509392505050565b6000838311158290613acf576040517f08c379a0000000000000000000000000000000000000000000000000000000008152600401613ac69190614ae3565b60405180910390fd5b5060008385039050809150509392505050565b828054600181600116156101000203166002900490600052602060002090601f016020900481019282601f10613b2357805160ff1916838001178555613b51565b82800160010185558215613b51579182015b82811115613b50578251825591602001919060010190613b35565b5b509050613b5e9190613bda565b5090565b6040518060200160405280600081525090565b50805460018160011615610100020316600290046000825580601f10613b9b5750613bba565b601f016020900490600052602060002090810190613bb99190613bda565b5b50565b604051806040016040528060008019168152602001600081525090565b613bfc91905b80821115613bf8576000816000905550600101613be0565b5090565b90565b600081359050613c0e81614f3d565b92915050565b600081519050613c2381614f3d565b92915050565b60008083601f840112613c3b57600080fd5b8235905067ffffffffffffffff811115613c5457600080fd5b602083019150836020820283011115613c6c57600080fd5b9250929050565b600082601f830112613c8457600080fd5b8135613c97613c9282614d61565b614d34565b91508181835260208401935060208101905083856040840282011115613cbc57600080fd5b60005b83811015613cec5781613cd28882613dd3565b845260208401935060408301925050600181019050613cbf565b5050505092915050565b60008083601f840112613d0857600080fd5b8235905067ffffffffffffffff811115613d2157600080fd5b602083019150836080820283011115613d3957600080fd5b9250929050565b600081519050613d4f81614f54565b92915050565b600081359050613d6481614f6b565b92915050565b600082601f830112613d7b57600080fd5b8135613d8e613d8982614d89565b614d34565b91508082526020830160208301858383011115613daa57600080fd5b613db5838284614edd565b50505092915050565b600081359050613dcd81614f82565b92915050565b600060408284031215613de557600080fd5b613def6040614d34565b90506000613dff84828501613d55565b6000830152506020613e1384828501613e57565b60208301525092915050565b600060208284031215613e3157600080fd5b613e3b6020614d34565b90506000613e4b84828501613e57565b60008301525092915050565b600081359050613e6681614f99565b92915050565b600081519050613e7b81614f99565b92915050565b600060208284031215613e9357600080fd5b6000613ea184828501613bff565b91505092915050565b600060208284031215613ebc57600080fd5b6000613eca84828501613c14565b91505092915050565b60008060408385031215613ee657600080fd5b6000613ef485828601613bff565b9250506020613f0585828601613bff565b9150509250929050565b60008060408385031215613f2257600080fd5b6000613f3085828601613bff565b9250506020613f4185828601613d55565b9150509250929050565b600080600060608486031215613f6057600080fd5b6000613f6e86828701613bff565b9350506020613f7f86828701613d55565b925050604084013567ffffffffffffffff811115613f9c57600080fd5b613fa886828701613d6a565b9150509250925092565b600080600060608486031215613fc757600080fd5b6000613fd586828701613bff565b9350506020613fe686828701613e57565b925050604084013567ffffffffffffffff81111561400357600080fd5b61400f86828701613c73565b9150509250925092565b6000806020838503121561402c57600080fd5b600083013567ffffffffffffffff81111561404657600080fd5b61405285828601613c29565b92509250509250929050565b6000806020838503121561407157600080fd5b600083013567ffffffffffffffff81111561408b57600080fd5b61409785828601613cf6565b92509250509250929050565b6000602082840312156140b557600080fd5b60006140c384828501613d40565b91505092915050565b6000602082840312156140de57600080fd5b60006140ec84828501613d55565b91505092915050565b6000806040838503121561410857600080fd5b600061411685828601613d55565b925050602061412785828601613e57565b9150509250929050565b60008060006060848603121561414657600080fd5b600061415486828701613d55565b935050602061416586828701613e57565b925050604061417686828701613d55565b9150509250925092565b6000806000806080858703121561419657600080fd5b60006141a487828801613d55565b94505060206141b587828801613e57565b93505060406141c687828801613d55565b925050606085013567ffffffffffffffff8111156141e357600080fd5b6141ef87828801613d6a565b91505092959194509250565b6000806000806080858703121561421157600080fd5b600061421f87828801613d55565b945050602061423087828801613e57565b935050604061424187828801613dbe565b925050606061425287828801613dbe565b91505092959194509250565b6000806040838503121561427157600080fd5b600083013567ffffffffffffffff81111561428b57600080fd5b61429785828601613d6a565b92505060206142a885828601613d55565b9150509250929050565b6000602082840312156142c457600080fd5b60006142d284828501613e1f565b91505092915050565b6000602082840312156142ed57600080fd5b60006142fb84828501613e57565b91505092915050565b60006020828403121561431657600080fd5b600061432484828501613e6c565b91505092915050565b600061433983836148d4565b60408301905092915050565b61434e81614e95565b82525050565b61435d81614e26565b82525050565b600061436e82614dc5565b6143788185614df3565b935061438383614db5565b8060005b838110156143b457815161439b888261432d565b97506143a683614de6565b925050600181019050614387565b5085935050505092915050565b6143ca81614e38565b82525050565b6143d981614e44565b82525050565b6143e881614e44565b82525050565b60006143f982614dd0565b6144038185614e04565b9350614413818560208601614eec565b61441c81614f1f565b840191505092915050565b61443081614ea7565b82525050565b61443f81614e61565b82525050565b600061445082614ddb565b61445a8185614e15565b935061446a818560208601614eec565b61447381614f1f565b840191505092915050565b600061448b602883614e15565b91507f4e6f7420617574686f72697a656420746f2073656e6420746f2074686973207260008301527f6563697069656e740000000000000000000000000000000000000000000000006020830152604082019050919050565b60006144f1602983614e15565b91507f43616e2774207265736f6c766520616e20756e7265736f6c766564207072696360008301527f65207265717565737400000000000000000000000000000000000000000000006020830152604082019050919050565b6000614557602683614e15565b91507f4f776e61626c653a206e6577206f776e657220697320746865207a65726f206160008301527f64647265737300000000000000000000000000000000000000000000000000006020830152604082019050919050565b60006145bd601b83614e15565b91507f536166654d6174683a206164646974696f6e206f766572666c6f7700000000006000830152602082019050919050565b60006145fd602083614e15565b91507f4e6f7420617574686f72697a656420746f2072656d6f7665206d6573736167656000830152602082019050919050565b600061463d603883614e15565b91507f43616e6e6f742072657665616c20616e20756e636f6d6d6974746564206f722060008301527f70726576696f75736c792072657665616c6564206861736800000000000000006020830152604082019050919050565b7f5265676973747279000000000000000000000000000000000000000000000000815250565b60006146c9602183614e15565b91507f536166654d6174683a206d756c7469706c69636174696f6e206f766572666c6f60008301527f77000000000000000000000000000000000000000000000000000000000000006020830152604082019050919050565b600061472f602083614e15565b91507f4f776e61626c653a2063616c6c6572206973206e6f7420746865206f776e65726000830152602082019050919050565b600061476f602783614e15565b91507f43616e6e6f742072657665616c207768696c6520696e2074686520636f6d6d6960008301527f74207068617365000000000000000000000000000000000000000000000000006020830152604082019050919050565b60006147d5601e83614e15565b91507f5075626c6963206b6579206973207468652077726f6e67206c656e67746800006000830152602082019050919050565b6000614815603683614e15565b91507f4f6e6c79207265747269657665207265776172647320666f7220766f7465732060008301527f7265736f6c76656420696e2073616d6520726f756e64000000000000000000006020830152604082019050919050565b600061487b603483614e15565b91507f436f6d6d6974746564206861736820646f65736e2774206d617463682072657660008301527f65616c656420707269636520616e642073616c740000000000000000000000006020830152604082019050919050565b6040820160008201516148ea60008501826143d0565b5060208201516148fd602085018261491f565b50505050565b602082016000820151614919600085018261491f565b50505050565b61492881614e8b565b82525050565b61493781614e8b565b82525050565b60006020820190506149526000830184614354565b92915050565b600060208201905061496d6000830184614345565b92915050565b60006040820190506149886000830185614345565b614995602083018461492e565b9392505050565b60006040820190506149b16000830185614354565b6149be602083018461492e565b9392505050565b600060208201905081810360008301526149df8184614363565b905092915050565b60006020820190506149fc60008301846143c1565b92915050565b6000604082019050614a1760008301856143df565b614a24602083018461492e565b9392505050565b6000606082019050614a4060008301866143df565b614a4d602083018561492e565b614a5a604083018461492e565b949350505050565b60006020820190508181036000830152614a7c81846143ee565b905092915050565b6000602082019050614a996000830184614427565b92915050565b6000602082019050614ab46000830184614436565b92915050565b6000604082019050614acf6000830185614436565b614adc6020830184614436565b9392505050565b60006020820190508181036000830152614afd8184614445565b905092915050565b60006020820190508181036000830152614b1e8161447e565b9050919050565b60006020820190508181036000830152614b3e816144e4565b9050919050565b60006020820190508181036000830152614b5e8161454a565b9050919050565b60006020820190508181036000830152614b7e816145b0565b9050919050565b60006020820190508181036000830152614b9e816145f0565b9050919050565b60006020820190508181036000830152614bbe81614630565b9050919050565b6000602082019050614bd960008301614696565b919050565b60006020820190508181036000830152614bf7816146bc565b9050919050565b60006020820190508181036000830152614c1781614722565b9050919050565b60006020820190508181036000830152614c3781614762565b9050919050565b60006020820190508181036000830152614c57816147c8565b9050919050565b60006020820190508181036000830152614c7781614808565b9050919050565b60006020820190508181036000830152614c978161486e565b9050919050565b6000602082019050614cb36000830184614903565b92915050565b6000602082019050614cce600083018461492e565b92915050565b6000604082019050614ce9600083018561492e565b614cf66020830184614436565b9392505050565b6000606082019050614d12600083018661492e565b614d1f6020830185614436565b614d2c604083018461492e565b949350505050565b6000604051905081810181811067ffffffffffffffff82111715614d5757600080fd5b8060405250919050565b600067ffffffffffffffff821115614d7857600080fd5b602082029050602081019050919050565b600067ffffffffffffffff821115614da057600080fd5b601f19601f8301169050602081019050919050565b6000819050602082019050919050565b600081519050919050565b600081519050919050565b600081519050919050565b6000602082019050919050565b600082825260208201905092915050565b600082825260208201905092915050565b600082825260208201905092915050565b6000614e3182614e6b565b9050919050565b60008115159050919050565b6000819050919050565b6000819050614e5c82614f30565b919050565b6000819050919050565b600073ffffffffffffffffffffffffffffffffffffffff82169050919050565b6000819050919050565b6000614ea082614eb9565b9050919050565b6000614eb282614e4e565b9050919050565b6000614ec482614ecb565b9050919050565b6000614ed682614e6b565b9050919050565b82818337600083830152505050565b60005b83811015614f0a578082015181840152602081019050614eef565b83811115614f19576000848401525b50505050565b6000601f19601f8301169050919050565b60028110614f3a57fe5b50565b614f4681614e26565b8114614f5157600080fd5b50565b614f5d81614e38565b8114614f6857600080fd5b50565b614f7481614e44565b8114614f7f57600080fd5b50565b614f8b81614e61565b8114614f9657600080fd5b50565b614fa281614e8b565b8114614fad57600080fd5b50565b80826002018190555060018260000181905550600082600101819055505050565b6000614fdc826138b4565b6000015183600001511090509291505056fe5468652063757272656e7420766f74696e6720726f756e6420686173206e6f7420656e64656450726963652077696c6c20626520766f746564206f6e20696e2074686520667574757265a365627a7a7231582080b512101568c4a3ebf0de0e555478dea79aa1252f4d9475d526b34d347851fb6c6578706572696d656e74616cf564736f6c634300050d0040",
  "source": "pragma solidity ^0.5.0;\n\npragma experimental ABIEncoderV2;\n\nimport \"./EncryptedSender.sol\";\nimport \"./Finder.sol\";\nimport \"./FixedPoint.sol\";\nimport \"./OracleInterface.sol\";\nimport \"./Registry.sol\";\nimport \"./ResultComputation.sol\";\nimport \"./Testable.sol\";\nimport \"./VoteTiming.sol\";\nimport \"./VotingToken.sol\";\nimport \"./VotingInterface.sol\";\n\nimport \"@openzeppelin/contracts/ownership/Ownable.sol\";\nimport \"@openzeppelin/contracts/math/SafeMath.sol\";\n\n\n/**\n * @title Voting system for Oracle.\n * @dev Handles receiving and resolving price requests via a commit-reveal voting scheme.\n */\ncontract Voting is Testable, Ownable, OracleInterface, VotingInterface, EncryptedSender {\n    using FixedPoint for FixedPoint.Unsigned;\n    using SafeMath for uint;\n    using VoteTiming for VoteTiming.Data;\n    using ResultComputation for ResultComputation.Data;\n\n    // Identifies a unique price request for which the Oracle will always return the same value.\n    // Tracks ongoing votes as well as the result of the vote.\n    struct PriceRequest {\n        bytes32 identifier;\n        uint time;\n\n        // A map containing all votes for this price in various rounds.\n        mapping(uint => VoteInstance) voteInstances;\n\n        // If in the past, this was the voting round where this price was resolved. If current or the upcoming round,\n        // this is the voting round where this price will be voted on, but not necessarily resolved.\n        uint lastVotingRound;\n\n        // The index in the `pendingPriceRequests` that references this PriceRequest. A value of UINT_MAX means that\n        // this PriceRequest is resolved and has been cleaned up from `pendingPriceRequests`.\n        uint index;\n    }\n\n    struct VoteInstance {\n        // Maps (voterAddress) to their submission.\n        mapping(address => VoteSubmission) voteSubmissions;\n\n        // The data structure containing the computed voting results.\n        ResultComputation.Data resultComputation;\n    }\n\n    struct VoteSubmission {\n        // A bytes32 of `0` indicates no commit or a commit that was already revealed.\n        bytes32 commit;\n\n        // The hash of the value that was revealed.\n        // Note: this is only used for computation of rewards.\n        bytes32 revealHash;\n    }\n\n    // Captures the necessary data for making a commitment.\n    // Used as a parameter when making batch commitments.\n    // Not used as a data structure for storage.\n    struct Commitment {\n        bytes32 identifier;\n\n        uint time;\n\n        bytes32 hash;\n\n        bytes encryptedVote;\n    }\n\n    // Captures the necessary data for revealing a vote.\n    // Used as a parameter when making batch reveals.\n    // Not used as a data structure for storage.\n    struct Reveal {\n        bytes32 identifier;\n\n        uint time;\n\n        int price;\n\n        int salt;\n    }\n\n    struct Round {\n        // Voting token snapshot ID for this round. If this is 0, no snapshot has been taken.\n        uint snapshotId;\n\n        // Inflation rate set for this round.\n        FixedPoint.Unsigned inflationRate;\n    }\n\n    // Represents the status a price request has.\n    enum RequestStatus {\n        // Was never requested.\n        NotRequested,\n        // Is being voted on in the current round.\n        Active,\n        // Was resolved in a previous round.\n        Resolved,\n        // Is scheduled to be voted on in a future round.\n        Future\n    }\n\n    // Maps round numbers to the rounds.\n    mapping(uint => Round) private rounds;\n\n    // Maps price request IDs to the PriceRequest struct.\n    mapping(bytes32 => PriceRequest) private priceRequests;\n\n    // Price request ids for price requests that haven't yet been marked as resolved. These requests may be for future\n    // rounds.\n    bytes32[] private pendingPriceRequests;\n\n    VoteTiming.Data private voteTiming;\n\n    // The set of identifiers the oracle can provide verified prices for.\n    mapping(bytes32 => bool) private supportedIdentifiers;\n\n    // Percentage of the total token supply that must be used in a vote to create a valid price resolution.\n    // 1 == 100%.\n    FixedPoint.Unsigned private gatPercentage;\n\n    // Global setting for the rate of inflation per vote. This is the percentage of the snapshotted total supply that\n    // should be split among the correct voters. Note: this value is used to set per-round inflation at the beginning\n    // of each round.\n    // 1 = 100%\n    FixedPoint.Unsigned private inflationRate;\n\n    // Reference to the voting token.\n    VotingToken private votingToken;\n\n    // Reference to the Finder.\n    Finder private finder;\n\n    // If non-zero, this contract has been migrated to this address. All voters and financial contracts should query the\n    // new address only.\n    address private migratedAddress;\n\n    // Max value of an unsigned integer.\n    uint constant private UINT_MAX = ~uint(0);\n\n    event VoteCommitted(address indexed voter, uint indexed roundId, bytes32 indexed identifier, uint time);\n\n    event VoteRevealed(\n        address indexed voter,\n        uint indexed roundId,\n        bytes32 indexed identifier,\n        uint time,\n        int price,\n        uint numTokens\n    );\n\n    event RewardsRetrieved(address indexed voter, uint indexed rewardsRoundId, uint numTokens);\n\n    event PriceRequestAdded(uint indexed votingRoundId, bytes32 indexed identifier, uint time);\n\n    event PriceResolved(uint indexed resolutionRoundId, bytes32 indexed identifier, uint time, int price);\n\n    event SupportedIdentifierAdded(bytes32 indexed identifier);\n\n    event SupportedIdentifierRemoved(bytes32 indexed identifier);\n\n    /**\n     * @notice Construct the Voting contract.\n     * @param phaseLength length of the commit and reveal phases in seconds.\n     * @param _gatPercentage percentage of the total token supply that must be used in a vote to create a valid price\n     * resolution.\n     * @param _isTest whether this contract is being constructed for the purpose of running automated tests.\n     */\n    constructor(\n        uint phaseLength,\n        FixedPoint.Unsigned memory _gatPercentage,\n        FixedPoint.Unsigned memory _inflationRate,\n        address _votingToken,\n        address _finder,\n        bool _isTest\n    ) public Testable(_isTest) {\n        voteTiming.init(phaseLength);\n        // TODO(#779): GAT percentage must be < 100%\n        require(_gatPercentage.isLessThan(1));\n        gatPercentage = _gatPercentage;\n        inflationRate = _inflationRate;\n        votingToken = VotingToken(_votingToken);\n        finder = Finder(_finder);\n    }\n\n    modifier onlyRegisteredDerivative() {\n        if (migratedAddress != address(0)) {\n            require(msg.sender == migratedAddress);\n        } else {\n            Registry registry = Registry(finder.getImplementationAddress(\"Registry\"));\n            // TODO(#779): Must be registered derivative\n            require(registry.isDerivativeRegistered(msg.sender));\n        }\n        _;\n    }\n\n    modifier onlyIfNotMigrated() {\n        require(migratedAddress == address(0));\n        _;\n    }\n\n    function requestPrice(bytes32 identifier, uint time)\n        external\n        onlyRegisteredDerivative()\n        returns (uint expectedTime)\n    {\n        uint blockTime = getCurrentTime();\n        // TODO(#779): Price request must be for a time in the past\n        require(time <= blockTime);\n        // TODO(#779): Price request for unsupported identifier\n        require(supportedIdentifiers[identifier]);\n\n        // Must ensure the round is updated here so the requested price will be voted on in the next commit cycle.\n        _updateRound(blockTime);\n\n        bytes32 priceRequestId = _encodePriceRequest(identifier, time);\n        PriceRequest storage priceRequest = priceRequests[priceRequestId];\n        uint currentRoundId = voteTiming.computeCurrentRoundId(blockTime);\n\n        RequestStatus requestStatus = _getRequestStatus(priceRequest, currentRoundId);\n        if (requestStatus == RequestStatus.Active) {\n            return voteTiming.computeEstimatedRoundEndTime(currentRoundId);\n        } else if (requestStatus == RequestStatus.Resolved) {\n            return 0;\n        } else if (requestStatus == RequestStatus.Future) {\n            return voteTiming.computeEstimatedRoundEndTime(priceRequest.lastVotingRound);\n        }\n\n        // Price has never been requested.\n        // Price requests always go in the next round, so add 1 to the computed current round.\n        uint nextRoundId = currentRoundId.add(1);\n\n        priceRequests[priceRequestId] = PriceRequest({\n            identifier: identifier,\n            time: time,\n            lastVotingRound: nextRoundId,\n            index: pendingPriceRequests.length\n        });\n        pendingPriceRequests.push(priceRequestId);\n        emit PriceRequestAdded(nextRoundId, identifier, time);\n\n        // Estimate the end of next round and return the time.\n        return voteTiming.computeEstimatedRoundEndTime(nextRoundId);\n    }\n\n    function batchCommit(Commitment[] calldata commits) external {\n        for (uint i = 0; i < commits.length; i++) {\n            if (commits[i].encryptedVote.length == 0) {\n                commitVote(commits[i].identifier, commits[i].time, commits[i].hash);\n            } else {\n                commitAndPersistEncryptedVote(\n                    commits[i].identifier,\n                    commits[i].time,\n                    commits[i].hash,\n                    commits[i].encryptedVote);\n            }\n        }\n    }\n\n    function batchReveal(Reveal[] calldata reveals) external {\n        for (uint i = 0; i < reveals.length; i++) {\n            revealVote(reveals[i].identifier, reveals[i].time, reveals[i].price, reveals[i].salt);\n        }\n    }\n\n    /**\n     * @notice Disables this Voting contract in favor of the migrated one.\n     */\n    function setMigrated(address newVotingAddress) external onlyOwner {\n        migratedAddress = newVotingAddress;\n    }\n\n    /**\n     * @notice Adds the provided identifier as a supported identifier. Price requests using this identifier will be\n     * succeed after this call.\n     */\n    function addSupportedIdentifier(bytes32 identifier) external onlyOwner {\n        if (!supportedIdentifiers[identifier]) {\n            supportedIdentifiers[identifier] = true;\n            emit SupportedIdentifierAdded(identifier);\n        }\n    }\n\n    /**\n     * @notice Removes the identifier from the whitelist. Price requests using this identifier will no longer succeed\n     * after this call.\n     */\n    function removeSupportedIdentifier(bytes32 identifier) external onlyOwner {\n        if (supportedIdentifiers[identifier]) {\n            supportedIdentifiers[identifier] = false;\n            emit SupportedIdentifierRemoved(identifier);\n        }\n    }\n\n    function isIdentifierSupported(bytes32 identifier) external view returns (bool) {\n        return supportedIdentifiers[identifier];\n    }\n\n    function hasPrice(bytes32 identifier, uint time) external view onlyRegisteredDerivative() returns (bool _hasPrice) {\n        (_hasPrice, ,) = _getPriceOrError(identifier, time);\n    }\n\n    function getPrice(bytes32 identifier, uint time) external view onlyRegisteredDerivative() returns (int) {\n        (bool _hasPrice, int price, string memory message) = _getPriceOrError(identifier, time);\n\n        // TODO(#779): If the price wasn't available, revert with the provided message.\n        require(_hasPrice, message);\n        return price;\n    }\n\n    function getPendingRequests() external view returns (PendingRequest[] memory pendingRequests) {\n        uint blockTime = getCurrentTime();\n        uint currentRoundId = voteTiming.computeCurrentRoundId(blockTime);\n\n        // Solidity memory arrays aren't resizable (and reading storage is expensive). Hence this hackery to filter\n        // `pendingPriceRequests` only to those requests that `isActive()`.\n        PendingRequest[] memory unresolved = new PendingRequest[](pendingPriceRequests.length);\n        uint numUnresolved = 0;\n\n        for (uint i = 0; i < pendingPriceRequests.length; i++) {\n            PriceRequest storage priceRequest = priceRequests[pendingPriceRequests[i]];\n            if (_getRequestStatus(priceRequest, currentRoundId) == RequestStatus.Active) {\n                unresolved[numUnresolved] = PendingRequest(\n                    { identifier: priceRequest.identifier, time: priceRequest.time });\n                numUnresolved++;\n            }\n        }\n\n        pendingRequests = new PendingRequest[](numUnresolved);\n        for (uint i = 0; i < numUnresolved; i++) {\n            pendingRequests[i] = unresolved[i];\n        }\n    }\n\n    function getVotePhase() external view returns (VoteTiming.Phase) {\n        return voteTiming.computeCurrentPhase(getCurrentTime());\n    }\n\n    function getCurrentRoundId() external view returns (uint) {\n        return voteTiming.computeCurrentRoundId(getCurrentTime());\n    }\n\n    function commitVote(bytes32 identifier, uint time, bytes32 hash) public onlyIfNotMigrated() {\n        // TODO(#779): Committed hash of 0 is disallowed, choose a different salt\n        require(hash != bytes32(0));\n\n        // Current time is required for all vote timing queries.\n        uint blockTime = getCurrentTime();\n        // TODO(#779): Cannot commit while in the reveal phase\n        require(voteTiming.computeCurrentPhase(blockTime) == VoteTiming.Phase.Commit);\n\n        // Should only update the round in the commit phase because a new round that's already in the reveal phase\n        // would be wasted.\n        _updateRound(blockTime);\n\n        // At this point, the computed and last updated round ID should be equal.\n        uint currentRoundId = voteTiming.computeCurrentRoundId(blockTime);\n\n        PriceRequest storage priceRequest = _getPriceRequest(identifier, time);\n        // TODO(#779): Cannot commit on inactive request\n        require(_getRequestStatus(priceRequest, currentRoundId) == RequestStatus.Active);\n\n        priceRequest.lastVotingRound = currentRoundId;\n        VoteInstance storage voteInstance = priceRequest.voteInstances[currentRoundId];\n        voteInstance.voteSubmissions[msg.sender].commit = hash;\n\n        emit VoteCommitted(msg.sender, currentRoundId, identifier, time);\n    }\n\n    function revealVote(bytes32 identifier, uint time, int price, int salt) public onlyIfNotMigrated() {\n        uint blockTime = getCurrentTime();\n        require(voteTiming.computeCurrentPhase(blockTime) == VoteTiming.Phase.Reveal,\n            \"Cannot reveal while in the commit phase\");\n\n        // Note: computing the current round is required to disallow people from revealing an old commit after the\n        // round is over.\n        uint roundId = voteTiming.computeCurrentRoundId(blockTime);\n\n        PriceRequest storage priceRequest = _getPriceRequest(identifier, time);\n        VoteInstance storage voteInstance = priceRequest.voteInstances[roundId];\n        VoteSubmission storage voteSubmission = voteInstance.voteSubmissions[msg.sender];\n\n        // 0 hashes are disallowed in the commit phase, so they indicate a different error.\n        require(voteSubmission.commit != bytes32(0), \"Cannot reveal an uncommitted or previously revealed hash\");\n        require(keccak256(abi.encode(price, salt)) == voteSubmission.commit,\n                \"Committed hash doesn't match revealed price and salt\");\n        delete voteSubmission.commit;\n\n        // Get or create a snapshot for this round.\n        uint snapshotId = _getOrCreateSnapshotId(roundId);\n\n        // Get the voter's snapshotted balance. Since balances are returned pre-scaled by 10**18, we can directly\n        // initialize the Unsigned value with the returned uint.\n        FixedPoint.Unsigned memory balance = FixedPoint.Unsigned(votingToken.balanceOfAt(msg.sender, snapshotId));\n\n        // Set the voter's submission.\n        voteSubmission.revealHash = keccak256(abi.encode(price));\n\n        // Add vote to the results.\n        voteInstance.resultComputation.addVote(price, balance);\n\n        // Remove the stored message for this price request, if it exists.\n        bytes32 topicHash = keccak256(abi.encode(identifier, time, roundId));\n        removeMessage(msg.sender, topicHash);\n\n        emit VoteRevealed(msg.sender, roundId, identifier, time, price, balance.rawValue);\n    }\n\n    function commitAndPersistEncryptedVote(\n        bytes32 identifier,\n        uint time,\n        bytes32 hash,\n        bytes memory encryptedVote\n    ) public {\n        commitVote(identifier, time, hash);\n\n        uint roundId = voteTiming.computeCurrentRoundId(getCurrentTime());\n        bytes32 topicHash = keccak256(abi.encode(identifier, time, roundId));\n        sendMessage(msg.sender, topicHash, encryptedVote);\n    }\n\n    /**\n     * @notice Resets the inflation rate. Note: this change only applies to rounds that have not yet begun.\n     * @dev This method is public because calldata structs are not currently supported by solidity.\n     */\n    function setInflationRate(FixedPoint.Unsigned memory _inflationRate) public onlyOwner {\n        inflationRate = _inflationRate;\n    }\n\n    function retrieveRewards(address voterAddress, uint roundId, PendingRequest[] memory toRetrieve)\n        public\n        returns (FixedPoint.Unsigned memory totalRewardToIssue)\n    {\n        if (migratedAddress != address(0)) {\n            require(msg.sender == migratedAddress);\n        }\n        uint blockTime = getCurrentTime();\n        _updateRound(blockTime);\n        require(roundId < voteTiming.computeCurrentRoundId(blockTime));\n\n        Round storage round = rounds[roundId];\n        FixedPoint.Unsigned memory snapshotBalance = FixedPoint.Unsigned(\n            votingToken.balanceOfAt(voterAddress, round.snapshotId));\n\n        // Compute the total amount of reward that will be issued for each of the votes in the round.\n        FixedPoint.Unsigned memory snapshotTotalSupply = FixedPoint.Unsigned(\n            votingToken.totalSupplyAt(round.snapshotId));\n        FixedPoint.Unsigned memory totalRewardPerVote = round.inflationRate.mul(snapshotTotalSupply);\n\n        // Keep track of the voter's accumulated token reward.\n        totalRewardToIssue = FixedPoint.Unsigned(0);\n\n        for (uint i = 0; i < toRetrieve.length; i++) {\n            PriceRequest storage priceRequest = _getPriceRequest(toRetrieve[i].identifier, toRetrieve[i].time);\n            VoteInstance storage voteInstance = priceRequest.voteInstances[priceRequest.lastVotingRound];\n            VoteSubmission storage voteSubmission = voteInstance.voteSubmissions[voterAddress];\n\n            require(priceRequest.lastVotingRound == roundId, \"Only retrieve rewards for votes resolved in same round\");\n\n            _resolvePriceRequest(priceRequest, voteInstance);\n\n            if (voteInstance.resultComputation.wasVoteCorrect(voteSubmission.revealHash)) {\n                // The price was successfully resolved during the voter's last voting round, the voter revealed and was\n                // correct, so they are elgible for a reward.\n                FixedPoint.Unsigned memory correctTokens = voteInstance.resultComputation.\n                    getTotalCorrectlyVotedTokens();\n\n                // Compute the reward and add to the cumulative reward.\n                FixedPoint.Unsigned memory reward = snapshotBalance.mul(totalRewardPerVote).div(correctTokens);\n                totalRewardToIssue = totalRewardToIssue.add(reward);\n            }\n\n            // Delete the submission to capture any refund and clean up storage.\n            delete voteSubmission.revealHash;\n        }\n\n        // Issue any accumulated rewards.\n        if (totalRewardToIssue.isGreaterThan(0)) {\n            require(votingToken.mint(voterAddress, totalRewardToIssue.rawValue));\n            emit RewardsRetrieved(voterAddress, roundId, totalRewardToIssue.rawValue);\n        }\n    }\n\n    /*\n     * @dev Checks to see if there is a price that has or can be resolved for an (identifier, time) pair.\n     * @returns a boolean noting whether a price is resolved, the price, and an error string if necessary.\n     */\n    function _getPriceOrError(bytes32 identifier, uint time)\n        private\n        view\n        returns (bool _hasPrice, int price, string memory err)\n    {\n        PriceRequest storage priceRequest = _getPriceRequest(identifier, time);\n        uint currentRoundId = voteTiming.computeCurrentRoundId(getCurrentTime());\n\n        RequestStatus requestStatus = _getRequestStatus(priceRequest, currentRoundId);\n        if (requestStatus == RequestStatus.Active) {\n            return (false, 0, \"The current voting round has not ended\");\n        } else if (requestStatus == RequestStatus.Resolved) {\n            VoteInstance storage voteInstance = priceRequest.voteInstances[priceRequest.lastVotingRound];\n            (, int resolvedPrice) = voteInstance.resultComputation.getResolvedPrice(\n                _computeGat(priceRequest.lastVotingRound));\n            return (true, resolvedPrice, \"\");\n        } else if (requestStatus == RequestStatus.Future) {\n            return (false, 0, \"Price will be voted on in the future\");\n        } else {\n            return (false, 0, \"Price was never requested\");\n        }\n    }\n\n    function _getPriceRequest(bytes32 identifier, uint time) private view returns (PriceRequest storage) {\n        return priceRequests[_encodePriceRequest(identifier, time)];\n    }\n\n    function _encodePriceRequest(bytes32 identifier, uint time) private pure returns (bytes32) {\n        return keccak256(abi.encode(identifier, time));\n    }\n\n    function _getOrCreateSnapshotId(uint roundId) private returns (uint) {\n        Round storage round = rounds[roundId];\n        if (round.snapshotId == 0) {\n            // There is no snapshot ID set, so create one.\n            round.snapshotId = votingToken.snapshot();\n        }\n\n        return round.snapshotId;\n    }\n\n    function _resolvePriceRequest(PriceRequest storage priceRequest, VoteInstance storage voteInstance) private {\n        if (priceRequest.index == UINT_MAX) {\n            return;\n        }\n        (bool isResolved, int resolvedPrice) = voteInstance.resultComputation.getResolvedPrice(\n            _computeGat(priceRequest.lastVotingRound));\n        require(isResolved, \"Can't resolve an unresolved price request\");\n\n        // Delete the resolved price request from pendingPriceRequests.\n        uint lastIndex = pendingPriceRequests.length - 1;\n        PriceRequest storage lastPriceRequest = priceRequests[pendingPriceRequests[lastIndex]];\n        lastPriceRequest.index = priceRequest.index;\n        pendingPriceRequests[priceRequest.index] = pendingPriceRequests[lastIndex];\n        delete pendingPriceRequests[lastIndex];\n\n        priceRequest.index = UINT_MAX;\n        emit PriceResolved(priceRequest.lastVotingRound, priceRequest.identifier, priceRequest.time, resolvedPrice);\n    }\n\n    function _updateRound(uint blockTime) private {\n        if (!voteTiming.shouldUpdateRoundId(blockTime)) {\n            return;\n        }\n        uint nextVotingRoundId = voteTiming.computeCurrentRoundId(blockTime);\n\n        // Set the round inflation rate to the current global inflation rate.\n        rounds[nextVotingRoundId].inflationRate = inflationRate;\n\n        // Update the stored round to the current one.\n        voteTiming.updateRoundId(blockTime);\n    }\n\n    function _computeGat(uint roundId) private view returns (FixedPoint.Unsigned memory) {\n        uint snapshotId = rounds[roundId].snapshotId;\n        if (snapshotId == 0) {\n            // No snapshot - return max value to err on the side of caution.\n            return FixedPoint.Unsigned(UINT_MAX);\n        }\n\n        // Grab the snaphotted supply from the voting token. It's already scaled by 10**18, so we can directly\n        // initialize the Unsigned value with the returned uint.\n        FixedPoint.Unsigned memory snapshottedSupply = FixedPoint.Unsigned(votingToken.totalSupplyAt(snapshotId));\n\n        // Multiply the total supply at the snapshot by the gatPercentage to get the GAT in number of tokens.\n        return snapshottedSupply.mul(gatPercentage);\n    }\n\n    function _getRequestStatus(PriceRequest storage priceRequest, uint currentRoundId)\n        private\n        view\n        returns (RequestStatus)\n    {\n        if (priceRequest.lastVotingRound == 0) {\n            return RequestStatus.NotRequested;\n        } else if (priceRequest.lastVotingRound < currentRoundId) {\n            VoteInstance storage voteInstance = priceRequest.voteInstances[priceRequest.lastVotingRound];\n            (bool isResolved, ) = voteInstance.resultComputation.getResolvedPrice(\n                _computeGat(priceRequest.lastVotingRound));\n            return isResolved ? RequestStatus.Resolved : RequestStatus.Active;\n        } else if (priceRequest.lastVotingRound == currentRoundId) {\n            return RequestStatus.Active;\n        } else {\n            // Means than priceRequest.lastVotingRound > currentRoundId\n            return RequestStatus.Future;\n        }\n    }\n}\n",
  "sourcePath": "/Users/ptare/protocol/core/contracts/Voting.sol",
  "compiler": {
    "name": "solc",
    "version": "0.5.13+commit.5b0b510c.Emscripten.clang"
  },
  "schemaVersion": "3.0.19",
  "updatedAt": "2019-12-20T16:30:05.405Z",
  "networkType": "ethereum",
  "devdoc": {
    "details": "Handles receiving and resolving price requests via a commit-reveal voting scheme.",
    "methods": {
      "constructor": {
        "params": {
          "_gatPercentage": "percentage of the total token supply that must be used in a vote to create a valid price resolution.",
          "_isTest": "whether this contract is being constructed for the purpose of running automated tests.",
          "phaseLength": "length of the commit and reveal phases in seconds."
        }
      },
      "getMessage(address,bytes32)": {
        "details": "To decrypt messages (this requires access to the recipient's private keys), use the decryptMessage() function in common/Crypto.js."
      },
      "getPublicKey(address,bytes32)": {
        "details": "Senders may need this public key to encrypt messages that only the `recipient` can read. If the public key is communicated offchain, this field may be left empty."
      },
      "isOwner()": {
        "details": "Returns true if the caller is the current owner."
      },
      "owner()": {
        "details": "Returns the address of the current owner."
      },
      "renounceOwnership()": {
        "details": "Leaves the contract without owner. It will not be possible to call `onlyOwner` functions anymore. Can only be called by the current owner.     * NOTE: Renouncing ownership will leave the contract without an owner, thereby removing any functionality that is only available to the owner."
      },
      "sendMessage(address,bytes32,bytes)": {
        "details": "To construct an encrypted message, use the encryptMessage() in common/Crypto.js. The public key for the recipient can be obtained using the getPublicKey() method."
      },
      "setCurrentTime(uint256)": {
        "details": "Will revert if not running in test mode."
      },
      "setInflationRate((uint256))": {
        "details": "This method is public because calldata structs are not currently supported by solidity."
      },
      "setPublicKey(bytes,bytes32)": {
        "details": "Note: setting the public key is optional - if the publicKey is communicated or can be derived offchain by the sender, there is no need to set it here. Because there are no specific requirements for the publicKey, there is also no verification of its validity other than its length."
      },
      "transferOwnership(address)": {
        "details": "Transfers ownership of the contract to a new account (`newOwner`). Can only be called by the current owner."
      }
    },
    "title": "Voting system for Oracle."
  },
  "userdoc": {
    "methods": {
      "addAuthorizedSender(address)": {
        "notice": "Authorizes `sender` to send messages to the caller."
      },
      "addSupportedIdentifier(bytes32)": {
        "notice": "Adds the provided identifier as a supported identifier. Price requests using this identifier will be succeed after this call."
      },
      "constructor": "Construct the Voting contract.",
      "getCurrentTime()": {
        "notice": "Gets the current time. Will return the last time set in `setCurrentTime` if running in test mode. Otherwise, it will return the block timestamp."
      },
      "getMessage(address,bytes32)": {
        "notice": "Gets the current stored message corresponding to `recipient` and `topicHash`."
      },
      "getPublicKey(address,bytes32)": {
        "notice": "Gets the stored public key for a particular `recipient` and `topicHash`. Return value will be 0 length if no public key has been set."
      },
      "isAuthorizedSender(address,address)": {
        "notice": "Returns true if the `sender` is authorized to send to the `recipient`."
      },
      "removeAuthorizedSender(address)": {
        "notice": "Revokes `sender`'s authorization to send messages to the caller."
      },
      "removeSupportedIdentifier(bytes32)": {
        "notice": "Removes the identifier from the whitelist. Price requests using this identifier will no longer succeed after this call."
      },
      "sendMessage(address,bytes32,bytes)": {
        "notice": "Sends `message` to `recipient_` categorized by a particular `topicHash`. This will overwrite any previous messages sent to this `recipient` with this `topicHash`."
      },
      "setCurrentTime(uint256)": {
        "notice": "Sets the current time."
      },
      "setInflationRate((uint256))": {
        "notice": "Resets the inflation rate. Note: this change only applies to rounds that have not yet begun."
      },
      "setMigrated(address)": {
        "notice": "Disables this Voting contract in favor of the migrated one."
      },
      "setPublicKey(bytes,bytes32)": {
        "notice": "Sets the public key for this caller and topicHash."
      }
    }
  }
}