{
  "contractName": "Withdrawable",
  "abi": [
    {
      "constant": false,
      "inputs": [
        {
          "internalType": "uint256",
          "name": "roleId",
          "type": "uint256"
        },
        {
          "internalType": "address",
          "name": "newMember",
          "type": "address"
        }
      ],
      "name": "addMember",
      "outputs": [],
      "payable": false,
      "stateMutability": "nonpayable",
      "type": "function"
    },
    {
      "constant": true,
      "inputs": [
        {
          "internalType": "uint256",
          "name": "roleId",
          "type": "uint256"
        }
      ],
      "name": "getMember",
      "outputs": [
        {
          "internalType": "address",
          "name": "",
          "type": "address"
        }
      ],
      "payable": false,
      "stateMutability": "view",
      "type": "function"
    },
    {
      "constant": true,
      "inputs": [
        {
          "internalType": "uint256",
          "name": "roleId",
          "type": "uint256"
        },
        {
          "internalType": "address",
          "name": "memberToCheck",
          "type": "address"
        }
      ],
      "name": "holdsRole",
      "outputs": [
        {
          "internalType": "bool",
          "name": "",
          "type": "bool"
        }
      ],
      "payable": false,
      "stateMutability": "view",
      "type": "function"
    },
    {
      "constant": false,
      "inputs": [
        {
          "internalType": "uint256",
          "name": "roleId",
          "type": "uint256"
        },
        {
          "internalType": "address",
          "name": "memberToRemove",
          "type": "address"
        }
      ],
      "name": "removeMember",
      "outputs": [],
      "payable": false,
      "stateMutability": "nonpayable",
      "type": "function"
    },
    {
      "constant": false,
      "inputs": [
        {
          "internalType": "uint256",
          "name": "roleId",
          "type": "uint256"
        },
        {
          "internalType": "address",
          "name": "newMember",
          "type": "address"
        }
      ],
      "name": "resetMember",
      "outputs": [],
      "payable": false,
      "stateMutability": "nonpayable",
      "type": "function"
    },
    {
      "constant": false,
      "inputs": [
        {
          "internalType": "uint256",
          "name": "amount",
          "type": "uint256"
        }
      ],
      "name": "withdraw",
      "outputs": [],
      "payable": false,
      "stateMutability": "nonpayable",
      "type": "function"
    },
    {
      "constant": false,
      "inputs": [
        {
          "internalType": "address",
          "name": "erc20Address",
          "type": "address"
        },
        {
          "internalType": "uint256",
          "name": "amount",
          "type": "uint256"
        }
      ],
      "name": "withdrawErc20",
      "outputs": [],
      "payable": false,
      "stateMutability": "nonpayable",
      "type": "function"
    }
  ],
  "bytecode": "0x608060405234801561001057600080fd5b50610d88806100206000396000f3fe608060405234801561001057600080fd5b506004361061007d5760003560e01c80637cdc1cb91161005b5780637cdc1cb91461014c578063ab3545e5146101b2578063bd1f4b5214610220578063d97c05be1461026e5761007d565b80632e1a7d4d146100825780636be7658b146100b057806374d0a676146100fe575b600080fd5b6100ae6004803603602081101561009857600080fd5b81019080803590602001909291905050506102bc565b005b6100fc600480360360408110156100c657600080fd5b8101908080359060200190929190803573ffffffffffffffffffffffffffffffffffffffff169060200190929190505050610369565b005b61014a6004803603604081101561011457600080fd5b8101908080359060200190929190803573ffffffffffffffffffffffffffffffffffffffff16906020019092919050505061049c565b005b6101986004803603604081101561016257600080fd5b8101908080359060200190929190803573ffffffffffffffffffffffffffffffffffffffff1690602001909291905050506105cf565b604051808215151515815260200191505060405180910390f35b6101de600480360360208110156101c857600080fd5b81019080803590602001909291905050506106fd565b604051808273ffffffffffffffffffffffffffffffffffffffff1673ffffffffffffffffffffffffffffffffffffffff16815260200191505060405180910390f35b61026c6004803603604081101561023657600080fd5b81019080803573ffffffffffffffffffffffffffffffffffffffff169060200190929190803590602001909291905050506107b6565b005b6102ba6004803603604081101561028457600080fd5b8101908080359060200190929190803573ffffffffffffffffffffffffffffffffffffffff1690602001909291905050506108ee565b005b6001546102c981336105cf565b61031e576040517f08c379a0000000000000000000000000000000000000000000000000000000008152600401808060200182810382526022815260200180610ceb6022913960400191505060405180910390fd5b3373ffffffffffffffffffffffffffffffffffffffff166108fc839081150290604051600060405180830381858888f19350505050158015610364573d6000803e3d6000fd5b505050565b8160028081111561037657fe5b60008083815260200190815260200160002060010160009054906101000a900460ff1660028111156103a457fe5b146103fa576040517f08c379a000000000000000000000000000000000000000000000000000000000815260040180806020018281038252602c815260200180610cbf602c913960400191505060405180910390fd5b8261041a60008083815260200190815260200160002060000154336105cf565b61046f576040517f08c379a0000000000000000000000000000000000000000000000000000000008152600401808060200182810382526024815260200180610d306024913960400191505060405180910390fd5b61049683600080878152602001908152602001600020600301610a2290919063ffffffff16565b50505050565b816002808111156104a957fe5b60008083815260200190815260200160002060010160009054906101000a900460ff1660028111156104d757fe5b1461052d576040517f08c379a000000000000000000000000000000000000000000000000000000000815260040180806020018281038252602c815260200180610cbf602c913960400191505060405180910390fd5b8261054d60008083815260200190815260200160002060000154336105cf565b6105a2576040517f08c379a0000000000000000000000000000000000000000000000000000000008152600401808060200182810382526024815260200180610d306024913960400191505060405180910390fd5b6105c983600080878152602001908152602001600020600301610a8090919063ffffffff16565b50505050565b6000806000808581526020019081526020016000209050600160028111156105f357fe5b8160010160009054906101000a900460ff16600281111561061057fe5b14156106345761062c8382600201610ade90919063ffffffff16565b9150506106f7565b60028081111561064057fe5b8160010160009054906101000a900460ff16600281111561065d57fe5b1415610681576106798382600301610b3b90919063ffffffff16565b9150506106f7565b60006106f5576040517f08c379a000000000000000000000000000000000000000000000000000000000815260040180806020018281038252600e8152602001807f496e76616c696420726f6c65496400000000000000000000000000000000000081525060200191505060405180910390fd5b505b92915050565b6000816001600281111561070d57fe5b60008083815260200190815260200160002060010160009054906101000a900460ff16600281111561073b57fe5b14610791576040517f08c379a000000000000000000000000000000000000000000000000000000000815260040180806020018281038252602f815260200180610c90602f913960400191505060405180910390fd5b6107ae600080858152602001908152602001600020600201610b94565b915050919050565b6001546107c381336105cf565b610818576040517f08c379a0000000000000000000000000000000000000000000000000000000008152600401808060200182810382526022815260200180610ceb6022913960400191505060405180910390fd5b60008390508073ffffffffffffffffffffffffffffffffffffffff1663a9059cbb33856040518363ffffffff1660e01b8152600401808373ffffffffffffffffffffffffffffffffffffffff1673ffffffffffffffffffffffffffffffffffffffff16815260200182815260200192505050602060405180830381600087803b1580156108a457600080fd5b505af11580156108b8573d6000803e3d6000fd5b505050506040513d60208110156108ce57600080fd5b81019080805190602001909291905050506108e857600080fd5b50505050565b81600160028111156108fc57fe5b60008083815260200190815260200160002060010160009054906101000a900460ff16600281111561092a57fe5b14610980576040517f08c379a000000000000000000000000000000000000000000000000000000000815260040180806020018281038252602f815260200180610c90602f913960400191505060405180910390fd5b826109a060008083815260200190815260200160002060000154336105cf565b6109f5576040517f08c379a0000000000000000000000000000000000000000000000000000000008152600401808060200182810382526024815260200180610d306024913960400191505060405180910390fd5b610a1c83600080878152602001908152602001600020600201610bc290919063ffffffff16565b50505050565b60008260000160008373ffffffffffffffffffffffffffffffffffffffff1673ffffffffffffffffffffffffffffffffffffffff16815260200190815260200160002060006101000a81548160ff0219169083151502179055505050565b60018260000160008373ffffffffffffffffffffffffffffffffffffffff1673ffffffffffffffffffffffffffffffffffffffff16815260200190815260200160002060006101000a81548160ff0219169083151502179055505050565b60008173ffffffffffffffffffffffffffffffffffffffff168360000160009054906101000a900473ffffffffffffffffffffffffffffffffffffffff1673ffffffffffffffffffffffffffffffffffffffff1614905092915050565b60008260000160008373ffffffffffffffffffffffffffffffffffffffff1673ffffffffffffffffffffffffffffffffffffffff16815260200190815260200160002060009054906101000a900460ff16905092915050565b60008160000160009054906101000a900473ffffffffffffffffffffffffffffffffffffffff169050919050565b600073ffffffffffffffffffffffffffffffffffffffff168173ffffffffffffffffffffffffffffffffffffffff161415610c48576040517f08c379a0000000000000000000000000000000000000000000000000000000008152600401808060200182810382526023815260200180610d0d6023913960400191505060405180910390fd5b808260000160006101000a81548173ffffffffffffffffffffffffffffffffffffffff021916908373ffffffffffffffffffffffffffffffffffffffff160217905550505056fe4d7573742062652063616c6c6564206f6e20616e20696e697469616c697a6564204578636c757369766520726f6c654d7573742062652063616c6c6564206f6e20616e20696e697469616c697a65642053686172656420726f6c6553656e64657220646f6573206e6f7420686f6c6420726571756972656420726f6c6543616e6e6f742073657420616e206578636c757369766520726f6c6520746f2030783043616e206f6e6c792062652063616c6c6564206279206120726f6c65206d616e61676572a265627a7a7231582007c30871651508a619dd1305e5c378b9c43b21ccf416b421f5bd94cce08b3da764736f6c634300050d0032",
  "source": "/**\n * Withdrawable contract.\n */\n\npragma solidity ^0.5.0;\n\nimport \"@openzeppelin/contracts/token/ERC20/IERC20.sol\";\nimport \"./MultiRole.sol\";\n\n\n/**\n * @title Base contract that allows a specific role to withdraw any ETH and/or ERC20 tokens that the contract holds.\n */\ncontract Withdrawable is MultiRole {\n\n    uint private _roleId;\n\n    /**\n     * @notice Withdraws ETH from the contract.\n     */\n    function withdraw(uint amount) external onlyRoleHolder(_roleId) {\n        msg.sender.transfer(amount);\n    }\n\n    /**\n     * @notice Withdraws ERC20 tokens from the contract.\n     */\n    function withdrawErc20(address erc20Address, uint amount) external onlyRoleHolder(_roleId) {\n        IERC20 erc20 = IERC20(erc20Address);\n        require(erc20.transfer(msg.sender, amount));\n    }\n\n    /**\n     * @notice Internal method that allows derived contracts to create a role for withdrawal.\n     * @dev Either this method or `setWithdrawRole` must be called by the derived class for this contract to function\n     * properly.\n     */\n    function createWithdrawRole(uint roleId, uint managingRoleId, address owner) internal {\n        _roleId = roleId;\n        _createExclusiveRole(roleId, managingRoleId, owner);\n    }\n\n    /**\n     * @notice Internal method that allows derived contracts to choose the role for withdrawal.\n     * @dev The role `roleId` must exist. Either this method or `createWithdrawRole` must be called by the derived class\n     * for this contract to function properly.\n     */\n    function setWithdrawRole(uint roleId) internal {\n        _roleId = roleId;\n    }\n}\n",
  "sourcePath": "/Users/ptare/protocol/core/contracts/Withdrawable.sol",
  "compiler": {
    "name": "solc",
    "version": "0.5.13+commit.5b0b510c.Emscripten.clang"
  },
  "schemaVersion": "3.0.19",
  "updatedAt": "2019-12-19T23:40:36.540Z",
  "devdoc": {
    "methods": {
      "addMember(uint256,address)": {
        "details": "Reverts if `roleId` does not represent an initialized, shared role or if the caller is not a member of the managing role for `roleId`."
      },
      "getMember(uint256)": {
        "details": "Reverts if `roleId` does not represent an initialized, exclusive role."
      },
      "holdsRole(uint256,address)": {
        "details": "Reverts if roleId does not correspond to an initialized role."
      },
      "removeMember(uint256,address)": {
        "details": "Reverts if `roleId` does not represent an initialized, shared role or if the caller is not a member of the managing role for `roleId`."
      },
      "resetMember(uint256,address)": {
        "details": "Reverts if the caller is not a member of the managing role for `roleId` or if `roleId` is not an initialized, exclusive role."
      }
    },
    "title": "Base contract that allows a specific role to withdraw any ETH and/or ERC20 tokens that the contract holds."
  },
  "userdoc": {
    "methods": {
      "addMember(uint256,address)": {
        "notice": "Adds `newMember` to the shared role, `roleId`."
      },
      "getMember(uint256)": {
        "notice": "Gets the current holder of the exclusive role, `roleId`."
      },
      "holdsRole(uint256,address)": {
        "notice": "Whether `memberToCheck` is a member of roleId."
      },
      "removeMember(uint256,address)": {
        "notice": "Removes `memberToRemove` from the shared role, `roleId`."
      },
      "resetMember(uint256,address)": {
        "notice": "Changes the exclusive role holder of `roleId` to `newMember`."
      },
      "withdraw(uint256)": {
        "notice": "Withdraws ETH from the contract."
      },
      "withdrawErc20(address,uint256)": {
        "notice": "Withdraws ERC20 tokens from the contract."
      }
    }
  }
}